:020000040800F2
:100000006019002009010008C9200008D301000878
:10001000C5200008DD0700080533000800000000C7
:10002000000000000000000000000000012E000899
:10003000E1070008000000005B010008032E000833
:100040002301000823010008230100082301000800
:1000500023010008230100082301000823010008F0
:1000600023010008230100082301000823010008E0
:1000700023010008230100082301000823010008D0
:1000800023010008230100082301000823010008C0
:10009000230100082301000823010008610B000868
:1000A00000000000230100082301000823010008CC
:1000B0002301000823010008230100082301000890
:1000C0002301000823010008230100082301000880
:1000D00023010008F532000823010008230100086D
:1000E0002301000823010008230100082301000860
:1000F00023010008DFF80CD000F02EFB0048004779
:10010000D3070008601900200648804706480047CA
:10011000FEE7FEE7FEE7FEE7FEE7FEE7FEE7FEE7B7
:10012000FEE7FEE7652F0008F5000008EFF31080FA
:1001300072B6704780F310887047334A1368012BFA
:1001400004D04FF001031360304A1060304A116050
:1001500030484FF0805101607047EFF3108272B663
:100160002948016891B14FF00001016027480168FA
:1001700029B1EFF3098121E9F00F006801602449FA
:1001800009680968B1E8F00F81F3098882F31088E3
:100190004EF0040E70471E4908601C494FF00000E5
:1001A000086019494FF0010008601B484FF47F01B7
:1001B000D0F8002041EA0201016016484FF080515A
:1001C000016016480068006880F3088861B662B66E
:1001D00070471EF0040F0CBFEFF30880EFF30980A7
:1001E00020E9F00F40F804ED1EF0040F0CBF80F37F
:1001F000088880F3098800B503F072FE5DF804EB0F
:100200004EF0040E70470000240100201C01002065
:100210002001002004ED00E020ED00E008ED00E00A
:100220002DE9F05F0546002092469B46884606462B
:10023000814640241BE0284641464746224600F0BE
:100240000CFA53465A46C01A914110D3114618462B
:10025000224600F0F3F92D1A67EB01084F462246BB
:100260000120002100F0EAF917EB00094E41201EA1
:10027000A4F10104DFDC484631462A464346BDE886
:10028000F09FD2B201E000F8012B491EFBD270476B
:100290000022F6E710B513460A4604461946FFF752
:1002A000F0FF204610BD2DE9FE4F804681EA030095
:1002B000C00F0C46009021F0004123F00045B8EB40
:1002C0000200A94105D24046214690461C460B46F5
:1002D000024623F00040104347D0270DC7F30A0021
:1002E000C3F30A510290401A019040286BDAC3F31D
:1002F000130040F4801B0098924620B10023D2EBFB
:10030000030A63EB0B0B01985946C0F140025046BB
:1003100000F094F906460D4650465946019A00F001
:10032000ACF910EB08006141002487EA115284EA1D
:10033000E7731A4340D0009A62B3019A012A4FEA48
:10034000075215DC001B61EB02014FF0004202EA8C
:100350000752CDE90042001C41F5801132462B4680
:1003600000F0ACF903B0BDE8F08F40462146F9E754
:10037000001B61EB0201001C41F5801300185B417A
:100380002018A2F5001747EB030140EAD570B61913
:100390006D4111E06D084FEA360645EAC0754FEA37
:1003A0000752001B61EB0201001C41F58011490856
:1003B0004FEA30000019514132462B4603B0BDE8E8
:1003C000F04F00F06CB90098012240000023D0EB00
:1003D000020263EBE073009821464FEAE074B8EB49
:1003E000000061EB0401E9E783F000435BE781F083
:1003F000004158E72DE9FE4F81EA030404F0004470
:1004000021F0004100944FF0000B23F0004350EA2C
:1004100001045ED052EA03045BD0C3F30A54C1F373
:100420000A552C44A4F2F3340194A0FB0254C1F306
:10043000130141F48011C3F3130343F4801301FB50
:10044000024400FB034E840A970A44EA815447EAB7
:100450008357A4FB076802958D0A05FB07854FEAC1
:10046000932C04FB0C542705029D4FEA065847EADB
:100470001637B5EB08056EEB070C870E920E47EAB0
:10048000811742EA8312A7FB0201B6EB0B0164EB72
:1004900000042B0D43EA0C335E1844EB1C50DA4683
:1004A0005146E7FB0201C5F313044FEA0B3343EA5D
:1004B00014534FEA0432019C43EA0603A4F10C04EE
:1004C0000294009CCDE900B400F0F8F803B0BDE858
:1004D000F08F00200146F9E72DE9F04D81EA030491
:1004E00004F0004B21F0004514464FF0000A23F0C1
:1004F000004150EA050220D054EA01021DD0C5F3A4
:100500000A570246C5F31303C1F31300C1F30A5699
:1005100040F4801543F48013A7EB0608101BD64661
:1005200008F2FD3873EB050002D308F1010801E081
:1005300092185B41B8F1000F03DA00200146BDE8D4
:10054000F08D00204FF48011064684460EE0171B04
:1005500073EB050705D3121B63EB050306434CEA57
:10056000010C49084FEA300092185B4150EA01073C
:10057000EDD152EA030012D082EA040083EA0501B9
:10058000084305D0101BAB4106D20122002306E030
:1005900000224FF0004302E06FF0010253101AEB0B
:1005A00006004CEB085110EB0A0041EB0B01BDE8D3
:1005B000F04D00F074B80EB5C10F80EAE070084449
:1005C000CA07002140F233438DE80E000A460B466D
:1005D00000F074F803B000BDC1F30A5210B5C1F3C6
:1005E000130140F2FF3341F480119A4201DA0020F6
:1005F00010BD40F233439A42A2F2334203DC52422E
:1006000000F02BF810BD904010BD000030B5041E66
:1006100071F1000404DB4FF00044404264EB01013F
:10062000141E73F1000405DB1C464FF000435242D8
:1006300063EB0403994208BF904230BD202A04DBDB
:10064000203A00FA02F1002070479140C2F12003E5
:1006500020FA03F3194390407047202A04DB203A24
:1006600021FA02F00021704721FA02F3D040C2F1D2
:1006700020029140084319467047202A06DBCB1719
:10068000203A41FA02F043EAE07306E041FA02F34D
:10069000D040C2F12002914008431946704710B57E
:1006A000141E73F1000408DA401C41F10001921895
:1006B0005B411A4301D120F0010010BD2DE9F04D3E
:1006C00092469B4611B1B1FA81F202E0B0FA80F293
:1006D00020329046FFF7B2FF04460F4640EA0A0078
:1006E00041EA0B0153465A46084313D0114653EAD8
:1006F000010019D0C8F140025046FFF7AEFF054691
:100700000E46504659464246FFF798FF084305D02B
:10071000012004E020463946BDE8F08D0020054365
:1007200046EAE0762C4337430A986305E40AA0EBD7
:1007300008000022FD0A44EA47540A3002D500208E
:100740000146E9E7010510196941DDE9084500198D
:100750006941BDE8F04DA2E7064C074D06E0E068B0
:1007600040F0010394E8070098471034AC42F6D3F8
:10077000FFF7C4FC5C9C00087C9C000870B58C18DA
:1007800010F8015B15F0070301D110F8013B2A11A5
:1007900006D110F8012B03E010F8016B01F8016B92
:1007A0005B1EF9D12B0705D40023521E0DD401F88E
:1007B000013BFAE710F8013BCB1A921C03E013F857
:1007C000015B01F8015B521EF9D5A142D8D300208C
:1007D00070BD10B504F04EFB002010BD00BFFEE759
:1007E0007047F8B504460F466069401E00902069C6
:1007F000431E00221146204600F059F9002517E05B
:100800002A460021204600F07FF92421204600F0EE
:10081000B4F8002604E03946204600F0BAF8761C09
:100820002069C11700EB5171B6EBE10FF3DB6D1CD2
:100830006069A842E4DCF8BD70B505460C46204668
:1008400000F094F970BD70B505460C46204600F0E6
:1008500093F970BD70B506460C46154629462046EC
:1008600000F09EF970BD10B504462221204600F02C
:1008700084F8C421204600F08CF82021204600F0A6
:100880007CF8FF21204600F078F8204600F05AF965
:1008900010BD70B504460D46012020600220606046
:1008A0000020A0600320E06080202061FA206061C9
:1008B00000F096F910B14FF0FF3070BDA5612046F1
:1008C00000F046F80121204600F057F8F9212046B3
:1008D00000F05FF80021204600F05BF80021204680
:1008E00000F057F80C21204600F047F8D7212046A9
:1008F00000F04FF8D621204600F04BF89D2120460D
:1009000000F047F82C21204600F037F8A8212046B7
:1009100000F03FF83A21204600F02FF81A21204637
:1009200000F037F83B21204600F027F80821204648
:1009300000F02FF81121204600F01FF80321204677
:1009400000F027F82046A16900F09EF80020B4E7E7
:1009500010B50446002220462168FFF77BFF1421D2
:100960002046FFF769FF012220462168FFF772FF4A
:1009700014212046FFF760FF10BD70B504460D46F8
:10098000002220466168FFF765FF284600F046F91F
:1009900070BD70B504460D46012220466168FFF720
:1009A00059FF284600F03AF970BD2DE9FF4F83B09A
:1009B000804614461D46109E049840B1002C06DB6C
:1009C000002E04DB002D02DB1198002802DA07B0AC
:1009D000BDE8F08F04F0F80406F0F806A019D8F886
:1009E0001010884203DBD8F81000471E01E0A01960
:1009F000471E11982844D8F81410884204DBD8F810
:100A00001400A0F1010903E011982844A0F10109A4
:100A10003B462A4621464046CDF8009000F047F874
:100A2000AA462DE052462146404600F06DF82421AA
:100A30004046FFF7A2FF2046E11704EB51714FEA51
:100A4000E10B15E0E01704EB5070ABEBE000F217A0
:100A500006EB5272D210AAEB050303FB0202CDE9AA
:100A600001460498815C4046FFF793FF0BF1010BB0
:100A7000F91707EB5171BBEBE10FE3DD0AF1010A56
:100A8000CA45CFDD00BFA2E770B504460E46A66199
:100A900032212046FFF771FF002505E0A069415D86
:100AA0002046FFF776FF6D1C1E2DF7DB70BD2DE98C
:100AB000F04180460D4614461E46069F442140469E
:100AC000FFF75BFFC5F3C7014046FFF762FFC6F3C0
:100AD000C7014046FFF75DFF45214046FFF74DFF48
:100AE000E1B24046FFF755FFC4F307214046FFF748
:100AF00050FFF9B24046FFF74CFFC7F307214046CD
:100B0000FFF747FFBDE8F08170B506460D46144675
:100B10004E213046FFF731FFC5F3C7013046FFF7DE
:100B200038FF4F213046FFF728FFE1B23046FFF78C
:100B300030FFC4F307213046FFF72BFF304600F0AB
:100B400001F870BD10B5044603E064212046FFF7AC
:100B500073FE2046E168FFF776FE0128F5D010BD50
:100B600010B54FF4807000F0B9F810BD10B5044610
:100B7000204603F0C5FD10BD10B50446074A02EB40
:100B8000C402928891B2054A52F8340000F09CF9F0
:100B9000012800D110BD0020FCE700004C0100201E
:100BA00070B504460D46012D0BD10C4A02EBC40270
:100BB000928891B2094A52F83400012200F096F965
:100BC0000AE0064A02EBC402928891B2034A52F844
:100BD0003400002200F08AF970BD00004C010020B2
:100BE00009480A4A06CA06C00838094A06CAC0E9BE
:100BF0000212084A06CAC0E90412074A06CAC0E936
:100C000006120020704700004C0100200000002068
:100C100008000020100000201800002001B50C4A38
:100C2000928891B20A4A1068002200F05FF94FF4EE
:100C30007A7301226946074800F036FF044A928819
:100C400091B2034A1068012200F050F908BD00007B
:100C50004C01002098110020704770B50446002513
:100C600094F82100022803D00420A063012520E08D
:100C70002068006820F00E00216808602068006885
:100C800020F001002168086094F8400000F01C0189
:100C900001208840E16B4860012084F8210000BFFA
:100CA000002084F8200000BF606B10B12046616B0B
:100CB0008847284670BD000010B50446B4F5807F13
:100CC00009D14FF48071044800F006F94FF4004157
:100CD000014800F001F910BD0000024010B50446C3
:100CE00004480068204020B1024804602046FFF715
:100CF000E3FF10BD1404014078B503460022002430
:100D00000020CAE0012696400D6805EA0604002C82
:100D100071D04D68012D08D04D68022D05D04D6869
:100D2000112D02D04D68122D13D19868560003255D
:100D3000B540A8435600CD68B54028439860586830
:100D400001259540A8430D79C5F30015954028432A
:100D50005860D86856000325B540A84356008D68F2
:100D6000B5402843D8604D68022D02D04D68122D41
:100D700013D1D60803F1200555F826005507EE0ECD
:100D80000F25B540A8435607F60E0D69B540284318
:100D9000D60803F1200545F82600186856000325FB
:100DA000B540A8430D7905F003055600B54028432A
:100DB00018604D6805F08055B5F1805F6CD100BFBB
:100DC000394D2D6845F00105374E356035462D68A3
:100DD00005F00105009500BF00BF344D960855F899
:100DE000260095072E0F0F25B540A843304DAB4286
:100DF00002D1002515E04FE02E4DAB4201D1012577
:100E00000FE02D4DAB4201D102250AE02B4DAB4244
:100E100001D1032505E02A4DAB4201D1042500E0B4
:100E200005259607360FB5402843204D960845F80E
:100E30002600244D2868A0434D6805F48035B5F59B
:100E4000803F00D120431F4D28602D1D2868A043FE
:100E50004D6805F40035B5F5003F00D12043194D2C
:100E60002D1D28602D1D2868A0434D6805F48015B0
:100E7000B5F5801F00D12043124D083528602D1D87
:100E80002868A0434D6805F40015B5F5001F00D192
:100E900020430C4D0C352860521C0D68D540002DA8
:100EA0007FF430AF78BD00002038024008000140D8
:100EB000000002400004024000080240000C024012
:100EC0000010024000040140024613690B400BB1C0
:100ED000012000E00020704710B5426921EA0203BA
:100EE00002EA010443EA0443836110BD0AB181614F
:100EF00001E00B04836170470148006870470000FF
:100F00009000002010B50024032000F0B3F800206A
:100F100000F008F808B1012401E000F02FF82046A5
:100F200010BD000070B50446002511480068D8B116
:100F30000F4800684FF47A71B1FBF0F00D49096871
:100F4000B1FBF0F6304600F086FE58B9102C07D2FF
:100F500000222146501E00F04FF80748046004E0CC
:100F6000012502E0012500E00125284670BD0000B2
:100F7000980000209C0000209400002008B500BFCD
:100F80001448006840F000401249086008460068B4
:100F900000F00040009000BF00BF00BF081F0068C5
:100FA00040F00100091F08600846006800F00100D9
:100FB000009000BF00BF00BF081D006840F08050D7
:100FC000091D08600846006800F08050009000BFCE
:100FD00000BF08BD2438024001460846002809DB4E
:100FE00000F01F0301229A4043099B0003F1E02314
:100FF000C3F8002100BF70472DE9F05F80460D4621
:101000001646002702F098F9074639462A46334625
:1010100001F00700C0F1070ABAF1040F02D94FF03E
:10102000040A01E0C0F1070AD14600F1040ABAF14E
:10103000070F02D24FF0000A01E0A0F1030AD446E4
:101040004FF0010A0AFA09FAAAF1010A0AEA020AA9
:101050000AFA0CFA4FF0010B0BFA0CFBABF1010B87
:101060000BEA030B4AEA0B042146404602F06CF9F6
:10107000BDE8F09F00BF00F00702064B19684FF66D
:10108000FF031940044B0B4343EA0221014B196053
:1010900000BF70470CED00E00000FA052DE9F041BB
:1010A00004460D4614B90120BDE8F0817E48006871
:1010B00000F00100A84218D200BF012D05D17A48E6
:1010C000006840F00400784908607748006820F024
:1010D000010028437449086000BF0846006800F01A
:1010E0000100A84201D00120DEE7207800F00200D4
:1010F000022807D16D48006820F0F000A16808437D
:101100006A490860207800F0010000287FD06068FC
:10111000022807D165480838006800F40030F8B9A3
:101120000120C1E76068032807D1604808380068DB
:1011300000F00070A0B90120B6E76068012807D16F
:101140005A480838006800F0020048B90120ABE7AF
:1011500056480838006800F4007008B90120A3E779
:101160005248006820F00300616808434F49086056
:10117000FFF7C2FE06466068022810D108E0FFF7BC
:10118000BBFE801B41F28831884201D903208BE7E6
:101190004648006800F00C000828F0D137E060688D
:1011A000032810D108E0FFF7A7FE801B41F2883129
:1011B000884201D9032077E73C48006800F00C0022
:1011C0000C28F0D123E06068012810D108E0FFF777
:1011D00093FE801B41F28831884201D9032063E7E6
:1011E0003248006800F00C000428F0D10FE008E05D
:1011F000FFF782FE801B41F28831884201D903202B
:1012000052E72A48006800F00C000028F0D1264878
:10121000006800F00100A84218D900BF012D05D1D7
:101220002148006840F004001F4908601E4800681B
:1012300020F0010028431C49086000BF08460068F0
:1012400000F00100A84201D001202DE7207800F035
:101250000400042807D11548006820F4E060E16824
:10126000084312490860207800F00800082808D1D7
:101270000E48006820F46050216940EAC1000B4923
:10128000086000F041F809490968C1F30311084AF0
:10129000515CC8400749086007480068FFF742FEF4
:1012A0000746384600E70000003C0240083802408C
:1012B000E39A00089C000020940000200148006888
:1012C000704700009C00002000B5FFF7F7FF0449BD
:1012D0000968C1F30221034A515CC84000BD000007
:1012E00008380240F39A000800B5FFF7E7FF044909
:1012F0000968C1F3C221034A515CC84000BD000027
:1013000008380240F39A00082DE9F05F2248D0F82F
:10131000009009F00C0070B3042804D0082804D011
:101320000C2829D103E01D4D32E01D4D30E01D4851
:10133000C9F3834110F801A0C9F38150441C164839
:10134000006800F4803050B11548A0FB0A700146D7
:10135000224600233846FEF763FF064609E00F48A1
:10136000A0FB0A700146224600233846FEF758FFCC
:10137000064635460CE000E000BF0748001F006845
:10138000C0F3423B0BF1010001218140CD0300BFBE
:1013900000BF2846BDE8F09F083802400024F40052
:1013A00000127A00DA9A00082DE9F843044614B9CD
:1013B0000120BDE8F883FE48006800F00C06FC48F8
:1013C000006800F48037207800F00100002875D014
:1013D000082E04D00C2E0ED1B7F5803F0BD1F44867
:1013E0000838006800F40030002867D060680028E2
:1013F00064D10120DDE700BF6068012808D1EC4816
:101400000838006840F48030E949083908602DE068
:10141000606868B9E6480838006820F48030E4491C
:10142000083908600846006820F4802008601DE044
:10143000606805280DD1DE480838006840F4802037
:10144000DB49083908600846006840F480300860CD
:101450000CE0D7480838006820F48030D4490839B7
:1014600008600846006820F48020086000BF6068BB
:1014700090B1FFF741FD054606E0FFF73DFD401B3B
:10148000642801D9032094E7C9480838006800F4AB
:1014900000300028F1D011E0FFF72EFD054606E0F0
:1014A000FFF72AFD401B642801D9032081E7C048CB
:1014B0000838006800F400300028F1D1207800F0EE
:1014C0000200022853D1042E02D00C2E17D1B7B936
:1014D000B7480838006800F0020020B1E068012831
:1014E00001D0012065E7B248001F006820F4F850E1
:1014F000216940EA0120AE49091F086037E0E06831
:1015000000B30120AB490860FFF7F6FC054606E092
:10151000FFF7F2FC401B022801D9032049E7A44849
:101520000838006800F002000028F1D0A048001F31
:10153000006820F4F850216940EA01209C49091F05
:10154000086014E000209B490860FFF7D5FC0546C1
:1015500006E0FFF7D1FC401B022801D9032028E751
:1015600093480838006800F002000028F1D1207884
:1015700000F01000102871D1F6BB8D4808380068C3
:1015800000F4007018B1A06908B9012011E788497A
:10159000091F206A096801F46041884219D9206A4C
:1015A00001F094F908B1012003E78148001F0068A9
:1015B00020F46040216A08437D49091F0860217FAB
:1015C0007B48001F006861F31F607949091F0860AC
:1015D0001AE07748001F006820F46040216A084341
:1015E0007349091F0860217F7148001F006861F37B
:1015F0001F606F49091F00E020E00860206A01F0C9
:1016000065F908B10120D4E60121206A01EB5031CF
:1016100001208840C00366490968C1F30311664A86
:10162000515CC8406549086065480068FFF77AFC6E
:101630008046B8F1000F42D04046BAE6A06948B3F0
:1016400001205C490862FFF757FC054607E0FFF7F9
:1016500053FC401B022802D90320AAE62FE054487D
:101660000838006800F400700028F0D05048001FCF
:10167000006820F46040216A08434D49091F086052
:10168000217F4B48001F006861F31F604849091F14
:10169000086014E0002047490862FFF72DFC05466A
:1016A00006E0FFF729FC401B022801D9032080E651
:1016B0003F480838006800F400700028F1D1207815
:1016C00000F0080008282CD16069A8B101203D492C
:1016D0000860FFF711FC054606E0FFF70DFC401B14
:1016E000022801D9032064E631482C30006800F05C
:1016F00002000028F1D014E0002032490860FFF712
:10170000FBFB054606E0FFF7F7FB401B022801D96B
:1017100003204EE626482C30006800F00200002826
:10172000F1D1207800F0040004286ED14FF00009B8
:101730001F481C30006800F0805088B900BF1C486A
:101740001C30006840F0805019491C310860084680
:10175000006800F08050009000BF00BF4FF001090A
:101760001948006800F48070B0B91748006840F468
:10177000807015490860FFF7BFFB054606E0FFF7DC
:10178000BBFB401B642801D9032012E60E48006809
:1017900000F480700028F2D000BFA068012817D1A3
:1017A00003482C30006840F4807001492C310DE072
:1017B0000838024000004742E39A00089C000020DD
:1017C000940000208006474200700040086028E036
:1017D000A06858B96648006820F4807064490860C1
:1017E0000846006820F4806008601AE0A0680528B8
:1017F0000CD15F48006840F480605D49086008468D
:10180000006840F4807008600BE040E058480068D1
:1018100020F48070564908600846006820F4806013
:10182000086000BFA06898B1FFF766FB054608E0B6
:10183000FFF762FB401B41F28831884201D9032047
:10184000B7E54B48006800F400700028F0D012E0C3
:10185000FFF752FB054608E0FFF74EFB401B41F245
:101860008831884201D90320A3E54148006800F48B
:1018700000700028F0D1B9F1010F07D13C481038B1
:10188000006820F080503A491039086000BF606A53
:10189000A8B30C2E52D0606A022839D100203549F5
:1018A0000866FFF729FB054606E0FFF725FB401B0E
:1018B000022801D903207CE52D483438006800F067
:1018C00000700028F1D1D4E90A010843216B0843D4
:1018D00027492C39096821F47D01084324492C3912
:1018E0000860012023490866FFF706FB054607E06C
:1018F000FFF702FB401B022802D9032059E535E01F
:101900001B483438006800F000700028F0D02DE04B
:10191000002018490866FFF7EFFA054606E0FFF7D2
:10192000EBFA401B022801D9032042E51048343865
:10193000006800F000700028F1D117E0606A01280B
:1019400000D136E50A482C38076807F48031A06AD0
:10195000814209D107F47011E06A814204D107F491
:101960004001206B814201D0012022E5002020E5CA
:10197000343802400000474210B504460CB901203B
:1019800010BD606A38B96068B0F5827F00D105E0AB
:101990000021E16102E00021216161610021A16279
:1019A00094F8510028B9002084F85000204600F037
:1019B0003DF8022084F851002068006820F04000C3
:1019C00021680860A08800F48270218901F4044134
:1019D0000843A18901F400610843217C01F0020160
:1019E0000843217D01F001010843218B01F40071BE
:1019F0000843217F01F0380108432021095D01F0EF
:101A000080010843218D01F40051084321680860DA
:101A10000421A06901EA1040216848600020606547
:101A2000012084F851000020AAE7000010B586B01C
:101A30000446142101A8FEF72BFC184920688842AF
:101A400029D100BF1648006840F48050144908604E
:101A50000846006800F48050009000BF00BF00BF3F
:101A6000081F006840F00100091F08600846006870
:101A700000F00100009000BF00BFA02001900220F4
:101A8000029000200390032004900520059001A9F6
:101A90000448FFF731F906B010BD000000300140E6
:101AA00020380240000002402DE9F84F04468846E5
:101AB00016461D464FF0000A00BF94F8500001285A
:101AC00002D10220BDE8F88F012084F8500000BF49
:101AD000FFF712FA0746B14694F85100012802D0E8
:101AE0004FF0020AADE0B8F1000F00D016B94FF088
:101AF000010AA6E0032084F8510000206065C4F8C4
:101B00003080A686E686A063A087E08760642064B4
:101B1000A068B0F5004F0BD12068006820F04000AD
:101B2000216808602068006840F4804021680860EF
:101B30002068006800F04000402805D02068006858
:101B400040F0400021680860E068B0F5006F2FD1D8
:101B5000606810B1B9F1010F09D1206B00882168CC
:101B6000C860206B801C2063E08E401EE0861BE076
:101B70002068806800F0020002280AD1206B0088EB
:101B80002168C860206B801C2063E08E401EE086C8
:101B90000AE0FFF7B1F9C01BA84201D3681C00B9E5
:101BA00015B94FF0030A4CE0E08E0028E0D12EE09A
:101BB000606810B1B9F1010F09D1206B007821687C
:101BC0000873206B401C2063E08E401EE0861BE003
:101BD0002068806800F0020002280AD1206B00789B
:101BE00021680873206B401C2063E08E401EE08655
:101BF0000AE0FFF781F9C01BA84201D3681C00B9B5
:101C000015B94FF0030A1CE0E08E0028E0D13A46F7
:101C10002946204601F052F808B120206065A068EE
:101C200050B900BF002000902068C0680090206874
:101C30008068009000BF00BF606D08B14FF0010ADE
:101C400000BF012084F8510000BF002084F850003C
:101C500000BF504636E770B504462546681EB0F111
:101C6000807F01D301200FE0681E4FF0E021486122
:101C70000F214FF0FF3001F067FB00204FF0E02113
:101C8000886107200861002070BD70472DE9F0478A
:101C90000446206805682068C668206847694FF0D8
:101CA0000008C14605F00F08B8F1000F0AD105F091
:101CB000200038B106F0200020B1204601F084F960
:101CC000BDE8F087B8F1000F72D007F0010018B935
:101CD00006F4907000286BD005F0010030B106F4D6
:101CE000807018B1E06B40F00100E06305F0040083
:101CF00030B107F0010018B1E06B40F00200E06382
:101D000005F0020030B107F0010018B1E06B40F0BF
:101D10000400E06305F0080048B106F0200010B9A7
:101D200007F0010018B1E06B40F00800E063E06BE1
:101D300070B305F0200028B106F0200010B1204655
:101D400001F042F920684069C0F38019E06B00F0AF
:101D5000080010B9B9F1000F23D0204601F014F9A2
:101D60002068406900F04000402816D12068406992
:101D700020F0400021684861606B50B11748616BEA
:101D80004863606BFEF769FF10B1606B416B884779
:101D90000CE02046FFF779FF08E02046FFF775FFCB
:101DA00004E02046FFF771FF0020E06388E7FFE7CB
:101DB00005F0800030B106F0800018B1204601F037
:101DC0002FFA7DE705F0400030B106F0400018B171
:101DD000204601F0E9F873E700BF71E7752F0008AE
:101DE00010B504460CB9012010BDA06900B100E097
:101DF00000BF94F8390028B9002084F83800204644
:101E000000F028F8242084F839002068C06820F405
:101E100000502168C860204601F02AF92068006956
:101E200020F49040216808612068406920F02A0071
:101E3000216848612068C06840F400502168C8608B
:101E40000020E063202084F8390084F83A00002064
:101E5000CAE7000010B586B00446142101A8FEF7B9
:101E600017FA1C492068884232D100BF1A4800681E
:101E700040F48040184908600846006800F480403B
:101E8000009000BF00BF00BF081F006840F00100C5
:101E9000091F08600846006800F00100009000BFBC
:101EA00000BF4FF4C0600190022002900020039018
:101EB000032004900720059001A90848FEF71CFFA5
:101EC000002211462520FFF797F82520FFF784F818
:101ED00006B010BD0038014020380240000002402A
:101EE00070472DE9F84304460D4616461F464FF04D
:101EF000000994F8390020285DD105B116B90120F8
:101F0000BDE8F88300BF94F83800012801D1022011
:101F1000F6E7012084F8380000BF0020E0632120AC
:101F200084F83900FEF7E8FF8146A684E68400BF06
:101F3000002084F8380000BF2BE0E08C401EE084D5
:101F4000A068B0F5805F16D14B4600228021204664
:101F5000009701F099F908B10320D1E7A846B8F835
:101F60000000C0F3080021684860206908B9AD1C72
:101F70000FE06D1C0DE04B460022802120460097AB
:101F800001F082F908B10320BAE715F8010B2168C6
:101F90004860E08C0028D0D14B46002240212046EA
:101FA000009701F071F908B10320A9E7202084F817
:101FB00039000020A4E70220A2E7704700B587B0EF
:101FC000142102A8FEF764F900BF1B48006840F026
:101FD0002000194908600846006800F020000190C0
:101FE00000BF00BF00BF0846006840F00100086065
:101FF0000846006800F00100019000BF00BF012208
:1020000015210E48FEF772FF152002900120039063
:1020100004900220059002A90848FEF76DFE0820F2
:102020000290002003900120049002A90348FEF7CB
:1020300063FE07B000BD00001C38024000000240F3
:1020400010B51048104908604FF4827048604FF492
:1020500000410D4881600021C16002210161012120
:102060004161490281611821C1610021016241621F
:1020700081620A21C162FFF77FFC08B1FEF7ECFD27
:1020800010BD0000003001409811002010B50B4831
:102090000B4908604FF4E130486000210848816036
:1020A000C16001610C21416100218161C161FFF7C3
:1020B00097FE08B1FEF7D0FD10BD000000380140CA
:1020C000F011002000BFFEE77047000010B50022AD
:1020D00040211348FEF70AFF00BF1148006820F4B2
:1020E00040400F4908600846006840F4804008609E
:1020F00000BF002280210A48FEF7F8FE012002F00E
:10210000FFFA012240210648FEF7F0FE012002F00E
:10211000F7FA002240210248FEF7E8FE10BD000059
:102120000004024000B587B000BF1348006840F0CB
:102130000200114908600846006800F002000190A2
:1021400000BF00BF029840F0C00002900120039041
:1021500004900220059002A90848FEF7CDFD012257
:1021600040210648FEF7C2FE012280210348FEF707
:10217000BDFE07B000BD00001C3802400004024054
:1021800010B5002240211348FEF7B0FE00BF1148F1
:10219000006820F440400F4908600846006840F499
:1021A0008040086000BF012280210A48FEF79EFEA1
:1021B000012002F0A5FA012240210648FEF796FE12
:1021C000012002F09DFA002240210248FEF78EFE17
:1021D00010BD00000004024070B50646002500BF97
:1021E0001848006820F44040164908600846006816
:1021F000086000BF00241AE0002240211148FEF7C9
:1022000075FE012002F07CFA012240210D48FEF704
:102210006DFE6806050E80210A48FEF755FE08B1DE
:10222000681CC5B2012002F06BFA601CC4B2082C15
:10223000E2DB16B9FFF7A4FF01E0FFF747FF2846EE
:1022400070BD00000004024070B5044600BF1D4888
:10225000006820F440401B4908600846006840F4CC
:102260008040086000BF002240211648FEF73EFE75
:10227000002523E0E00928B1012280211148FEF762
:1022800035FE04E0002280210E48FEF72FFE600696
:10229000040E012002F034FA012240210948FEF721
:1022A00025FE012002F02CFA002240210548FEF70D
:1022B0001DFE012002F024FA681CC5B2082DD9DBEE
:1022C00070BD00000004024010B500BF1348006854
:1022D00020F44040114908600846006840F48040FE
:1022E000086000BF012240210C48FEF7FFFD0122DB
:1022F00080210A48FEF7FAFD012002F001FA0022CF
:1023000080210648FEF7F2FD012002F0F9F90022D3
:1023100040210248FEF7EAFD10BD00000004024023
:1023200010B500BF1348006820F440401149086010
:102330000846006840F48040086000BF0022402149
:102340000C48FEF7D3FD002280210A48FEF7CEFD9F
:10235000012002F0D5F9012240210648FEF7C6FD12
:10236000012280210348FEF7C1FD012002F0C8F9D7
:1023700010BD00000004024010B5002400BF184842
:10238000006820F44040164908600846006808606C
:1023900000BF012280211248FEF7A8FD012002F0B3
:1023A000AFF9012240210E48FEF7A0FD012002F006
:1023B000A7F907E0601CC4B2FA2C03DDFFF7B0FFF9
:1023C000012010BD80210648FEF77EFD0028F1D1D6
:1023D000002240210248FEF789FD0020F1E70000BD
:1023E0000004024070B504460025FFF76DFFA220EF
:1023F000FFF72AFFFFF7C0FFE0B2FFF725FFFFF767
:10240000BBFFFFF761FFA320FFF71EFFFFF7B4FF3D
:102410000020FFF7E1FE0546FFF782FF284670BD6A
:1024200070B506460820FFF7DDFF254948700720F4
:10243000FFF7D8FF00F01F00214988700520FFF743
:10244000D1FF00F03F001E49C8700420FFF7CAFF0B
:1024500000F03F001A4908710320FFF7C3FF00F0A6
:102460007F00174948710220FFF7BCFF00F07F0092
:10247000134988710620FFF7B5FF00F00F001049DF
:10248000C871002419E00E49085DC11700EB1171F5
:102490000D110B49085DC11700EB11710911A0EB7B
:1024A0000111084A11551046005D05EB850100EB4E
:1024B000410011460855601CC4B2082CE3DB70BD16
:1024C000340100202000002010B51121012000F06F
:1024D00009F882210E2000F005F83C210F2000F0C1
:1024E00001F810BD70B505460C46FFF7EDFEA220C1
:1024F000FFF7AAFEFFF740FF2846FFF7A5FEFFF70C
:102500003BFF2046FFF7A0FEFFF736FFFFF708FF6F
:10251000012002F0F5F870BDF0B504460F46002525
:102520000CE0002606E03B4632462946204600F0F5
:1025300009F8761CA068B042F5DC6D1C6068A84202
:10254000EFDCF0BDF0B51D46002907DB43688B4288
:1025500004DD002A02DB8368934200DCF0BDFDB19C
:10256000466802FB0614E61704EB5676F610076879
:10257000BE5D0B46CF1701EB5777FF10A1EBC70CE1
:10258000802747FA0CF73E43476802FB0714E7171A
:1025900004EB5777FF10D0F800C00CF807601EE07E
:1025A000466802FB0614E61704EB5676F610076839
:1025B000BE5D0B46CF1701EB5777FF10A1EBC70CA1
:1025C000802747FA0CF7BE43476802FB0714E7175A
:1025D00004EB5777FF10D0F800C00CF8076000BF7D
:1025E000BCE72DE9FF4F884691469A460D9DA98884
:1025F000CA1701EB5272D2100846CB1701EB537386
:10260000DB10A1EBC3030BB1012300E00023134453
:10261000AAF12002B5F806C002FB0CF203FB02FB94
:10262000286800EB0B0700262BE000241CE0E117D4
:1026300004EB5171C910A4EBC102802111413A7819
:10264000114039B109EB060208EB04010E9B00981A
:1026500000F032F8E11704EB5171C910A4EBC1018D
:10266000072900D17F1C641CA888A042DFDCA88851
:10267000C11700EB5171C910A0EBC10101B17F1C62
:10268000761CE888B042D0DCBDE8FF8F2DE9F0432E
:1026900007460C4690461E46DDF81C90254606E08F
:1026A0004B4642462946384600F006F86D1CA019F4
:1026B000A842F5DCBDE8F0832DE9F04104460D4663
:1026C00016469846E06890B9002D07DB6068A8427E
:1026D00004DD002E02DBA068B04201DCBDE8F08121
:1026E0004346324629462046FFF72CFF49E0E06882
:1026F000012815D1002D07DBA068A84204DD002EBB
:1027000002DB6068B04200DCE8E72F466068851BAA
:102710003E464346324629462046FFF713FF30E047
:10272000E068022815D1002D07DB6068A84204DDAF
:10273000002E02DBA068B04200DCCFE76068451BDA
:10274000A068861B4346324629462046FFF7FAFE1C
:1027500017E0E068032814D1002D07DBA068A84229
:1027600004DD002E02DB6068B04200DCB6E72F46D5
:102770003546A068C61B4346324629462046FFF729
:10278000E1FE00BFAAE72DE9FF4F81B00D461646D6
:102790001F460F9CAF4201DD284600E038468046C8
:1027A000AF4201DD384600E0284682460E98B0422E
:1027B00001DD304600E00E9881460E98B04201DD02
:1027C0000E9800E030468346AAEB0800431C4A46B8
:1027D000414600940198FFF759FFAAEB0800431CFB
:1027E0005A46414600940198FFF750FFABEB0900B1
:1027F000431C4A4641460094019800F02CF8ABEB8C
:102800000900431C4A4651460094019800F023F801
:1028100005B0BDE8F08F2DE9FF4F82B081460D462F
:102820001E46DDE90F7A34464FF0000BA8460CE057
:10283000CDE9007A237841464846049AFFF7D1FE55
:10284000B8888044641C0BF1010B20780028EFD17C
:1028500006B0BDE8F08F2DE9F043074688461446E0
:102860001E46DDF81C90254606E04B462A464146AA
:102870003846FFF721FF6D1CA019A842F5DCBDE822
:10288000F083014688687047014648687047F0B594
:102890000C461D460021C16004601346D61702EBAA
:1028A0005676F610A2EBC60656B1D61702EB567650
:1028B000F610A2EBC607114602F10806F61B00E06F
:1028C000164646608560F0BDC160704718B5034686
:1028D00000222548006800F0F00050BB22481C3060
:1028E000006800F0805020B12048006800F4C0511A
:1028F00018E000BF1C481C30006840F080501A4CA3
:102900001C3420602046006800F08050009000BF1A
:1029100000BF1648006800F4C0512046006820F04F
:1029200080502060B1F5C05F03D1B3F5404F00D1B6
:10293000012200BF012A05D10D48006840F00400C3
:102940000B4C20600A48006820F001001043084C3E
:10295000206000BF2046006800F00100904201D0D6
:10296000012018BD0020FCE708380240007000403C
:10297000003C024010B500224FF400611348FEF7FE
:10298000B5FA00BF1148006820F040700F49086098
:102990000846006840F08070086000BF002289147B
:1029A0000A48FEF7A3FA012001F0AAFE0122D10293
:1029B0000648FEF79BFA012001F0A2FE00224FF428
:1029C00000610248FEF792FA10BD000000000240CC
:1029D00000B587B000BF1948006840F001001749F2
:1029E00008600846006800F00100019000BF00BFC9
:1029F000029840F48050029001200390049002203D
:102A0000059002A90E48FEF777F9029840F400609D
:102A100002900120039004900220059002A908482A
:102A2000FEF76AF90122D1020548FEF75FFA01229A
:102A300011030348FEF75AFA07B000BD1C380240E4
:102A40000000024010B500224FF400611348FEF769
:102A50004DFA00BF1148006820F040700F4908602F
:102A60000846006840F08070086000BF01228914A9
:102A70000A48FEF73BFA012001F042FE0122D10292
:102A80000648FEF733FA012001F03AFE00224FF427
:102A900000610248FEF72AFA10BD00000000024063
:102AA00070B50646002500BF1948006820F0407048
:102AB0001749086008460068086000BF00241CE051
:102AC00000224FF400611248FEF710FA012001F0D5
:102AD00017FE0122D1020E48FEF708FA6806050E1D
:102AE0004FF480510A48FEF7EFF908B1681CC5B2EF
:102AF000012001F005FE601CC4B2082CE0DB16B911
:102B0000FFF7A0FF01E0FFF735FF284670BD00008A
:102B10000000024070B5044600BF1E48006820F067
:102B200040701C4908600846006840F080700860EA
:102B300000BF0022C9141748FEF7D8F9002525E088
:102B4000E00928B1012211031248FEF7CFF905E090
:102B500000224FF480510F48FEF7C8F96006040EBA
:102B6000012001F0CDFD0122D1020A48FEF7BEF995
:102B7000012001F0C5FD00224FF400610548FEF779
:102B8000B5F9012001F0BCFD681CC5B2082DD7DBEA
:102B900070BD00000000024010B500BF144800687E
:102BA00020F04070124908600846006840F08070CC
:102BB000086000BF0122C9140D48FEF797F90122F1
:102BC00011030B48FEF792F9012001F099FD002254
:102BD0004FF480510648FEF789F9012001F090FD7D
:102BE00000224FF400610248FEF780F910BD00009A
:102BF0000000024010B500BF1348006820F040708C
:102C0000114908600846006840F08070086000BF05
:102C10000022C9140C48FEF769F900224FF48051D4
:102C20000948FEF763F9012001F06AFD0122D10293
:102C30000548FEF75BF9012211030348FEF756F938
:102C4000012001F05DFD10BD0000024010B5002420
:102C500000BF1948006820F0407017490860084616
:102C60000068086000BF012289141348FEF73EF98E
:102C7000012001F045FD0122D1020F48FEF736F98F
:102C8000012001F03DFD07E0601CC4B2FA2C03DD19
:102C9000FFF7B0FF012010BD4FF480510648FEF74A
:102CA00013F90028F0D100224FF400610248FEF72A
:102CB0001DF90020EFE70000000002407CB504464B
:102CC0000D461646164800681821B0FBF1F015496C
:102CD000B0FBF1F04FF47A71484301906068B0F5B1
:102CE000827F0DD12B46002280212046009600F0E5
:102CF0001BF898B1606D40F02000606503207CBD3A
:102D000000BF019800B908E00198401E01902068BA
:102D10008068C0F3C0100028F3D100BF0020EEE7A8
:102D20009C00002040420F002DE9F84F04460D465C
:102D300090461E46DDF82890FEF7DEF8A0EB09006D
:102D4000371AFEF7D9F882462C480068C0F3CB301A
:102D50007843009045E0701C002842D0FEF7CCF884
:102D6000A0EB0A00B84200D2A7BB2068406820F060
:102D7000E000216848606068B0F5827F0DD1A068EE
:102D8000B0F5004F03D0A068B0F5806F05D1206882
:102D9000006820F0400021680860A06AB0F5005F7C
:102DA0000DD100BF2068006820F400502168086041
:102DB0002068006840F400502168086000BF0120CE
:102DC00084F8510000BF002084F8500000BF0320A9
:102DD000BDE8F88FFFE7009800B900270098401E73
:102DE0000090206880682840A84201D1012000E0BE
:102DF00000204045AFD10020EAE700009C00002001
:102E0000704710B501F092F901F066FD01F09EF9EE
:102E100010BD000000B593B0342106A8FDF738FAC4
:102E2000142101A8FDF734FA1648006820F4C050B8
:102E300040F40060134908600220069001200990C8
:102E400010200A9002200F9000211091410411914E
:102E50004105129106A8FEF7A7FA08B1FDF7FCFE9E
:102E60000F20019003200290002003900490059011
:102E7000012101A8FEF712F908B1FDF7EDFE13B02C
:102E800000BD00000070004070B50022002000214D
:102E9000002400232D4D2D6805F00C0232B1042AC8
:102EA00010D0082A12D00C2A36D113E0274D2D1F3E
:102EB0002D68C5F342335D1C0126AE40F503244E58
:102EC000356035E0234D224E356031E0224D204EF5
:102ED00035602DE01D4D2D6805F470101B4D2D68DB
:102EE00005F440011D4D05EB90452878012505EBC3
:102EF0009151164D2D6805F4803434B9154D454374
:102F0000B5FBF1F5124E356005E0134D4543B5FBB9
:102F1000F1F50F4E35600BE00C4D2D1F2D68C5F3FC
:102F200042335D1C0126AE40F503094E356000BFFB
:102F300000BF064D2D68C5F30315094E725D044DA3
:102F40002D68D540024E356070BD00000838024043
:102F50009C0000200024F40000127A00DA9A000895
:102F6000E39A00084FF000600149086070470000D4
:102F700008ED00E070B505466C6A0020E085E0844D
:102F80002046FEF782FE70BD0168C96821F4907189
:102F90000268D1600168496921F00101026851614C
:102FA000202180F83A10704710B504462068C068A8
:102FB00020F040002168C860202084F839002046B5
:102FC000FEF7FBFF002010BD70B5044694F83A00F0
:102FD00022284AD1A068B0F5805F13D1A56A206984
:102FE00040B920684068C0F308002880A06A801CAF
:102FF000A06219E020684068C0B22880A06A401C26
:10300000A06211E0206938B920684068C1B2A26AA4
:10301000501CA062117007E02068406800F07F013A
:10302000A26A501CA0621170E08D401E80B2E08543
:10303000C8B92068C06820F020002168C8602068F6
:10304000C06820F480702168C8602068406920F062
:10305000010021684861202084F83A002046FEF7EC
:103060003FFF002070BD0020FCE70220FAE70000CF
:1030700070B504462168096921F44051E2681143A2
:10308000226811612269A168114362691143E269F2
:1030900041EA02052168C96849F20C62914329435B
:1030A0002268D1602168496921F44071A269114305
:1030B00022685161594A2168914202D1FEF714F900
:1030C00001E0FEF701F9E169B1F5004F53D100EBE2
:1030D000C00101EB001162685200B1FBF2F1642201
:1030E000B1FBF2F10A0100EBC00101EB00116368D2
:1030F0005B00B1FBF3F100EBC00303EB0013666868
:103100007600B3FBF6F36426B3FBF6F303EBC306DA
:1031100006EB0313A1EB8301322303EBC10164230C
:10312000B1FBF3F101F0F80102EB410200EBC00149
:1031300001EB001163685B00B1FBF3F100EBC0032E
:1031400003EB001366687600B3FBF6F36426B3FB6B
:10315000F6F303EBC30606EB0313A1EB8301322363
:1031600003EBC1016423B1FBF3F101F0070111444A
:103170002268916051E000EBC00101EB0011626830
:103180009200B1FBF2F100EBC00202EB00126368A7
:103190009B00B2FBF3F26423B2FBF3F202EBC20337
:1031A00003EB0212A1EB8201322202EB0111642235
:1031B000B1FBF2F101F0F00100EBC00202EB0012F2
:1031C00063689B00B2FBF3F26423B2FBF3F201EB02
:1031D000021200EBC00101EB001163689B00B1FB20
:1031E000F3F100EBC00303EB00136668B600B3FB1A
:1031F000F6F36426B3FBF6F303EBC30606EB031307
:10320000A1EB8301322303EB01116423B1FBF3F142
:1032100001F00F0111442268916070BD0038014037
:10322000014691F8390021282CD18868B0F5805FDB
:103230000FD10A6A1088C0F308000B68586008694B
:1032400018B9086A801C086209E0086A401C086214
:1032500005E00B6A581C086218780B685860C88C27
:10326000401E80B2C88458B90868C06820F0800049
:103270000B68D8600868C06840F040000B68D860F0
:10328000002070470220FCE72DE9F04104460D467E
:1032900017469846069E21E0701CF8B12EB1FDF746
:1032A0002BFEA0EB0800B04218D92068C06820F4BB
:1032B000D0702168C8602068406920F00100216852
:1032C0004861202084F8390084F83A0000BF0020CB
:1032D00084F8380000BF0320BDE8F0812068006852
:1032E0002840A84201D1012000E00020B842D3D0FC
:1032F0000020F1E710B50248FEF7C8FC10BD000041
:10330000F011002000BFFEE70146481EB0F1807FAB
:1033100001D301207047481E4FF0E0225061FF208A
:10332000044A107000204FF0E022906107201061E5
:103330000020EFE723ED00E002480068C0F3022020
:10334000704700000CED00E010B5002804DB0A0710
:10335000130E054A135406E00A07140E034A00F040
:103360000F031B1FD45410BD00E400E018ED00E073
:10337000014609B900207047C8B220B1C8B20E4A50
:10338000105C401CF7E701F47F4028B10A48C1F304
:103390000722805C0930EEE701F47F0028B106487F
:1033A000C1F30742805C1130E5E7034800EB116090
:1033B00000781930DFE70000FB9A000802E008C837
:1033C000121F08C1002AFAD170477047002001E09F
:1033D00001C1121F002AFBD1704700000349086891
:1033E000884201D0012070470020FCE7080100203E
:1033F0002DE9FC5F04468B4615461E46DDE90C9A16
:10340000DDE90E7804F114004060006000BF1C3458
:103410006560A660C4F80C90C4F810A02321D4E91C
:10342000030200F0E0FED4E9033C63441A1F0F4B93
:10343000D4E9010100F054FE2060A77667760020F1
:10344000E061C4F82080C4F8248060612076606563
:10345000A0651C3C00902346054A2146019004F1DA
:10346000440001F0BBFA0020BDE8FC9FB545000810
:10347000114800082DE9F04704460E4617469846C5
:10348000DDF8209084F80990607A20F001006072E5
:10349000E66127620020A062C4F82480002506E0CF
:1034A00004F1140101EBC50000F07BFE6D1C012D41
:1034B000F6DBBDE8F08710B50246002001460EE0BD
:1034C00002F1140303EBC100D0E900436360D0E9CB
:1034D000003423604060006000BF481C01460129A1
:1034E000EEDB10BD00B58FB001F0DAFCFF21FE4825
:1034F000FDF777F9FA237822FC49FD48FFF7C7F971
:103500000121FB48FFF7E0F90121F948FFF704F832
:10351000F848FEF785FFF849F84801F0DDFC002087
:10352000F749F8A35F22CDE900100146F048FFF704
:1035300072F90020F249F4A35F22CDE900100921BD
:10354000EB48FFF768F9F14840780A2190FBF1F069
:10355000EF4951F820000C900020E949CDE9001016
:103560005F221221E2480C9BFFF755F9E7484078AB
:103570000A2190FBF1F201FB1200E54951F820000D
:103580000C900020DE49CDE900105F221B21D848B5
:103590000C9BFFF740F90020DE49DFA35A22CDE95A
:1035A00000102521D248FFF736F9D84880780A2143
:1035B00090FBF1F0D64951F820000C900020D04942
:1035C000CDE900105F223421C9480C9BFFF723F995
:1035D000CE4880780A2190FBF1F201FB1200CC4921
:1035E00051F820000C900020C549CDE900105F2261
:1035F0003D21BF480C9BFFF70EF90020C549C7A32A
:103600005A22CDE900104621B948FFF704F9BF4816
:10361000C0780A2190FBF1F0BD4951F820000C90D0
:103620000020B749CDE900105F225621B0480C9B1D
:10363000FFF7F1F8B548C0780A2190FBF1F201FBE1
:103640001200B34951F820000C900020AC49CDE99C
:1036500000105F221146A6480C9BFFF7DCF8002003
:10366000AC49AFA35A22CDE900106821A048FFF76A
:10367000D2F80020A749ABA35A22CDE9001080213F
:103680009B48FFF7C8F80020A249A4A35A22CDE91D
:10369000001090219648FFF7BEF800209D49A2A394
:1036A0005A22CDE90010A0219148FFF7B4F800207C
:1036B00098499CA35A22CDE90010B0218C48FFF70D
:1036C000AAF80020934999A35A22CDE90010C821F5
:1036D0008748FFF7A0F800208E4995A35A22CDE92C
:1036E0000010D8218248FFF796F88848C0790A214F
:1036F00090FBF1F201FB120030308E49087000207F
:1037000084498C4B5A22CDE90010E8217848FFF714
:1037100082F800207F4988A30222CDE90010BB2156
:103720007348FFF778F800207A4977A30222CDE9A1
:103730000010CF216E48FFF76EF8002213466F4944
:1037400003C9FCF763FF68D800227C4B6B4903C9AF
:10375000FCF750FECDE90A01FCF73EFF80B20E9067
:103760000022764B644903C9FCF744FECDE90A0107
:10377000FCF732FF80B20D9064210E9890FBF1F0BF
:10378000634951F820000C9000206D49CDE90010EC
:103790001922BB2156480C9BFFF73DF864210E9877
:1037A00090FBF1F201FB12000A2190FBF1F0584965
:1037B00051F820000C9000206149CDE90010192239
:1037C000C8214B480C9BFFF726F800205C495AA300
:1037D0001922CDE90010D2214548FFF71CF80A2133
:1037E0000E9890FBF1F201FB1200494951F82000BC
:1037F00000210C905248CDE900011922DC213C48FF
:103800000C9BFFF708F800204D494EA31922CDE983
:103810000010EA213648FEF7FEFF00203D494AA38A
:103820002922CDE90010BB213148FEF7F4FF00202A
:10383000384935A32922CDE90010CF212C48FEF7C5
:10384000EAFF64210D9890FBF1F0314951F8200016
:1038500000210C903A48CDE900013E22BB212448CA
:103860000C9BFEF7D8FF64210D9890FBF1F201FB51
:1038700012000A2190FBF1F0254951F820000C902C
:1038800000202F49CDE900103E22C82118480C9B8A
:10389000FEF7C1FF00202A4927A33E22CDE90010F0
:1038A000D2211348FEF7B7FF0A210D9890FBF1F2E1
:1038B00001FB1200164951F820000C90002020490D
:1038C000CDE900103E22DC2109480C9BFEF7A3FF46
:1038D00000201B491DA33E22CDE90010EA21044827
:1038E000FEF799FF094833E06C1100206C010020BD
:1038F00088110020280000206800002060000020BF
:103900007000002032000000300000002000002085
:103910003400002088000020210000002200000068
:103920002300000020000000280000002A00000002
:103930002B000000300000202E000000000024407A
:1039400078000020430000002F0000002500000048
:1039500000790A2190FBF1F0614951F820000C90A8
:1039600000206049CDE90010024601465E480C9BEC
:10397000FEF751FF5D4800790A2190FBF1F201FB4F
:103980001200574951F8200000210C905548CDE90C
:1039900000010A46282154480C9BFEF73CFF0020FA
:1039A000504953A30246CDE9001046214E48FEF788
:1039B00032FF4E4840790A2190FBF1F0484951F816
:1039C000200000210C904748CDE900010A466421FF
:1039D00045480C9BFEF71FFF444840790A2190FBA5
:1039E000F1F201FB12003E4951F820000C9000203A
:1039F0003C49CDE9001002468C213B480C9BFEF768
:103A00000AFF00205421FA235622CDE90010014676
:103A10003548FEF7B8FE00205321FA235522CDE9A0
:103A2000001001463048FEF7AEFEFA207821002350
:103A30001A46CDE900102F492F48FCF7B6FF2E4853
:103A4000FCF711FF294880790A2190FBF1F201FB74
:103A500012000C90254881790A2091FBF0F00B9020
:103A6000224880780A2190FBF1F201FB12000A90B3
:103A70001E48807890FBF1F009901C48407890FB3C
:103A8000F1F201FB12000890184841780A2091FBDE
:103A9000F0F00790154800780A2190FBF1F201FB45
:103AA00012000690114801780A2091FBF0F0059071
:103AB000DDE90923DDE90B01CDE90123CDE90301AE
:103AC000089800900DA005A90EC900F04FFB11A0A9
:103AD000DDE90D2100F04AFB0C980FB000BD00009D
:103AE00034000020800000208811002020000020E9
:103AF0003A0000006C0100206C1100202564256450
:103B00003A256425642C256425643A256425640AD5
:103B1000000000002564432C256452480A00000080
:103B200000B587B0142102A8FCF7B2FB00BF14480F
:103B3000006840F00100124908600846006800F083
:103B40000100019000BF00BF002289150D48FDF75C
:103B5000CDF94FF4807002900B480390012004903F
:103B60000220059002A90748FDF7C6F80222114677
:103B70001720FDF741FA1720FDF72EFA07B000BD18
:103B80001C3802400000024000002110FDF7BAF985
:103B9000FFF740F9FEF712FAFEF752FAFEF7C2FA03
:103BA000FEF792FCFEF714FFFEF770FAFFF7B8FF7E
:103BB00008A000F0DBFAFFF795FCFEF767FA01F0CA
:103BC0007DF905E001F03EFA4FF47A7000F098FDBF
:103BD000F8E70000496E69742046696E7368210A2F
:103BE0000000000010B5044600F0FEF8FFF7CEFF1D
:103BF00010BD00002DE9F04F86B00D469C46DDE972
:103C0000106401960F9B04F04008B8F1000F02D039
:103C1000DFF8708101E0DFF87081CDF8008004F0FA
:103C20001008B8F1000F01D024F0010404F00108DD
:103C3000B8F1000F02D04FF0300801E04FF020083B
:103C4000C246002704F00208B8F1000F11D0002A84
:103C500002DA2D2752420CE004F00408B8F1000FFC
:103C600001D02B2705E004F00808B8F1000F00D0C0
:103C70002027002142B94FF0300B8846491C0DF136
:103C8000080909F808B01DE01AE0E146B9F10A0F89
:103C900008D14FF00A0BB2FBFBFE0BFB1E28B2FB58
:103CA000FBF202E002F00F08120900BFDDF80090FD
:103CB00019F808B08846491C0DF1080909F808B040
:103CC000002AE2D1B14200DD0E469B1B04F0110830
:103CD000B8F1000F10D117B1002B00DD5B1E06E01C
:103CE000A84203D24FF0200880F80080401CB3F1B6
:103CF0000008A3F10103F3DC27B1A84200D207704A
:103D00005B1E401C04F01008B8F1000F0AD104E05B
:103D1000A84201D280F800A0401CB3F10008A3F132
:103D20000103F5DC06E0A84203D24FF0300880F82A
:103D30000080401CB046761E8845F4DC08E0A842AE
:103D400005D20DF1080818F8018080F80080401CA9
:103D5000B1F10008A1F1010104DDDDF80480B8F142
:103D6000000FECD106E0A84203D24FF0200880F803
:103D70000080401CB3F10008A3F10103F3DC06B09E
:103D8000BDE8F08F0C9C0008FB9B00087FB50A4C37
:103D900014200221CA01094BCDE90032CDE90210FD
:103DA0000023074A07A1204600F090FC0546204664
:103DB00000F0F6FC7FBD0000301300203012002020
:103DC000E53B00086D61696E0000000010B5044C11
:103DD00002E020688047241D02488442F9D310BDC8
:103DE000509C0008549C000810B5044C02E0206868
:103DF0008047241D02488442F9D310BD549C00081A
:103E0000589C000810B5FCF791F904460448008856
:103E1000401C00B2024908802046FCF78BF910BD17
:103E2000F800002010B5FCF781F904460C48008822
:103E3000401E00B20A4908800846B0F90000002878
:103E40000ADC002008802046FCF774F90548006869
:103E500028B100F051FA02E02046FCF76BF910BDE2
:103E6000F8000020FC00002010B5FFF70DF807480F
:103E700000684FF47A71B0FBF1F42046FFF744FA82
:103E8000FFF7A4FFFEF702F910BD00009C00002020
:103E9000F8B50546002400260D20009000BF002044
:103EA0000E4981F8380000BF284600F011FB064695
:103EB00000BF0FE0285D0A2805D101231A46694694
:103EC0000648FEF70EF8291901231A460348FEF7A3
:103ED00008F8641CB442EDD3F8BD0000F0110020D6
:103EE00070B505462C1D2E48006838B128462C496F
:103EF00009688847064606B970BD00BF29A0E16B76
:103F000000F034F92BA0216A00F030F92DA0616A8D
:103F100000F02CF92FA0A16A00F028F931A0E16A85
:103F200000F024F933A0216800F020F935A0616881
:103F300000F01CF937A0A16800F018F939A0E16879
:103F400000F014F93BA0216900F010F93DA061696F
:103F500000F00CF93FA0A16900F008F941A0E16967
:103F600000F004F943A0216B00F000F945A0616B5B
:103F700000F0FCF847A0A16B00F0F8F8287800F0FA
:103F8000040038B100F0E4FB0646314645A000F0DD
:103F9000EDF802E04BA000F0E9F800BFFEE70000FA
:103FA000280100207073723A203078253038780A62
:103FB000000000007230303A203078253038780A1E
:103FC000000000007230313A203078253038780A0D
:103FD000000000007230323A203078253038780AFC
:103FE000000000007230333A203078253038780AEB
:103FF000000000007230343A203078253038780ADA
:10400000000000007230353A203078253038780AC8
:10401000000000007230363A203078253038780AB7
:10402000000000007230373A203078253038780AA6
:10403000000000007230383A203078253038780A95
:10404000000000007230393A203078253038780A84
:10405000000000007231303A203078253038780A7C
:10406000000000007231313A203078253038780A6B
:10407000000000007231323A203078253038780A5A
:1040800000000000206C723A203078253038780A21
:10409000000000002070633A203078253038780A1C
:1040A0000000000068617264206661756C74206FA6
:1040B0006E207468726561643A2025730D0A0D0ADA
:1040C0000000000068617264206661756C74206F86
:1040D0006E2068616E646C65720D0A0D0A00000046
:1040E000F0B504460D461646301D20F00700403856
:1040F0000146002203E00C4F41F82270521C102AA6
:10410000F9D30D624FF0000CC1F824C0C1F828C0EB
:10411000C1F82CC0C1F830C04B638C634FF0807C79
:10412000C1F83CC0F0BD0000EFBEADDE10B5FBF73E
:10413000FDFF044604480078401C034908702046EF
:10414000FBF7F8FF10BD0000A400002010B5FBF73E
:10415000EDFF044604480078401E034908702046DD
:10416000FBF7E8FF10BD0000A40000200FB438B535
:1041700005A800907F210848009B049A00F0DAFC13
:1041800004467F2C00D97F240348FFF781FE0020DE
:10419000009038BC5DF814FBA01400204060006063
:1041A00070474060006070470268516002680A60B2
:1041B0000160486070470268516002680A600160EF
:1041C0004860704701460868884201D10120704765
:1041D0000020FCE7D0E900215160D0E90012116015
:1041E000406000607047F0B50C460546E6B2042A10
:1041F00015D300F0030797B9014646EA062343EAC0
:10420000034304E008C108C108C108C1103A102ADC
:10421000F8D201E008C1121F042AFBD20D4601E0CA
:1042200005F8016B171EA2F10102F9D1F0BD70B5BE
:10423000044600202072FBF779FF054604F10C00CC
:10424000D0E900215160D0E90012116040600060A7
:1042500000BF2846FBF76EFF70BD0000024600213C
:104260000AE0074800EB01100078904203D10448AF
:1042700000EB01107047491C0529F2DB0020F9E72B
:10428000A80000202DE9F04704460D469046002680
:104290002846FFF7E3FF0746FFF7B4FD7E6802E01C
:1042A000A6F10C003668381D8642F9D1FFF7BAFD39
:1042B00045F08000207208224146204600F011F9A6
:1042C000FBF734FF8146381D04F10C010268516090
:1042D00002680A600160486000BF4846FBF72AFF99
:1042E000BDE8F0870146087A00F0800008B101209F
:1042F00070470020FCE700002DE9F041FBF716FFB6
:1043000007461848008838BB17480068FFF730F8A0
:10431000461E164850F83600A0F1140414480068F0
:10432000844218D013490E70114805680460124881
:10433000007850B904F11C0105F11C00FBF7FDFEEB
:104340003846FBF7F7FEBDE8F08104F11C0105F1EA
:104350001C00FBF7F2FE00BF3846FBF7EBFE00BF88
:10436000F1E70000F80000200401002020150020E3
:10437000FC00002000010020A400002070B50446CD
:10438000FBF7D4FE054614F8340F20F00F0040F080
:10439000010020706278343C0A4B03EBC20004F148
:1043A00014014268116042684A604160086000BFC1
:1043B0000549A06B09680843034908602846FBF7D4
:1043C000B9FE70BD201500200401002070B5044620
:1043D000FBF7ACFE054604F11400D0E90021516062
:1043E000D0E9001211604060006000BF94F8351001
:1043F000094A02EBC1000168814201D1012100E0BC
:10440000002129B10548A16B006888430349086071
:104410002846FBF78FFE70BD201500200401002008
:1044200008B509A0FFF7A2FE0AA0FFF79FFE12A0A1
:10443000032301221946009012A0FFF797FE19A04E
:10444000FFF794FE08BD00000A205C207C202F0AA4
:10445000000000002D205254202D20202020205428
:104460006872656164204F7065726174696E67205F
:1044700053797374656D0A004E6F762031372032A0
:1044800030323000202F207C205C2020202020256E
:10449000642E25642E2564206275696C6420257362
:1044A0000A0000002032303036202D2032303139E1
:1044B00020436F7079726967687420627920727422
:1044C0002D746872656164207465616D0A00000076
:1044D00001460A4600E0521C10780028FBD1501A11
:1044E000704770B50346A2B118460C4600BF14F8D9
:1044F000016B00F8016B3EB902E0002500F8015B9A
:10450000551E2A1EF9D102E0551E2A1EEFD100BF0A
:1045100000BF184670BD000010B500200B49088090
:10452000002405E00A4901EBC400FFF737FE641CD4
:10453000082CF7DB072007490870002006490860AF
:10454000064908600648FFF729FE10BDF800002064
:104550002015002000010020FC00002004010020A4
:104560000801002070B508480068FEF701FF451EED
:10457000064850F83500A0F114040548046004F121
:104580001C00FBF708FE70BD040100202015002070
:10459000FC00002010B5002405E0044901EBC40034
:1045A000FFF7FFFD641C002CF7D010BD10010020A8
:1045B0007047000070B512480468FBF7B7FD054668
:1045C0002046FFF703FF042084F8340004F1440080
:1045D00000F0F4F92046FFF785FE012805D1206F91
:1045E00018B92046FFF723FE04E004F11401054842
:1045F000FFF7DAFD2846FBF79DFDFFF77DFE70BD56
:10460000FC0000200801002001E000F001F8FCE7B8
:1046100070B534E0FBF78AFD0546FEF7DFFE30B3E8
:104620001A480068A0F1140404F11400D0E9002134
:104630005160D0E9001211604060006000BFFFF7D8
:10464000E1FB206F10B12046216F88472046FFF71D
:1046500049FE012808D12046FFF7E9FDFFF7E2FBFC
:104660002846FBF767FD70BDFFF7DCFB03E028463B
:10467000FBF760FDF7E72846FBF75CFD00BFFEF7A0
:10468000ADFE0028C6D100BFEDE700000801002004
:104690001FB5202007218022074BCDE90032CDE94C
:1046A00002100023054A06A1074800F00FF806484B
:1046B00000F076F81FBD0000201400200946000815
:1046C0007469646C65000000A81300202DE9FF5F89
:1046D00005460C4616461F46DDE910ABDDE90E899E
:1046E000224601212846FFF7CDFD3B4632462146B2
:1046F00028468DE8000FFEF77BFE04B0BDE8F09F72
:1047000070B50446204600F0C5F80546284600F07E
:1047100025F870BD70B5044694F8340000F00F0021
:10472000022802D04FF0FF3070BDFBF7FFFC0546BA
:1047300004F11400FFF74EFD04F1440000F0E2F92B
:104740002846FBF7F7FC2046FFF718FE0020EBE7B2
:104750000148006870470000FC00002031B5FBF7FD
:10476000E5FC05460D480468204600F02FF86A462F
:10477000002104F1440000F005F904F1440000F0C8
:1047800045F92846FBF7D6FCFFF7B6FD206B801CE9
:1047900008B900202063002038BD0000FC00002084
:1047A00010B504463434A0786070617801208840E8
:1047B0006060022004F834092046FFF7ABFFFFF7E2
:1047C000C7FF08B1FFF798FD002010BD70B5044683
:1047D00094F8340000F00F00012802D04FF0FF30B1
:1047E00070BDFBF7A3FC054694F8340020F00F00E1
:1047F00040F0020084F834002046FFF7E7FD04F1A2
:10480000440000F07FF92846FBF794FC0020E7E71E
:1048100070B5044625466FF00100286305F11400C9
:10482000FFF7D8FC2846FFF7A9FDFFF765FD70BD2F
:1048300070B5FBF77BFC05461448046894F8340017
:1048400000F00F0001281CD1D4E90510814218D0D6
:1048500004F11400FFF7BEFC94F835200C4B03EB79
:10486000C20004F114014268116042684A6041606C
:10487000086000BF2846FBF75DFCFFF73DFD002008
:1048800070BD2846FBF756FC0020F9E7FC0000202D
:10489000201500200146002902DA4FF0FF3014E015
:1048A0004FF47A7291FBF2F24FF47A7302FB03F049
:1048B0001A4691FBF2F302FB13124FF47A735A4338
:1048C00002F2E73292FBF3F21044704701480068AD
:1048D00070470000A000002010B50A480068401C86
:1048E00008490860FFF734FF0446206C401E20642E
:1048F000206C18B9E06B2064FFF79AFF00F004F811
:1049000010BD0000A000002070B5FFF7DFFF0546D6
:10491000FBF70CFC064628E019480068A0F11404D7
:10492000A06A281A6FF0004188421DD22046FEF787
:10493000C2FDD4E907108847FFF7C8FF0546607A33
:1049400000F0020058B1607A00F0010038B1607ADE
:1049500020F001006072204600F058F805E0607A0F
:1049600020F00100607200E004E00548FFF72AFC37
:104970000028D1D000BF3046FBF7DCFB70BD000043
:1049800010010020034649B1012904D0022908D0B2
:10499000032910D10AE0586A10600CE010685862D0
:1049A00009E0587A20F00200587204E0587A40F08A
:1049B0000200587200BF00BF0020704770B5044667
:1049C000FBF7B4FB05462046FEF775FD2846FBF7CE
:1049D000B1FB2046FFF72BFC002070BD2DE9F8430A
:1049E00007460C4615461E46DDE9088922460A217F
:1049F0003846FFF747FC4346324629463846CDF84D
:104A00000090FEF737FDBDE8F88300002DE9F8437C
:104A10000546FBF78BFB80462846FEF74CFD687A7F
:104A200020F0010068724046FBF784FBFFF74EFF61
:104A3000696A0844A862FBF779FB80462F4F00970C
:104A400000242AE019E05DF824201168142202EB0A
:104A5000C402881A826AAB6AD21A00D108E0826A5C
:104A6000AB6AD21A6FF000439A4200D20CE000BF4A
:104A70005DF8240000684DF824005DF8240007EB81
:104A8000C40149688842DED100BF2CB15DF8240022
:104A90000830611C4DF82100641C002CD2D018484D
:104AA0000068401C164908600846066805F11401B4
:104AB0000098FFF780FB022412E006F0030060B9C3
:104AC000C4F1010305F1140202EBC301C4F10102B8
:104AD0005DF82200FFF76FFB00E003E0B608641CFE
:104AE000012CEAD900BF687A40F0010068724046A4
:104AF000FBF720FB0020BDE8F88300001001002038
:104B00001801002070B50446607A00F0010010B969
:104B10004FF0FF3070BDFBF709FB05462046FEF75E
:104B2000CAFC2846FBF706FB607A20F001006072A1
:104B30000020EFE72DE9FF4F89B0804644460A98F0
:104B400008EB0006464504D24FF0FF36A6EB0800FE
:104B50000A906FE10B980078252806D0B44202D263
:104B60000B9800782070641C61E1002526E00B980A
:104B7000401C0B900B9800782D2802D145F01005B1
:104B80001CE00B9800782B2802D145F0040515E0B5
:104B90000B980078202802D145F008050EE00B980C
:104BA0000078232802D145F0200507E00B98007813
:104BB000302802D145F0010500E000E0D7E700BF52
:104BC0004FF0FF370B98007830380A2804D20BA832
:104BD00000F024FA07460EE00B9800782A280AD144
:104BE0000B98401C0B900C9880C80C90002F02DA98
:104BF0007F4245F010054FF0FF390B9800782E28C2
:104C00001CD10B98401C0B900B98007830380A2868
:104C100004D20BA800F002FA81460AE00B98007853
:104C20002A2806D10B98401C0B900C9850F8049B36
:104C30000C90B9F1000F01DA4FF000090020049048
:104C40000B980078682803D00B9800786C2805D161
:104C50000B98007804900B98401C0B900A2005904C
:104C60000B9800786F2875D00CDC632813D004DC17
:104C7000252870D058286FD18DE064286DD0692820
:104C8000F9D18FE070286AD0732825D0752878D0A4
:104C90007828F0D182E005F0100040B904E0B44279
:104CA00001D220202070641C781E071EF7DC0C98AF
:104CB00010F8041B0C90C8B20790B44201D20798B8
:104CC0002070641C04E0B44201D220202070641CD7
:104CD000781E071EF7DCAAE00C98006806900C9876
:104CE000001D0C90069808B95CA006900698FFF786
:104CF000EFFB8346B9F1000F02DDCB4500DDCB466B
:104D000005F0100048B904E0B44201D22020207020
:104D1000641C38467F1E5845F6DC002008900BE0E6
:104D2000B44202D2069800782070641C0698401C99
:104D300006900898401C089008985845F0DB04E05D
:104D4000B44201D220202070641C38467F1E584592
:104D5000F6DC6CE01CE015E028E022E0FFE7781CC0
:104D600010B9082745F00105CDE9007902950C98A6
:104D700004C8102331460C902046FEF73BFF044642
:104D800055E012E0B44201D225202070641C4EE0B0
:104D9000082005901DE045F0400500BF102005905B
:104DA00017E000BF45F0020500BF12E0B44201D297
:104DB00025202070641C0B98007830B1B44202D2D8
:104DC0000B9800782070641C02E00B98401E0B903A
:104DD0002DE000BF04986C2807D10C9850F804AB64
:104DE0000C9005F00200B8B116E0049868280BD1C9
:104DF0000C9830F8041B1FFA81FA0C9005F00200A1
:104E000050B10FFA8AFA07E00C9850F804AB0C90F6
:104E100005F0020000B100BFCDE9007902955246CD
:104E200031462046059BFEF7E5FE044600BF0B9881
:104E3000401C0B900B98007800287FF48BAE0A98EA
:104E400038B1B44202D20020207002E0002006F8FF
:104E5000010CA4EB08000DB0BDE8F08F284E554CB6
:104E60004C29000000207047002070470020704748
:104E70000020704710B5FBF759F9FEF7F5FFFFF773
:104E8000CFFAFFF787FBFFF747FBFEF77FFFFFF740
:104E90008FFBFFF7FDFBFFF765FB002010BD000057
:104EA00010B504490448FBF7F4FC08B1FF2010BD1D
:104EB00000BFFCE7485100086C11002010B5044900
:104EC0000448FBF7E6FC08B1FF2010BD00BFFCE77B
:104ED000665100086C1100202DE9FC5F82468B466C
:104EE00000BF00BFFDF758FE8020FDF713FEFDF761
:104EF000ADFEF320FDF70EFEFDF7A8FEFDF74CFE1C
:104F00008120FDF707FEFDF7A1FE1420FFF7F8FB57
:104F10000120FDF7C5FD394948700020FDF7C0FDAF
:104F200036490870FDF766FE34490978334A5278ED
:104F300001EB0220FBF73FFB06460F4634463D4699
:104F40002F4A304B20462946FBF754FA00222E4BBD
:104F5000CDE90001FBF7C0FA80462C4A2C4BFBF749
:104F600043FA04460D46CAE900450A20FFF7C8FB8C
:104F7000FDF712FE8020FDF7CDFDFDF767FEE52071
:104F8000FDF7C8FDFDF762FEFDF706FE8120FDF787
:104F9000C1FDFDF75BFE1420FFF7B2FB0120FDF71A
:104FA0007FFD164948700020FDF77AFD134908700F
:104FB000FDF720FE11490978104A527841EA022093
:104FC000FBF7F9FA06460F4634463D4600220E4BE3
:104FD00020462946FBF780FA804600220D4BFBF75E
:104FE00009FA00220C4BCDE90001FBF7FDF904465C
:104FF0000D462046CBE90045BDE8FC9F4901002055
:10500000D7A3703D0AF765400000F040CDCCCCCC72
:10501000CC6C474000405F40000018400146002033
:1050200009E00B685A1C0A601A7800EB800302EB57
:105030004302A2F130000A681278303A0A2AF0D30B
:10504000704700007CB53848FDF7EAF90121374880
:10505000FDF73AFC364800790A2190FBF1F035491A
:1050600051F820400020344923460246CDE9001083
:1050700001462E48FDF7CFFB2D4800790A2190FB11
:10508000F1F201FB12002B4951F8204000202A497F
:1050900023460246CDE9001028212448FDF7BBFB3A
:1050A0000020254925A30246CDE9001046211F48CE
:1050B000FDF7B1FB1E4880790A2190FBF1F01D49F4
:1050C00051F8204000201C4923460246CDE900103B
:1050D00064211648FDF79FFB154880790A2190FB53
:1050E000F1F201FB1200134951F82040002012494F
:1050F00023460246CDE900108C210C48FDF78BFBBE
:105100000A48FDF7BEFB04460848FDF7BDFB05460F
:1051100000231A460A49CDE900040A48FBF745FC7A
:105120000848FBF7A0FB7CBD280000208811002068
:105130002000002034000020800000203A00000001
:105140006C0100206C1100202255AA55AA55AA1105
:1051500000000000000000001E1E1E1E1E1E1E1E5F
:105160000100000000001800000000000000000026
:105170000000000000000F0100000000000000001F
:10518000000000000000000000000000000000001F
:10519000000000000000000000000000000000000F
:1051A0000000000000000C000C000C000C000C00C3
:1051B0000C000C000C0000000C00000000000000BF
:1051C00000000000000000001DC01DC00880088015
:1051D0000880000000000000000000000000000047
:1051E0000000000000000D800D800D800D803FC08C
:1051F0001B003FC01B001B001B001B000000000029
:105200000000000004001F803180318038001E0043
:105210000F000380318031803F0004000400000053
:1052200000000000000018002400240018C00780BF
:105230001E0031800240024001800000000000009A
:1052400000000000000000000F0018001800180007
:105250000C001D80370033001D800000000000009E
:10526000000000000000000007000700020002002C
:10527000020000000000000000000000000000002C
:105280000000000000000300030006000E000C00F8
:105290000C000C000C000E000600030003000000D0
:1052A000000000000000180018000C0006000600B6
:1052B00006000600060006000C001C001800000096
:1052C000000000000000060006003FC03FC00F00C5
:1052D0001F80198000000000000000000000000096
:1052E00000000000000000000000040004000400B2
:1052F0003F800400040004000000000000000000E3
:10530000000000000000000000000000000000009D
:10531000000000000000060004000C000800080067
:10532000000000000000000000000000000000007D
:105330003F800000000000000000000000000000AE
:10534000000000000000000000000000000000005D
:105350000000000000000C000C0000000000000035
:105360000000000000C000C00180018003000300B5
:1053700006000C000C00180018003000300000007F
:105380000000000000000E001B00318031803180E1
:105390003180318031801B000E00000000000000D1
:1053A00000000000000006003E00060006000600A7
:1053B00006000600060006003FC0000000000000D6
:1053C0000000000000000F001980318031800300D0
:1053D00006000C00180030003F80000000000000B4
:1053E0000000000000003F006180018003001F00FA
:1053F00003800180018061803F0000000000000008
:10540000000000000000070007000F000B001B0059
:10541000130033003F8003000F80000000000000F5
:105420000000000000001F801800180018001F0076
:1054300011800180018021801F0000000000000019
:1054400000000000000007801C001800300037003A
:1054500039803180318019800F0000000000000089
:105460000000000000007F0043000300060006006B
:10547000060006000C000C000C00000000000000FC
:105480000000000000001F003180318031801F00CB
:1054900031803180318031801F0000000000000029
:1054A0000000000000001E00330031803180338096
:1054B0001D800180030007003C0000000000000088
:1054C0000000000000000000000000000C000C00C4
:1054D0000000000000000C000C00000000000000B4
:1054E00000000000000000000000000003000300B6
:1054F0000000000000000600040008000800000092
:10550000000000000000000000C0030004001800BC
:10551000600018000400030000C00000000000004C
:1055200000000000000000000000000000007FC03C
:1055300000007FC00000000000000000000000002C
:1055400000000000000000006000180004000300DC
:1055500000C003000400180060000000000000000C
:1055600000000000000000001F0031803180018039
:1055700007000C000C0000000C0000000000000000
:105580000000000000000E00110021002100270093
:10559000290029002700200011000E000000000053
:1055A00000000000000000003F000F00090019800B
:1055B00019801F8030C030C079E00000000000007A
:1055C00000000000000000007F0031803180318049
:1055D0003F003180318031807F00000000000000FA
:1055E000000000000000C000DF4030C060406000EC
:1055F00060006000604030801F000000000000007C
:1056000000000000000000007F00318030C030C08A
:1056100030C030C030C031807F000000000000008A
:1056200000000000000000007F80308030803200E9
:105630003E003200308030807F800000000000009B
:1056400000000000000000007FC030403040320009
:105650003E003200300030007C00000000000000FE
:1056600000000000000000001E80318060806000AB
:10567000600067C0618031801F00000000000000F2
:1056800000000000000000007BC0318031803180CC
:105690003F803180318031807BC0000000000000FD
:1056A00000000000000000003FC0060006000600E9
:1056B00006000600060006003FC0000000000000D3
:1056C00000000000000000001FC0030003000300F2
:1056D00003006300630063003E0000000000000060
:1056E00000000000000000007BC031803300360065
:1056F0003C003E003300318079C000000000000013
:1057000000000000000000007E00180018001800D3
:1057100018001840184018407FC00000000000002A
:105720000000000000000000E0E060C071C07BC02D
:105730006AC06EC064C060C0FBE0000000000000F2
:10574000000000000000000073C0318039803D80FF
:105750003580378033803180798000000000000080
:1057600000000000000000001F00318060C060C029
:1057700060C060C060C031801F00000000000000F9
:1057800000000000000000007F0031803180318087
:1057900031803F00300030007E000000000000003B
:1057A00000000000000000001F00318060C060C0E9
:1057B00060C060C060C031801F000CC01F8000004E
:1057C00000000000000000007F0031803180318047
:1057D0003E003300318031807CE00000000000009A
:1057E00000000000000000001F8031803180380080
:1057F0001F000380318031803F0000000000000066
:1058000000000000000000007F804C804C804C8035
:105810000C000C000C000C003F0000000000000019
:1058200000000000000000007BC03180318031802A
:1058300031803180318031801F0000000000000085
:1058400000000000000000007BC0318031801B00A0
:105850001B001B000A000E000E00000000000000EC
:105860000000000000000000FBE060C064C06EC0EB
:105870006EC02A803B803B80318000000000000029
:1058800000000000000000007BC031801B000E0003
:105890000E000E001B0031807BC0000000000000E5
:1058A000000000000000000079E030C019800F0007
:1058B00006000600060006001F8000000000000031
:1058C00000000000000000003F802180230006004F
:1058D00004000C00188030803F80000000000000B1
:1058E0000000000000000780060006000600060019
:1058F00006000600060006000600060007800000FD
:105900000000000030003000180018000C000C00EF
:105910000600030003000180018000C000C00000F9
:105920000000000000001E00060006000600060041
:105930000600060006000600060006001E00000025
:105940000000000004000A000A00110020802080EE
:105950000000000000000000000000000000000047
:105960000000000000000000000000000000000037
:105970000000000000000000000000000000000027
:105980000000FFE00800040002000000000000002A
:105990000000000000000000000000000000000007
:1059A0000000000000000000000000001F00018057
:1059B00001801F80318033801DC000000000000086
:1059C0000000000000007000300030003700398017
:1059D00030C030C030C039807700000000000000C7
:1059E0000000000000000000000000001E80318068
:1059F00060806000608031801F00000000000000B7
:105A00000000000000000380018001801D803380C1
:105A100061806180618033801DC000000000000053
:105A20000000000000000000000000001F003180A6
:105A300060C07FC0600030C01F8000000000000018
:105A400000000000000007E00C000C003F800C008C
:105A50000C000C000C000C003F8000000000000057
:105A60000000000000000000000000001DC03380A6
:105A700061806180618033801D80018001801F0012
:105A80000000000000007000300030003700398056
:105A900031803180318031807BC000000000000007
:105AA0000000000000000600060000001E000600C6
:105AB00006000600060006003FC0000000000000CF
:105AC0000000000000000600060000003F00030088
:105AD00003000300030003000300030003003E0073
