:020000040800F2
:10000000A808002009010008491A0008D3010008C7
:10001000451A00087B070008E927000800000000D7
:10002000000000000000000000000000E9220008BD
:100030007F070008000000005B010008EB220008B9
:100040002301000823010008230100082301000800
:1000500023010008230100082301000823010008F0
:1000600023010008230100082301000823010008E0
:1000700023010008230100082301000823010008D0
:1000800023010008230100082301000823010008C0
:1000900023010008230100082301000823010008B0
:1000A00000000000230100082301000823010008CC
:1000B0002301000823010008230100082301000890
:1000C0002301000823010008230100082301000880
:1000D00023010008D9270008230100082301000894
:1000E0002301000823010008230100082301000860
:1000F00023010008DFF80CD000F028FB004800477F
:1001000071070008A80800200648804706480047F5
:10011000FEE7FEE7FEE7FEE7FEE7FEE7FEE7FEE7B7
:10012000FEE7FEE749240008F5000008EFF3108021
:1001300072B6704780F310887047334A1368012BFA
:1001400004D04FF001031360304A1060304A116050
:1001500030484FF0805101607047EFF3108272B663
:100160002948016891B14FF00001016027480168FA
:1001700029B1EFF3098121E9F00F006801602449FA
:1001800009680968B1E8F00F81F3098882F31088E3
:100190004EF0040E70471E4908601C494FF00000E5
:1001A000086019494FF0010008601B484FF47F01B7
:1001B000D0F8002041EA0201016016484FF080515A
:1001C000016016480068006880F3088861B662B66E
:1001D00070471EF0040F0CBFEFF30880EFF30980A7
:1001E00020E9F00F40F804ED1EF0040F0CBF80F37F
:1001F000088880F3098800B502F0ECFD5DF804EB97
:100200004EF0040E70470000B4000020AC00002047
:10021000B000002004ED00E020ED00E008ED00E07B
:100220002DE9F05F0546002092469B46884606462B
:10023000814640241BE0284641464746224600F0BE
:1002400005FA53465A46C01A914110D31146184632
:10025000224600F0ECF92D1A67EB01084F462246C2
:100260000120002100F0E3F917EB00094E41201EA8
:10027000A4F10104DFDC484631462A464346BDE886
:10028000F09F40EA01039B0703D009E008C9121F51
:1002900008C0042AFAD203E011F8013B00F8013B40
:1002A000521EF9D27047D2B201E000F8012B491E6C
:1002B000FBD270470022F6E710B513460A46044603
:1002C0001946FFF7F0FF204610BD2DE9FE4F80468E
:1002D00081EA0300C00F0C46009021F0004123F09A
:1002E0000045B8EB0200A94105D2404621469046A0
:1002F0001C460B46024623F00040104347D0270D12
:10030000C7F30A00C3F30A510290401A0190402833
:100310006BDAC3F3130040F4801B0098924620B1BF
:100320000023D2EB030A63EB0B0B01985946C0F193
:100330004002504600F07BF906460D4650465946AD
:10034000019A00F093F910EB08006141002487EA5C
:10035000115284EAE7731A4340D0009A62B3019ABB
:10036000012A4FEA075215DC001B61EB02014FF036
:10037000004202EA0752CDE90042001C41F580111B
:1003800032462B4600F093F903B0BDE8F08F4046AB
:100390002146F9E7001B61EB0201001C41F58013C7
:1003A00000185B412018A2F5001747EB030140EA53
:1003B000D570B6196D4111E06D084FEA360645EA71
:1003C000C0754FEA0752001B61EB0201001C41F5AA
:1003D000801149084FEA30000019514132462B463E
:1003E00003B0BDE8F04F00F053B90098012240007F
:1003F0000023D0EB020263EBE073009821464FEA42
:10040000E074B8EB000061EB0401E9E783F000431E
:100410005BE781F0004158E72DE9FE4F81EA0304D4
:1004200004F0004421F0004100944FF0000B23F051
:10043000004350EA01045ED052EA03045BD0C3F3E8
:100440000A54C1F30A552C44A4F2F3340194A0FBDE
:100450000254C1F3130141F48011C3F3130343F4B5
:10046000801301FB024400FB034E840A970A44EA0E
:10047000815447EA8357A4FB076802958D0A05FB60
:1004800007854FEA932C04FB0C542705029D4FEA85
:10049000065847EA1637B5EB08056EEB070C870ED2
:1004A000920E47EA811742EA8312A7FB0201B6EBDC
:1004B0000B0164EB00042B0D43EA0C335E1844EB94
:1004C0001C50DA465146E7FB0201C5F313044FEA1C
:1004D0000B3343EA14534FEA0432019C43EA060308
:1004E000A4F10C040294009CCDE900B400F0DFF804
:1004F00003B0BDE8F08F00200146F9E72DE9F04D8B
:1005000081EA030404F0004B21F0004514464FF04B
:10051000000A23F0004150EA050220D054EA01020B
:100520001DD0C5F30A570246C5F31303C1F31300E8
:10053000C1F30A5640F4801543F48013A7EB060874
:10054000101BD64608F2FD3873EB050002D308F104
:10055000010801E092185B41B8F1000F03DA0020B6
:100560000146BDE8F08D00204FF480110646844618
:100570000EE0171B73EB050705D3121B63EB050396
:1005800006434CEA010C49084FEA300092185B41DF
:1005900050EA0107EDD152EA030012D082EA0400CA
:1005A00083EA0501084305D0101BAB4106D20122A6
:1005B000002306E000224FF0004302E06FF001024A
:1005C00053101AEB06004CEB085110EB0A0041EBFC
:1005D0000B01BDE8F04D00F05BB80EB5C10F80EA2D
:1005E000E0700844CA07002140F233438DE80E0052
:1005F0000A460B4600F05BF803B000BDC1F30A5297
:1006000010B5C1F3130140F2FF3341F480119A4257
:1006100001DA002010BD40F233439A42A2F2334285
:1006200003DC524200F012F810BD904010BD202AA9
:1006300004DB203A00FA02F1002070479140C2F139
:10064000200320FA03F3194390407047202A04DB6B
:10065000203A21FA02F00021704721FA02F3D0403B
:10066000C2F120029140084319467047202A06DB58
:10067000CB17203A41FA02F043EAE07306E041FA70
:1006800002F3D040C2F1200291400843194670475E
:1006900010B5141E73F1000408DA401C41F100018A
:1006A00092185B411A4301D120F0010010BD2DE9E1
:1006B000F04D92469B4611B1B1FA81F202E0B0FAD8
:1006C00080F220329046FFF7B2FF04460F4640EA20
:1006D0000A0041EA0B0153465A46084313D011461B
:1006E00053EA010019D0C8F140025046FFF7AEFFAF
:1006F00005460E46504659464246FFF798FF0843C6
:1007000005D0012004E020463946BDE8F08D0020E8
:10071000054346EAE0762C4337430A986305E40A2A
:10072000A0EB08000022FD0A44EA47540A3002D533
:1007300000200146E9E7010510196941DDE9084596
:1007400000196941BDE8F04DA2E70000064C074DD5
:1007500006E0E06840F0010394E807009847103491
:10076000AC42F6D3FFF7CAFCA4400008C44000081E
:1007700010B503F0F9FA002010BD00BFFEE7704786
:10078000704770B50446002594F82100022803D074
:100790000420A063012520E02068006820F00E00FE
:1007A000216808602068006820F001002168086066
:1007B00094F8400000F01C0101208840E16B486083
:1007C000012084F8210000BF002084F8200000BF31
:1007D000606B10B12046616B8847284670BD0000F1
:1007E00078B50346002200240020CAE00126964086
:1007F0000D6805EA0604002C71D04D68012D08D063
:100800004D68022D05D04D68112D02D04D68122D76
:1008100013D1986856000325B540A8435600CD680B
:10082000B54028439860586801259540A8430D7944
:10083000C5F30015954028435860D8685600032535
:10084000B540A84356008D68B5402843D8604D6830
:10085000022D02D04D68122D13D1D60803F12005C8
:1008600055F826005507EE0E0F25B540A84356074C
:10087000F60E0D69B5402843D60803F1200545F86A
:100880002600186856000325B540A8430D7905F0E9
:1008900003055600B540284318604D6805F08055A3
:1008A000B5F1805F6CD100BF394D2D6845F0010571
:1008B000374E356035462D6805F00105009500BFBF
:1008C00000BF344D960855F8260095072E0F0F25CA
:1008D000B540A843304DAB4202D1002515E04FE0B2
:1008E0002E4DAB4201D101250FE02D4DAB4201D180
:1008F00002250AE02B4DAB4201D1032505E02A4D2C
:10090000AB4201D1042500E005259607360FB5401E
:100910002843204D960845F82600244D2868A0431A
:100920004D6805F48035B5F5803F00D120431F4D5B
:1009300028602D1D2868A0434D6805F40035B5F5E5
:10094000003F00D12043194D2D1D28602D1D286822
:10095000A0434D6805F48015B5F5801F00D12043F4
:10096000124D083528602D1D2868A0434D6805F4F8
:100970000015B5F5001F00D120430C4D0C35286043
:10098000521C0D68D540002D7FF430AF78BD0000BB
:1009900020380240080001400000024000040240EC
:1009A00000080240000C0240001002400004014018
:1009B000024613690B400BB1012000E00020704794
:1009C00010B5426921EA020302EA010443EA044342
:1009D000836110BD0AB1816101E00B04836170473E
:1009E00001480068704700002000002010B5002476
:1009F000032000F0B3F8002000F008F808B101244B
:100A000001E000F02FF8204610BD000070B504464C
:100A1000002511480068D8B10F4800684FF47A717A
:100A2000B1FBF0F00D490968B1FBF0F6304600F07B
:100A3000AFFD58B9102C07D200222146501E00F0FD
:100A40004FF80748046004E0012502E0012500E0BA
:100A50000125284670BD0000280000202C00002041
:100A60002400002008B500BF1448006840F0004092
:100A7000124908600846006800F00040009000BF7E
:100A800000BF00BF081F006840F00100091F086098
:100A90000846006800F00100009000BF00BF00BFE2
:100AA000081D006840F08050091D08600846006875
:100AB00000F08050009000BF00BF08BD2438024005
:100AC00001460846002809DB00F01F0301229A4076
:100AD00043099B0003F1E023C3F8002100BF7047E6
:100AE0002DE9F05F80460D461646002701F096FE80
:100AF000074639462A46334601F00700C0F1070A87
:100B0000BAF1040F02D94FF0040A01E0C0F1070A5C
:100B1000D14600F1040ABAF1070F02D24FF0000AE1
:100B200001E0A0F1030AD4464FF0010A0AFA09FADB
:100B3000AAF1010A0AEA020A0AFA0CFA4FF0010BBA
:100B40000BFA0CFBABF1010B0BEA030B4AEA0B04AB
:100B50002146404601F06AFEBDE8F09F00BF00F06C
:100B60000702064B19684FF6FF031940044B0B436D
:100B700043EA0221014B196000BF70470CED00E011
:100B80000000FA052DE9F04104460D4614B9012094
:100B9000BDE8F0817E48006800F00100A84218D24C
:100BA00000BF012D05D17A48006840F00400784963
:100BB00008607748006820F0010028437449086005
:100BC00000BF0846006800F00100A84201D00120E3
:100BD000DEE7207800F00200022807D16D480068A7
:100BE00020F0F000A16808436A490860207800F00E
:100BF000010000287FD06068022807D165480838C6
:100C0000006800F40030F8B90120C1E760680328EB
:100C100007D160480838006800F00070A0B90120D2
:100C2000B6E76068012807D15A480838006800F024
:100C3000020048B90120ABE756480838006800F4C4
:100C4000007008B90120A3E75248006820F00300B3
:100C5000616808434F490860FFF7C2FE06466068B6
:100C6000022810D108E0FFF7BBFE801B41F288315B
:100C7000884201D903208BE74648006800F00C0049
:100C80000828F0D137E06068032810D108E0FFF7AA
:100C9000A7FE801B41F28831884201D9032077E703
:100CA0003C48006800F00C000C28F0D123E060689C
:100CB000012810D108E0FFF793FE801B41F2883134
:100CC000884201D9032063E73248006800F00C0035
:100CD0000428F0D10FE008E0FFF782FE801B41F20C
:100CE0008831884201D9032052E72A48006800F081
:100CF0000C000028F0D12648006800F00100A8424E
:100D000018D900BF012D05D12148006840F004002A
:100D10001F4908601E48006820F0010028431C4954
:100D2000086000BF0846006800F00100A84201D03A
:100D300001202DE7207800F00400042807D1154891
:100D4000006820F4E060E1680843124908602078F8
:100D500000F00800082808D10E48006820F4605010
:100D6000216940EAC1000B49086000F041F80949D7
:100D70000968C1F30311084A515CC840074908607B
:100D800007480068FFF742FE0746384600E70000C4
:100D9000003C024008380240313F00082C0000208F
:100DA0002400002001480068704700002C0000204B
:100DB00000B5FFF7F7FF04490968C1F30221034AB0
:100DC000515CC84000BD000008380240413F0008A7
:100DD00000B5FFF7E7FF04490968C1F3C221034AE0
:100DE000515CC84000BD000008380240413F000887
:100DF0002DE9F05F2248D0F8009009F00C0070B3A4
:100E0000042804D0082804D00C2829D103E01D4D63
:100E100032E01D4D30E01D48C9F3834110F801A0B8
:100E2000C9F38150441C1648006800F4803050B16A
:100E30001548A0FB0A700146224600233846FFF7FA
:100E4000EFF9064609E00F48A0FB0A70014622466A
:100E500000233846FFF7E4F9064635460CE000E08B
:100E600000BF0748001F0068C0F3423B0BF10100C0
:100E700001218140CD0300BF00BF2846BDE8F09F9F
:100E8000083802400024F40000127A00283F0008CD
:100E90002DE9F843044614B90120BDE8F883FE4863
:100EA000006800F00C06FC48006800F480372078E9
:100EB00000F00100002875D0082E04D00C2E0ED1B1
:100EC000B7F5803F0BD1F4480838006800F40030D3
:100ED000002867D06068002864D10120DDE700BFEA
:100EE0006068012808D1EC480838006840F4803078
:100EF000E949083908602DE0606868B9E6480838B3
:100F0000006820F48030E449083908600846006829
:100F100020F4802008601DE0606805280DD1DE48BF
:100F20000838006840F48020DB490839086008462A
:100F3000006840F4803008600CE0D748083800684A
:100F400020F48030D449083908600846006820F44D
:100F50008020086000BF606890B1FFF741FD054642
:100F600006E0FFF73DFD401B642801D9032094E70C
:100F7000C9480838006800F400300028F1D011E0BA
:100F8000FFF72EFD054606E0FFF72AFD401B64280B
:100F900001D9032081E7C0480838006800F4003018
:100FA0000028F1D1207800F00200022853D1042E4D
:100FB00002D00C2E17D1B7B9B7480838006800F036
:100FC000020020B1E068012801D0012065E7B248A5
:100FD000001F006820F4F850216940EA0120AE4962
:100FE000091F086037E0E06800B30120AB490860E2
:100FF000FFF7F6FC054606E0FFF7F2FC401B02286F
:1010000001D9032049E7A4480838006800F002002D
:101010000028F1D0A048001F006820F4F850216992
:1010200040EA01209C49091F086014E000209B4908
:101030000860FFF7D5FC054606E0FFF7D1FC401B32
:10104000022801D9032028E793480838006800F0F7
:1010500002000028F1D1207800F01000102871D192
:10106000F6BB8D480838006800F4007018B1A0691C
:1010700008B9012011E78849091F206A096801F4AD
:101080006041884219D9206A00F042FF08B101206E
:1010900003E78148001F006820F46040216A08438C
:1010A0007D49091F0860217F7B48001F006861F3AC
:1010B0001F607949091F08601AE07748001F00681F
:1010C00020F46040216A08437349091F0860217FAA
:1010D0007148001F006861F31F606F49091F00E03D
:1010E00020E00860206A00F013FF08B10120D4E678
:1010F0000121206A01EB503101208840C00366497C
:101100000968C1F30311664A515CC840654908602B
:1011100065480068FFF77AFC8046B8F1000F42D0BE
:101120004046BAE6A06948B301205C490862FFF76F
:1011300057FC054607E0FFF753FC401B022802D985
:101140000320AAE62FE054480838006800F4007035
:101150000028F0D05048001F006820F46040216A49
:1011600008434D49091F0860217F4B48001F006854
:1011700061F31F604849091F086014E000204749D7
:101180000862FFF72DFC054606E0FFF729FC401B2F
:10119000022801D9032080E63F480838006800F49F
:1011A00000700028F1D1207800F0080008282CD128
:1011B0006069A8B101203D490860FFF711FC0546B0
:1011C00006E0FFF70DFC401B022801D9032064E66E
:1011D00031482C30006800F002000028F1D014E003
:1011E000002032490860FFF7FBFB054606E0FFF7E9
:1011F000F7FB401B022801D903204EE626482C307D
:10120000006800F002000028F1D1207800F004000E
:1012100004286ED14FF000091F481C30006800F010
:10122000805088B900BF1C481C30006840F08050D6
:1012300019491C3108600846006800F08050009091
:1012400000BF00BF4FF001091948006800F480702A
:10125000B0B91748006840F4807015490860FFF77E
:10126000BFFB054606E0FFF7BBFB401B642801D926
:10127000032012E60E48006800F480700028F2D0C7
:1012800000BFA068012817D103482C30006840F443
:10129000807001492C310DE00838024000004742BF
:1012A000313F00082C000020240000208006474227
:1012B00000700040086028E0A06858B966480068DF
:1012C00020F48070644908600846006820F480605B
:1012D00008601AE0A06805280CD15F48006840F457
:1012E00080605D4908600846006840F480700860CE
:1012F0000BE040E05848006820F4807056490860D0
:101300000846006820F48060086000BFA06898B1BB
:10131000FFF766FB054608E0FFF762FB401B41F262
:101320008831884201D90320B7E54B48006800F4B2
:1013300000700028F0D012E0FFF752FB054608E0ED
:10134000FFF74EFB401B41F28831884201D9032050
:10135000A3E54148006800F400700028F0D1B9F11D
:10136000010F07D13C481038006820F080503A49FE
:101370001039086000BF606AA8B30C2E52D0606AB2
:10138000022839D1002035490866FFF729FB0546B8
:1013900006E0FFF725FB401B022801D903207CE56E
:1013A0002D483438006800F000700028F1D1D4E9ED
:1013B0000A010843216B084327492C39096821F4A5
:1013C0007D01084324492C3908600120234908661F
:1013D000FFF706FB054607E0FFF702FB401B02286C
:1013E00002D9032059E535E01B483438006800F085
:1013F00000700028F0D02DE0002018490866FFF7A3
:10140000EFFA054606E0FFF7EBFA401B022801D988
:10141000032042E510483438006800F000700028CE
:10142000F1D117E0606A012800D136E50A482C386E
:10143000076807F48031A06A814209D107F470116E
:10144000E06A814204D107F44001206B814201D05F
:10145000012022E5002020E5343802400000474208
:1014600010B504460CB9012010BD606A38B9606837
:10147000B0F5827F00D105E00021E16102E00021AA
:10148000216161610021A16294F8510028B9002016
:1014900084F85000204600F03DF8022084F8510006
:1014A0002068006820F0400021680860A08800F4EF
:1014B0008270218901F404410843A18901F400618B
:1014C0000843217C01F002010843217D01F0010164
:1014D0000843218B01F400710843217F01F038019A
:1014E00008432021095D01F080010843218D01F4AA
:1014F00000510843216808600421A06901EA1040F6
:101500002168486000206065012084F851000020B7
:10151000AAE7000010B586B00446142101A8FEF722
:10152000C9FE18492068884229D100BF16480068C2
:1015300040F48050144908600846006800F4805068
:10154000009000BF00BF00BF081F006840F001000E
:10155000091F08600846006800F00100009000BF05
:1015600000BFA020019002200290002003900320E1
:1015700004900520059001A90448FFF731F906B051
:1015800010BD000000300140203802400000024041
:1015900070B504462546681EB0F1807F01D3012056
:1015A0000FE0681E4FF0E02148610F214FF0FF303F
:1015B00001F03CF900204FF0E0218861072008612C
:1015C000002070BD704700002DE9F04704462068F8
:1015D00005682068C668206847694FF00008C14662
:1015E00005F00F08B8F1000F0AD105F0200038B15E
:1015F00006F0200020B1204600F058FFBDE8F0873B
:10160000B8F1000F72D007F0010018B906F490701D
:1016100000286BD005F0010030B106F4807018B1DD
:10162000E06B40F00100E06305F0040030B107F02A
:10163000010018B1E06B40F00200E06305F0020029
:1016400030B107F0010018B1E06B40F00400E06336
:1016500005F0080048B106F0200010B907F00100BD
:1016600018B1E06B40F00800E063E06B70B305F088
:10167000200028B106F0200010B1204600F016FF2F
:1016800020684069C0F38019E06B00F0080010B9D1
:10169000B9F1000F23D0204600F0E8FE2068406931
:1016A00000F04000402816D12068406920F040003A
:1016B00021684861606B50B11748616B4863606B8B
:1016C000FFF75FF810B1606B416B88470CE0204674
:1016D000FFF778FF08E02046FFF774FF04E020469C
:1016E000FFF770FF0020E06388E7FFE705F0800068
:1016F00030B106F0800018B1204601F003F87DE714
:1017000005F0400030B106F0400018B1204600F06E
:10171000BDFE73E700BF71E75924000810B5044609
:101720000CB9012010BDA06900B100E000BF94F821
:10173000390028B9002084F83800204600F028F845
:10174000242084F839002068C06820F40050216803
:10175000C860204600F0FEFE2068006920F490403A
:10176000216808612068406920F02A0021684861EA
:101770002068C06840F400502168C8600020E06321
:10178000202084F8390084F83A000020CAE70000DD
:1017900010B586B00446142101A8FEF78BFD1C4944
:1017A0002068884232D100BF1A48006840F4804067
:1017B000184908600846006800F48040009000BFA7
:1017C00000BF00BF081F006840F00100091F08604B
:1017D0000846006800F00100009000BF00BF4FF411
:1017E000C06001900220029000200390032004902A
:1017F0000720059001A90848FEF7F2FF00221146D4
:101800002520FFF76DF92520FFF75AF906B010BD26
:1018100000380140203802400000024070472DE9A6
:10182000F84304460D4616461F464FF0000994F84B
:10183000390020285DD105B116B90120BDE8F88333
:1018400000BF94F83800012801D10220F6E70120FA
:1018500084F8380000BF0020E063212084F83900BC
:10186000FFF7BEF88146A684E68400BF002084F816
:10187000380000BF2BE0E08C401EE084A068B0F58B
:10188000805F16D14B46002280212046009700F051
:101890006DFF08B10320D1E7A846B8F80000C0F3F7
:1018A000080021684860206908B9AD1C0FE06D1C74
:1018B0000DE04B46002280212046009700F056FFA5
:1018C00008B10320BAE715F8010B21684860E08CE5
:1018D0000028D0D14B46002240212046009700F03E
:1018E00045FF08B10320A9E7202084F83900002033
:1018F000A4E70220A2E7704700B587B0142102A830
:10190000FEF7D8FC00BF2B48006840F020002949B2
:1019100008600846006800F02000019000BF00BF8A
:1019200000BF0846006840F00100086008460068F3
:1019300000F00100019000BF00BF00BF0846006832
:1019400040F0020008600846006800F002000190C4
:1019500000BF00BF00224FF401411748FFF73AF8DB
:1019600001224FF490711548FFF734F84FF401400D
:1019700002900120039004900220059002A90E48D5
:10198000FEF72EFF4FF49070029001200390049018
:101990000220059002A90948FEF722FF10200290BC
:1019A000002003900120049002A90448FEF718FFCC
:1019B00007B000BD1C380240000002400004024095
:1019C00010B51048104908604FF4827048604FF419
:1019D00000410D4881600021C160022101610121A7
:1019E0004161490281611821C161002101624162A6
:1019F00081620A21C162FFF733FD08B1FEF7C0FE24
:101A000010BD000000300140DC00002010B50B4884
:101A10000B4908604FF4E1304860002108488160BC
:101A2000C16001610C21416100218161C161FFF749
:101A300075FE08B1FEF7A4FE10BD0000003801409D
:101A40003401002000BFFEE77047000010B50022FF
:101A500040211348FEF7BEFF00BF1148006820F484
:101A600040400F4908600846006840F48040086024
:101A700000BF002280210A48FEF7ACFF012001F0E0
:101A8000B9FD012240210648FEF7A4FF012001F024
:101A9000B1FD002240210248FEF79CFF10BD00006E
:101AA0000004024000B587B000BF1348006840F052
:101AB0000200114908600846006800F00200019029
:101AC00000BF00BF029840F0C000029001200390C8
:101AD00004900220059002A90848FEF781FE012229
:101AE00040210648FEF776FF012280210348FEF7D9
:101AF00071FF07B000BD00001C3802400004024026
:101B000010B5002240211348FEF764FF00BF1148C2
:101B1000006820F440400F4908600846006840F41F
:101B20008040086000BF012280210A48FEF752FF72
:101B3000012001F05FFD012240210648FEF74AFF27
:101B4000012001F057FD002240210248FEF742FF2C
:101B500010BD00000004024070B50646002500BF1D
:101B60001848006820F4404016490860084600689C
:101B7000086000BF00241AE0002240211148FEF74F
:101B800029FF012001F036FD012240210D48FEF71A
:101B900021FF6806050E80210A48FEF709FF08B1FB
:101BA000681CC5B2012001F025FD601CC4B2082CE0
:101BB000E2DB16B9FFF7A4FF01E0FFF747FF284675
:101BC00070BD00000004024070B5044600BF1D480F
:101BD000006820F440401B4908600846006840F453
:101BE0008040086000BF002240211648FEF7F2FE48
:101BF000002523E0E00928B1012280211148FEF7E9
:101C0000E9FE04E0002280210E48FEF7E3FE6006B4
:101C1000040E012001F0EEFC012240210948FEF7EC
:101C2000D9FE012001F0E6FC002240210548FEF724
:101C3000D1FE012001F0DEFC681CC5B2082DD9DB05
:101C400070BD00000004024010B500BF13480068DA
:101C500020F44040114908600846006840F4804084
:101C6000086000BF012240210C48FEF7B3FE0122AC
:101C700080210A48FEF7AEFE012001F0BBFC0022E5
:101C800080210648FEF7A6FE012001F0B3FC0022E9
:101C900040210248FEF79EFE10BD000000040240F5
:101CA00010B500BF1348006820F440401149086097
:101CB0000846006840F48040086000BF00224021D0
:101CC0000C48FEF787FE002280210A48FEF782FEBC
:101CD000012001F08FFC012240210648FEF77AFE28
:101CE000012280210348FEF775FE012001F082FCED
:101CF00010BD00000004024010B5002400BF1848C9
:101D0000006820F4404016490860084600680860F2
:101D100000BF012280211248FEF75CFE012001F085
:101D200069FC012240210E48FEF754FE012001F01B
:101D300061FC07E0601CC4B2FA2C03DDFFF7B0FFC2
:101D4000012010BD80210648FEF732FE0028F1D1A7
:101D5000002240210248FEF73DFE0020F1E700008E
:101D60000004024070B504460025FFF76DFFA22075
:101D7000FFF72AFFFFF7C0FFE0B2FFF725FFFFF7ED
:101D8000BBFFFFF761FFA320FFF71EFFFFF7B4FFC4
:101D90000020FFF7E1FE0546FFF782FF284670BDF1
:101DA00070B506460820FFF7DDFF2549487007207B
:101DB000FFF7D8FF00F01F00214988700520FFF7CA
:101DC000D1FF00F03F001E49C8700420FFF7CAFF92
:101DD00000F03F001A4908710320FFF7C3FF00F02D
:101DE0007F00174948710220FFF7BCFF00F07F0019
:101DF000134988710620FFF7B5FF00F00F00104966
:101E0000C871002419E00E49085DC11700EB11717B
:101E10000D110B49085DC11700EB11710911A0EB01
:101E20000111084A11551046005D05EB850100EBD4
:101E3000410011460855601CC4B2082CE3DB70BD9C
:101E4000C40000200000002070B505460C46FFF7D6
:101E5000FBFEA220FFF7B8FEFFF74EFF2846FFF774
:101E6000B3FEFFF749FF2046FFF7AEFEFFF744FF42
:101E7000FFF716FF012001F0BDFB70BD70B5002417
:101E800014E02148005D0A2190FBF1F0C5B21E4824
:101E9000005D90FBF1F201FB12001C490855084659
:101EA000005D00EB05100855601CC4B2082CE8DB8F
:101EB00020210020FFF7C8FF144841780820FFF7D1
:101EC000C3FF124881780720FFF7BEFF0F48C17893
:101ED0000520FFF7B9FF0D4801790420FFF7B4FF93
:101EE0000A4841790320FFF7AFFF084881790220B3
:101EF000FFF7AAFF0548C1790620FFF7A5FF0021DB
:101F00000846FFF7A1FF70BDBC000020C400002000
:101F100018B5034600222548006800F0F00050BBC9
:101F200022481C30006800F0805020B12048006832
:101F300000F4C05118E000BF1C481C30006840F09D
:101F400080501A4C1C3420602046006800F08050FD
:101F5000009000BF00BF1648006800F4C051204642
:101F6000006820F080502060B1F5C05F03D1B3F568
:101F7000404F00D1012200BF012A05D10D48006861
:101F800040F004000B4C20600A48006820F001007B
:101F90001043084C206000BF2046006800F001009C
:101FA000904201D0012018BD0020FCE70838024013
:101FB00000700040003C024010B500224021134850
:101FC000FEF708FD00BF1148006820F440400F49AB
:101FD00008600846006840F48040086000BF0022A6
:101FE00080210A48FEF7F6FC012001F003FB0122E4
:101FF00040210648FEF7EEFC012001F0FBFA00222A
:1020000040210248FEF7E6FC10BD0000000402403B
:1020100000B587B000BF1948006840F002001749BA
:1020200008600846006800F00200019000BF00BF91
:10203000029840F08000029001200390049002205A
:10204000059002A90E48FEF7CBFB029840F0400035
:1020500002900120039004900220059002A90848F4
:10206000FEF7BEFB012240210548FEF7B3FC01222A
:1020700080210348FEF7AEFC07B000BD1C380240CB
:102080000004024010B5002240211348FEF7A2FCD4
:1020900000BF1148006820F440400F49086008461E
:1020A000006840F48040086000BF012280210A4897
:1020B000FEF790FC012001F09DFA01224021064824
:1020C000FEF788FC012001F095FA00224021024829
:1020D000FEF780FC10BD00000004024070B506460B
:1020E000002500BF1848006820F4404016490860E9
:1020F00008460068086000BF00241AE00022402162
:102100001148FEF767FC012001F074FA012240211A
:102110000D48FEF75FFC6806050E80210A48FEF7B1
:1021200047FC08B1681CC5B2012001F063FA601CCD
:10213000C4B2082CE2DB16B9FFF7A4FF01E0FFF7F9
:102140003BFF284670BD00000004024070B5044605
:1021500000BF1D48006820F440401B490860084645
:10216000006840F48040086000BF0022402116480B
:10217000FEF730FC002523E0E00928B10122802190
:102180001148FEF727FC04E0002280210E48FEF7EC
:1021900021FC6006040E012001F02CFA01224021EE
:1021A0000948FEF717FC012001F024FA0022402123
:1021B0000548FEF70FFC012001F01CFA681CC5B2AF
:1021C000082DD9DB70BD00000004024010B500BF2F
:1021D0001348006820F44040114908600846006830
:1021E00040F48040086000BF012240210C48FEF707
:1021F000F1FB012280210A48FEF7ECFB012001F0EF
:10220000F9F9002280210648FEF7E4FB012001F0E5
:10221000F1F9002240210248FEF7DCFB10BD00006E
:102220000004024010B500BF1348006820F440408D
:10223000114908600846006840F48040086000BF0B
:10224000002240210C48FEF7C5FB002280210A48ED
:10225000FEF7C0FB012001F0CDF901224021064824
:10226000FEF7B8FB012280210348FEF7B3FB0120F3
:1022700001F0C0F910BD00000004024010B50024B8
:1022800000BF1848006820F440401649086008461E
:102290000068086000BF012280211248FEF79AFB07
:1022A000012001F0A7F9012240210E48FEF792FB20
:1022B000012001F09FF907E0601CC4B2FA2C03DD95
:1022C000FFF7B0FF012010BD80210648FEF770FB2C
:1022D0000028F1D1002240210248FEF77BFB0020BC
:1022E000F1E7000000040240704710B500F098FECE
:1022F00001F06CFA00F0A4FE10BD000000B593B030
:10230000342106A8FDF7D6FF142101A8FDF7D2FF5E
:102310001548006820F4C05040F40060124908607D
:1023200001200690079002200F90C10310914FF4F6
:10233000402111914105129106A8FEF7A9FD08B1AF
:10234000FEF71EFA0F200190032002900020039058
:1023500004900590012101A8FEF714FC08B1FEF7D6
:102360000FFA13B000BD00000070004070B50022ED
:1023700000200021002400232D4D2D6805F00C02C3
:1023800032B1042A10D0082A12D00C2A36D113E018
:10239000274D2D1F2D68C5F342335D1C0126AE402D
:1023A000F503244E356035E0234D224E356031E093
:1023B000224D204E35602DE01D4D2D6805F4701026
:1023C0001B4D2D6805F440011D4D05EB9045287807
:1023D000012505EB9151164D2D6805F4803434B973
:1023E000154D4543B5FBF1F5124E356005E0134D33
:1023F0004543B5FBF1F50F4E35600BE00C4D2D1F3D
:102400002D68C5F342335D1C0126AE40F503094E2D
:10241000356000BF00BF064D2D68C5F30315094E9A
:10242000725D044D2D68D540024E356070BD0000D0
:10243000083802402C0000200024F40000127A002A
:10244000283F0008313F00084FF000600149086054
:102450007047000008ED00E070B505466C6A00208A
:10246000E085E0842046FFF7ADF870BD0168C968DB
:1024700021F490710268D1600168496921F001017D
:1024800002685161202180F83A10704710B5044667
:102490002068C06820F040002168C860202084F8CF
:1024A00039002046FFF727FA002010BD70B504461A
:1024B00094F83A0022284AD1A068B0F5805F13D181
:1024C000A56A206940B920684068C0F308002880E8
:1024D000A06A801CA06219E020684068C0B2288011
:1024E000A06A401CA06211E0206938B920684068E9
:1024F000C1B2A26A501CA062117007E02068406857
:1025000000F07F01A26A501CA0621170E08D401E95
:1025100080B2E085C8B92068C06820F0200021683A
:10252000C8602068C06820F480702168C860206896
:10253000406920F0010021684861202084F83A00B9
:102540002046FFF76BF9002070BD0020FCE7022059
:10255000FAE7000070B504462168096921F440518A
:10256000E2681143226811612269A168114362691E
:102570001143E26941EA02052168C96849F20C6227
:10258000914329432268D1602168496921F440714F
:10259000A269114322685161594A2168914202D1CE
:1025A000FEF716FC01E0FEF703FCE169B1F5004F10
:1025B00053D100EBC00101EB001162685200B1FB86
:1025C000F2F16422B1FBF2F10A0100EBC00101EB70
:1025D000001163685B00B1FBF3F100EBC00303EB98
:1025E000001366687600B3FBF6F36426B3FBF6F3DC
:1025F00003EBC30606EB0313A1EB8301322303EBCA
:10260000C1016423B1FBF3F101F0F80102EB4102D7
:1026100000EBC00101EB001163685B00B1FBF3F15B
:1026200000EBC00303EB001366687600B3FBF6F320
:102630006426B3FBF6F303EBC30606EB0313A1EB2F
:102640008301322303EBC1016423B1FBF3F101F0F9
:10265000070111442268916051E000EBC00101EBD9
:10266000001162689200B1FBF2F100EBC00202EBD4
:10267000001263689B00B2FBF3F26423B2FBF3F237
:1026800002EBC20303EB0212A1EB8201322202EB46
:1026900001116422B1FBF2F101F0F00100EBC00284
:1026A00002EB001263689B00B2FBF3F26423B2FBFF
:1026B000F3F201EB021200EBC00101EB00116368C1
:1026C0009B00B1FBF3F100EBC00303EB0013666862
:1026D000B600B3FBF6F36426B3FBF6F303EBC306D5
:1026E00006EB0313A1EB8301322303EB01116423F7
:1026F000B1FBF3F101F00F0111442268916070BD4C
:1027000000380140014691F8390021282CD1886811
:10271000B0F5805F0FD10A6A1088C0F308000B681B
:102720005860086918B9086A801C086209E0086ADC
:10273000401C086205E00B6A581C086218780B6898
:102740005860C88C401E80B2C88458B90868C068F8
:1027500020F080000B68D8600868C06840F0400036
:102760000B68D860002070470220FCE72DE9F0419B
:1027700004460D4617469846069E21E0701CF8B1A7
:102780002EB1FEF72DF9A0EB0800B04218D9206851
:10279000C06820F4D0702168C8602068406920F0CB
:1027A000010021684861202084F8390084F83A004B
:1027B00000BF002084F8380000BF0320BDE8F0818E
:1027C000206800682840A84201D1012000E00020D4
:1027D000B842D3D00020F1E710B50248FEF7F4FE6E
:1027E00010BD00003401002000BFFEE70146481E76
:1027F000B0F1807F01D301207047481E4FF0E022E6
:102800005061FF20044A107000204FF0E0229061D8
:10281000072010610020EFE723ED00E00248006888
:10282000C0F30220704700000CED00E010B5002856
:1028300004DB0A07130E054A135406E00A07140EB8
:10284000034A00F00F031B1FD45410BD00E400E046
:1028500018ED00E0014609B900207047C8B220B168
:10286000C8B20E4A105C401CF7E701F47F4028B163
:102870000A48C1F30722805C0930EEE701F47F00CB
:1028800028B10648C1F30742805C1130E5E70348F0
:1028900000EB116000781930DFE70000493F0008C5
:1028A00002E008C8121F08C1002AFAD17047704719
:1028B000002001E001C1121F002AFBD17047000077
:1028C00003490868884201D0012070470020FCE7D6
:1028D000980000202DE9FC5F04468B4615461E46F5
:1028E000DDE90C9ADDE90E7804F114004060006027
:1028F00000BF1C346560A660C4F80C90C4F810A03A
:102900002321D4E9030200F0E8FBD4E9033C63444B
:102910001A1F0F4BD4E9010100F05CFB2060A77681
:1029200067760020E061C4F82080C4F824806061EC
:1029300020766065A0651C3C00902346054A214630
:10294000019004F1440000F0C3FF0020BDE8FC9FAB
:10295000A9340008053700082DE9F04704460E4663
:1029600017469846DDF8209084F80990607A20F0A8
:1029700001006072E66127620020A062C4F8248032
:10298000002506E004F1140101EBC50000F083FB13
:102990006D1C012DF6DBBDE8F08710B50246002066
:1029A00001460EE002F1140303EBC100D0E900433D
:1029B0006360D0E9003423604060006000BF481CC1
:1029C00001460129EEDB10BD8EB030A103C9CDE96F
:1029D0000C0128222F4902A8FDF753FCFEF706F848
:1029E000FFF78CFCFEF788FFFEF7EAFFFFF75AF8C7
:1029F000FFF70EFBFFF70AF8FFF740FA26A000F0FA
:102A00002FFB42E04FF400412748FDF7D9FF4FF478
:102A100080712548FDF7D4FF2448FFF7C1F923480A
:102A2000C0790A2190FBF1F201FB12041F48807962
:102A300090FBF1F201FB12051C48407990FBF1F28A
:102A400001FB12061948007990FBF1F201FB120715
:102A50002B463246394616A0009400F001FB4FF495
:102A6000FA7000F0C7FD1549154801F093F90022EE
:102A7000144B134903C9FDF7CFFC0546FDF7BEFD16
:102A800084B2214610A000F0EBFABBE730303A30B8
:102A900030000000003F0008496E69742046696EEE
:102AA0007368210A000000000000024000000020BE
:102AB000256425643A256425640A00001800002076
:102AC000100000200000244074656D706572617410
:102AD0007572653D25640A0010B5044600F0FEF8E5
:102AE000FFF772FF10BD00002DE9F04F86B00D46D4
:102AF0009C46DDE9106401960F9B04F04008B8F194
:102B0000000F02D0DFF8708101E0DFF87081CDF8AE
:102B1000008004F01008B8F1000F01D024F0010487
:102B200004F00108B8F1000F02D04FF0300801E0C6
:102B30004FF02008C246002704F00208B8F1000F49
:102B400011D0002A02DA2D2752420CE004F00408CA
:102B5000B8F1000F01D02B2705E004F00808B8F108
:102B6000000F00D02027002142B94FF0300B8846DB
:102B7000491C0DF1080909F808B01DE01AE0E1460A
:102B8000B9F10A0F08D14FF00A0BB2FBFBFE0BFBA9
:102B90001E28B2FBFBF202E002F00F08120900BF90
:102BA000DDF8009019F808B08846491C0DF10809B5
:102BB00009F808B0002AE2D1B14200DD0E469B1BA5
:102BC00004F01108B8F1000F10D117B1002B00DD8F
:102BD0005B1E06E0A84203D24FF0200880F8008078
:102BE000401CB3F10008A3F10103F3DC27B1A842B4
:102BF00000D207705B1E401C04F01008B8F1000FF3
:102C00000AD104E0A84201D280F800A0401CB3F130
:102C10000008A3F10103F5DC06E0A84203D24FF05F
:102C2000300880F80080401CB046761E8845F4DCF1
:102C300008E0A84205D20DF1080818F8018080F8D4
:102C40000080401CB1F10008A1F1010104DDDDF8B4
:102C50000480B8F1000FECD106E0A84203D24FF097
:102C6000200880F80080401CB3F10008A3F10103A4
:102C7000F3DC06B0BDE8F08F5A4000084940000878
:102C80007FB50A4C14200221CA01094BCDE900325C
:102C9000CDE902100023074A07A1204600F090FC6E
:102CA0000546204600F0F6FC7FBD000078020020BB
:102CB00078010020D92A00086D61696E00000000CB
:102CC00010B5044C02E020688047241D024884426D
:102CD000F9D310BD984000089C40000810B5044C82
:102CE00002E020688047241D02488442F9D310BDC9
:102CF0009C400008A040000810B5FDF717FA0446F4
:102D000004480088401C00B2024908802046FDF7B4
:102D100011FA10BD8800002010B5FDF707FA04462F
:102D20000C480088401E00B20A4908800846B0F9E5
:102D3000000000280ADC002008802046FDF7FAF990
:102D40000548006828B100F051FA02E02046FDF77E
:102D5000F1F910BD880000208C00002010B5FFF7AD
:102D600005FB074800684FF47A71B0FBF1F4204688
:102D7000FFF73CFDFFF7A4FFFEF748FE10BD000083
:102D80002C000020F8B50546002400260D200090F8
:102D900000BF00200E4981F8380000BF284600F02F
:102DA00011FB064600BF0FE0285D0A2805D101236C
:102DB0001A4669460648FEF732FD291901231A46CC
:102DC0000348FEF72CFD641CB442EDD3F8BD0000AF
:102DD0003401002070B505462C1D2E48006838B11E
:102DE00028462C4909688847064606B970BD00BFC9
:102DF00029A0E16B00F034F92BA0216A00F030F932
:102E00002DA0616A00F02CF92FA0A16A00F028F92A
:102E100031A0E16A00F024F933A0216800F020F924
:102E200035A0616800F01CF937A0A16800F018F91E
:102E300039A0E16800F014F93BA0216900F010F915
:102E40003DA0616900F00CF93FA0A16900F008F90C
:102E500041A0E16900F004F943A0216B00F000F902
:102E600045A0616B00F0FCF847A0A16B00F0F8F8FA
:102E7000287800F0040038B100F0E4FB0646314643
:102E800045A000F0EDF802E04BA000F0E9F800BF2B
:102E9000FEE70000B80000207073723A20307825F9
:102EA0003038780A000000007230303A203078253F
:102EB0003038780A000000007230313A203078252E
:102EC0003038780A000000007230323A203078251D
:102ED0003038780A000000007230333A203078250C
:102EE0003038780A000000007230343A20307825FB
:102EF0003038780A000000007230353A20307825EA
:102F00003038780A000000007230363A20307825D8
:102F10003038780A000000007230373A20307825C7
:102F20003038780A000000007230383A20307825B6
:102F30003038780A000000007230393A20307825A5
:102F40003038780A000000007231303A203078259D
:102F50003038780A000000007231313A203078258C
:102F60003038780A000000007231323A203078257B
:102F70003038780A00000000206C723A2030782542
:102F80003038780A000000002070633A203078253D
:102F90003038780A0000000068617264206661754C
:102FA0006C74206F6E207468726561643A202573BA
:102FB0000D0A0D0A000000006861726420666175E8
:102FC0006C74206F6E2068616E646C65720D0A0D02
:102FD0000A000000F0B504460D461646301D20F0EC
:102FE000070040380146002203E00C4F41F82270F0
:102FF000521C102AF9D30D624FF0000CC1F824C006
:10300000C1F828C0C1F82CC0C1F830C04B638C6334
:103010004FF0807CC1F83CC0F0BD0000EFBEADDEDB
:1030200010B5FDF783F8044604480078401C0349B6
:1030300008702046FDF77EF810BD00003400002027
:1030400010B5FDF773F8044604480078401E0349A4
:1030500008702046FDF76EF810BD00003400002017
:103060000FB438B505A800907F210848009B049A4A
:1030700000F0DAFC04467F2C00D97F240348FFF7D8
:1030800081FE0020009038BC5DF814FBE8030020AE
:1030900040600060704740600060704702685160A7
:1030A00002680A6001604860704702685160026807
:1030B0000A6001604860704701460868884201D193
:1030C000012070470020FCE7D0E900215160D0E9E1
:1030D00000121160406000607047F0B50C46054674
:1030E000E6B2042A15D300F0030797B9014646EA71
:1030F000062343EA034304E008C108C108C108C12C
:10310000103A102AF8D201E008C1121F042AFBD29B
:103110000D4601E005F8016B171EA2F10102F9D17D
:10312000F0BD70B5044600202072FCF7FFFF054695
:1031300004F10C00D0E900215160D0E900121160C7
:103140004060006000BF2846FCF7F4FF70BD00003F
:10315000024600210AE0074800EB01100078904287
:1031600003D1044800EB01107047491C0529F2DB2C
:103170000020F9E7380000202DE9F04704460D460D
:10318000904600262846FFF7E3FF0746FFF7B4FD09
:103190007E6802E0A6F10C003668381D8642F9D13F
:1031A000FFF7BAFD45F08000207208224146204614
:1031B00000F011F9FCF7BAFF8146381D04F10C014B
:1031C0000268516002680A600160486000BF4846BA
:1031D000FCF7B0FFBDE8F0870146087A00F08000F8
:1031E00008B1012070470020FCE700002DE9F04104
:1031F000FCF79CFF07461848008838BB1748006852
:10320000FFF728FB461E164850F83600A0F11404BC
:1032100014480068844218D013490E70114805689C
:1032200004601248007850B904F11C0105F11C003B
:10323000FCF783FF3846FCF77DFFBDE8F08104F121
:103240001C0105F11C00FCF778FF00BF3846FCF7B5
:1032500071FF00BFF1E7000088000020940000200B
:10326000680400208C000020900000203400002022
:1032700070B50446FCF75AFF054614F8340F20F0E9
:103280000F0040F0010020706278343C0A4B03EBE1
:10329000C20004F114014268116042684A60416052
:1032A000086000BF0549A06B09680843034908602E
:1032B0002846FCF73FFF70BD680400209400002002
:1032C00070B50446FCF732FF054604F11400D0E95E
:1032D00000215160D0E9001211604060006000BF21
:1032E00094F83510094A02EBC1000168814201D10E
:1032F000012100E0002129B10548A16B0068884345
:10330000034908602846FCF715FF70BD68040020DB
:103310009400002008B509A0FFF7A2FE0AA0FFF75D
:103320009FFE12A0032301221946009012A0FFF76E
:1033300097FE19A0FFF794FE08BD00000A205C204C
:103340007C202F0A000000002D205254202D202028
:10335000202020546872656164204F70657261742A
:10336000696E672053797374656D0A004E6F76201D
:103370003137203230323000202F207C205C20205A
:1033800020202025642E25642E2564206275696C1A
:10339000642025730A0000002032303036202D20B2
:1033A0003230313920436F707972696768742062F6
:1033B000792072742D746872656164207465616D22
:1033C0000A00000001460A4600E0521C107800285E
:1033D000FBD1501A704770B50346A2B118460C468F
:1033E00000BF14F8016B00F8016B3EB902E0002544
:1033F00000F8015B551E2A1EF9D102E0551E2A1E57
:10340000EFD100BF00BF184670BD000010B500200E
:103410000B490880002405E00A4901EBC400FFF7CE
:1034200037FE641C082CF7DB0720074908700020D2
:1034300006490860064908600648FFF729FE10BDE6
:103440008800002068040020900000208C000020EC
:10345000940000209800002070B508480068FFF72D
:10346000F9F9451E064850F83500A0F11404054846
:10347000046004F11C00FCF78EFE70BD9400002077
:10348000680400208C00002010B5002405E00449E9
:1034900001EBC400FFF7FFFD641C002CF7D010BD4A
:1034A000A00000207047000070B512480468FCF7C7
:1034B0003DFE05462046FFF703FF042084F8340054
:1034C00004F1440000F0F4F92046FFF785FE0128DE
:1034D00005D1206F18B92046FFF723FE04E004F160
:1034E00014010548FFF7DAFD2846FCF723FEFFF735
:1034F0007DFE70BD8C0000209800002001E000F0EF
:1035000001F8FCE770B534E0FCF710FE0546FFF764
:10351000D7F930B31A480068A0F1140404F114007C
:10352000D0E900215160D0E90012116040600060D4
:1035300000BFFFF7E1FB206F10B12046216F8847E5
:103540002046FFF749FE012808D12046FFF7E9FD94
:10355000FFF7E2FB2846FCF7EDFD70BDFFF7DCFB53
:1035600003E02846FCF7E6FDF7E72846FCF7E2FD16
:1035700000BFFFF7A5F90028C6D100BFEDE70000A6
:10358000980000201FB5202007218022074BCDE99D
:103590000032CDE902100023054A06A1074800F0D9
:1035A0000FF8064800F076F81FBD00006803002001
:1035B000FD3400087469646C65000000F0020020AE
:1035C0002DE9FF5F05460C4616461F46DDE910ABA8
:1035D000DDE90E89224601212846FFF7CDFD3B4655
:1035E0003246214628468DE8000FFFF773F904B0F4
:1035F000BDE8F09F70B50446204600F0C5F80546CA
:10360000284600F025F870BD70B5044694F83400E3
:1036100000F00F00022802D04FF0FF3070BDFCF721
:1036200085FD054604F11400FFF74EFD04F144004A
:1036300000F0E2F92846FCF77DFD2046FFF718FE72
:103640000020EBE701480068704700008C00002074
:1036500031B5FCF76BFD05460D480468204600F0C7
:103660002FF86A46002104F1440000F005F904F146
:10367000440000F045F92846FCF75CFDFFF7B6FD75
:10368000206B801C08B900202063002038BD00009A
:103690008C00002010B504463434A0786070617846
:1036A000012088406060022004F834092046FFF7BA
:1036B000ABFFFFF7C7FF08B1FFF798FD002010BD73
:1036C00070B5044694F8340000F00F00012802D0D1
:1036D0004FF0FF3070BDFCF729FD054694F834002B
:1036E00020F00F0040F0020084F834002046FFF77D
:1036F000E7FD04F1440000F07FF92846FCF71AFDCD
:103700000020E7E770B5044625466FF00100286306
:1037100005F11400FFF7D8FC2846FFF7A9FDFFF7D5
:1037200065FD70BD70B5FCF701FD054614480468E1
:1037300094F8340000F00F0001281CD1D4E90510E2
:10374000814218D004F11400FFF7BEFC94F8352034
:103750000C4B03EBC20004F1140142681160426893
:103760004A604160086000BF2846FCF7E3FCFFF7B1
:103770003DFD002070BD2846FCF7DCFC0020F9E789
:103780008C000020680400200146002902DA4FF076
:10379000FF3014E04FF47A7291FBF2F24FF47A7337
:1037A00002FB03F01A4691FBF2F302FB13124FF4F3
:1037B0007A735A4302F2E73292FBF3F210447047F5
:1037C00001480068704700003000002010B50A482A
:1037D0000068401C08490860FFF734FF0446206C6D
:1037E000401E2064206C18B9E06B2064FFF79AFF3C
:1037F00000F004F810BD00003000002070B5FFF7A5
:10380000DFFF0546FCF792FC064628E019480068F1
:10381000A0F11404A06A281A6FF0004188421DD25A
:103820002046FFF7BAF8D4E907108847FFF7C8FF2A
:103830000546607A00F0020058B1607A00F001009D
:1038400038B1607A20F001006072204600F058F82C
:1038500005E0607A20F00100607200E004E00548B5
:10386000FFF72AFC0028D1D000BF3046FCF762FCED
:1038700070BD0000A0000020034649B1012904D01A
:10388000022908D0032910D10AE0586A10600CE020
:103890001068586209E0587A20F00200587204E07B
:1038A000587A40F00200587200BF00BF00207047F5
:1038B00070B50446FCF73AFC05462046FFF76DF864
:1038C0002846FCF737FC2046FFF72BFC002070BD94
:1038D0002DE9F84307460C4615461E46DDE90889E2
:1038E00022460A213846FFF747FC4346324629461E
:1038F0003846CDF80090FFF72FF8BDE8F8830000B8
:103900002DE9F8430546FCF711FC80462846FFF7F1
:1039100044F8687A20F0010068724046FCF70AFC1F
:10392000FFF74EFF696A0844A862FCF7FFFB804678
:103930002F4F009700242AE019E05DF82420116839
:10394000142202EBC402881A826AAB6AD21A00D12E
:1039500008E0826AAB6AD21A6FF000439A4200D242
:103960000CE000BF5DF8240000684DF824005DF80D
:10397000240007EBC40149688842DED100BF2CB1A6
:103980005DF824000830611C4DF82100641C002CF7
:10399000D2D018480068401C1649086008460668DE
:1039A00005F114010098FFF780FB022412E006F0F5
:1039B000030060B9C4F1010305F1140202EBC30175
:1039C000C4F101025DF82200FFF76FFB00E003E0A5
:1039D000B608641C012CEAD900BF687A40F00100E7
:1039E00068724046FCF7A6FB0020BDE8F8830000A3
:1039F000A0000020A800002070B50446607A00F006
:103A0000010010B94FF0FF3070BDFCF78FFB054689
:103A10002046FEF7C2FF2846FCF78CFB607A20F0B8
:103A2000010060720020EFE72DE9FF4F89B080466A
:103A300044460A9808EB0006464504D24FF0FF368C
:103A4000A6EB08000A906FE10B980078252806D0B5
:103A5000B44202D20B9800782070641C61E100250A
:103A600026E00B98401C0B900B9800782D2802D173
:103A700045F010051CE00B9800782B2802D145F08A
:103A8000040515E00B980078202802D145F00805C0
:103A90000EE00B980078232802D145F0200507E0BE
:103AA0000B980078302802D145F0010500E000E0D5
:103AB000D7E700BF4FF0FF370B98007830380A285F
:103AC00004D20BA800F008FA07460EE00B98007825
:103AD0002A280AD10B98401C0B900C9880C80C9097
:103AE000002F02DA7F4245F010054FF0FF390B98A6
:103AF00000782E281CD10B98401C0B900B98007856
:103B000030380A2804D20BA800F0E6F981460AE012
:103B10000B9800782A2806D10B98401C0B900C9823
:103B200050F8049B0C90B9F1000F01DA4FF0000936
:103B3000002004900B980078682803D00B98007838
:103B40006C2805D10B98007804900B98401C0B90C2
:103B50000A2005900B9800786F2875D00CDC63283C
:103B600013D004DC252870D058286FD18DE064284C
:103B70006DD06928F9D18FE070286AD0732825D0DC
:103B8000752878D07828F0D182E005F0100040B98F
:103B900004E0B44201D220202070641C781E071E6D
:103BA000F7DC0C9810F8041B0C90C8B20790B442D4
:103BB00001D207982070641C04E0B44201D2202096
:103BC0002070641C781E071EF7DCAAE00C980068C1
:103BD00006900C98001D0C90069808B95CA0069001
:103BE0000698FFF7EFFB8346B9F1000F02DDCB45E6
:103BF00000DDCB4605F0100048B904E0B44201D224
:103C000020202070641C38467F1E5845F6DC0020BA
:103C100008900BE0B44202D2069800782070641C31
:103C20000698401C06900898401C08900898584533
:103C3000F0DB04E0B44201D220202070641C38463E
:103C40007F1E5845F6DC6CE01CE015E028E022E021
:103C5000FFE7781C10B9082745F00105CDE9007988
:103C600002950C9804C8102331460C902046FEF7AC
:103C70003BFF044655E012E0B44201D225202070FB
:103C8000641C4EE0082005901DE045F0400500BF93
:103C90001020059017E000BF45F0020500BF12E0BC
:103CA000B44201D225202070641C0B98007830B1FA
:103CB000B44202D20B9800782070641C02E00B988A
:103CC000401E0B902DE000BF04986C2807D10C9883
:103CD00050F804AB0C9005F00200B8B116E004985F
:103CE00068280BD10C9830F8041B1FFA81FA0C904D
:103CF00005F0020050B10FFA8AFA07E00C9850F86C
:103D000004AB0C9005F0020000B100BFCDE90079D2
:103D10000295524631462046059BFEF7E5FE0446D5
:103D200000BF0B98401C0B900B98007800287FF484
:103D30008BAE0A9838B1B44202D20020207002E063
:103D4000002006F8010CA4EB08000DB0BDE8F08FD0
:103D5000284E554C4C290000002070470020704729
:103D6000002070470020704710B5FCF7DFF9FEF720
:103D7000F5FFFFF7CFFAFFF787FBFFF747FBFEF7EB
:103D80007FFFFFF78FFBFFF7FDFBFFF765FB0020D1
:103D900010BD00002DE9FC5F82468B4600BF00BFCE
:103DA000FEF714FA8020FEF7D1F9FEF767FAF32048
:103DB000FEF7CCF9FEF762FAFEF708FA8120FEF76B
:103DC000C5F9FEF75BFA1420FFF714FC0120FEF79B
:103DD00085F9394948700020FEF780F936490870A6
:103DE000FEF720FA34490978334A527801EB022071
:103DF000FCF7F3FB06460F4634463D462F4A304B50
:103E000020462946FCF708FB00222E4BCDE9000195
:103E1000FCF774FB80462C4A2C4BFCF7F7FA04465F
:103E20000D46CAE900450A20FFF7E4FBFEF7CEF98C
:103E30008020FEF78BF9FEF721FAE520FEF786F9E0
:103E4000FEF71CFAFEF7C2F98120FEF77FF9FEF7B4
:103E500015FA0A20FFF7CEFB0120FEF73FF91649BD
:103E600048700020FEF73AF913490870FEF7DAF9B6
:103E700011490978104A527841EA0220FCF7ADFB5B
:103E800006460F4634463D4600220E4B2046294644
:103E9000FCF734FB804600220D4BFCF7BDFA0022F4
:103EA0000C4BCDE90001FCF7B1FA04460D46204663
:103EB000CBE90045BDE8FC9FD9000020D7A3703DA9
:103EC0000AF765400000F040CDCCCCCCCC6C47402C
:103ED00000405F40000018400146002009E00B68E8
:103EE0005A1C0A601A7800EB800302EB4302A2F12D
:103EF00030000A681278303A0A2AF0D3704700007E
:103F00006C400008704000087440000878400008C9
:103F10007C40000880400008844000088840000879
:103F20008C40000890400008030406080C1018207C
:103F30003000000000000000000102030406070832
:103F4000090000000001020304000001000200015A
:103F50000003000100020001000400010002000152
:103F60000003000100020001000500010002000141
:103F70000003000100020001000400010002000132
:103F80000003000100020001000600010002000120
:103F90000003000100020001000400010002000112
:103FA0000003000100020001000500010002000101
:103FB00000030001000200010004000100020001F2
:103FC00000030001000200010007000100020001DF
:103FD00000030001000200010004000100020001D2
:103FE00000030001000200010005000100020001C1
:103FF00000030001000200010004000100020001B2
:10400000000300010002000100060001000200019F
:104010000003000100020001000400010002000191
:104020000003000100020001000500010002000180
:104030000003000100020001000400010002000171
:104040000003000100020001003031323334353604
:104050003738396162636465660030313233343534
:1040600036373839414243444546000030000000AD
:104070003100000032000000330000003400000076
:104080003500000036000000370000003800000056
:1040900039000000653D00085D3D0008593D0008FD
:1040A000613D0008C440000800000020DC00000062
:1040B000A0280008A0410008DC000020CC07000078
:1040C000B028000800000000000000000000000010
:1040D00000000000000000000000000000000000E0
:1040E00000000000000000001000000001000000BF
:1040F00068FF1F0000000000000000000100000039
:104100003C0000203C00002078000000020000007D
:104110004C0000204C0000202000000003000000A4
:104120005C0000205C00002024000000050000006E
:104130006C0000206C000020300000000A0000002D
:104140007C0000207C0000202C000000000000000B
:10415000000000000000000000000000000000005F
:10416000000000000000000000000000000000004F
:10417000000000000000000000000000000000003F
:1041800014110C1F173B3206000000000000000055
:10419000000000000000000000000000000000001F
:04000005080000F5FA
:00000001FF
