:020000040800F2
:10000000800800200901000849160008D3010008F3
:100010004516000837030008491F000800000000CB
:10002000000000000000000000000000451A000869
:100030003B030008000000005B010008471A0008AD
:100040002301000823010008230100082301000800
:1000500023010008230100082301000823010008F0
:10006000230100083D0300082301000823010008C4
:1000700023010008230100082301000823010008D0
:1000800023010008230100082301000823010008C0
:1000900023010008230100082301000823010008B0
:1000A00000000000230100082301000823010008CC
:1000B0002301000823010008230100082301000890
:1000C0002301000823010008230100082301000880
:1000D00023010008391F000823010008230100083C
:1000E0002301000823010008230100082301000860
:1000F00023010008DFF80CD000F006F900480047A3
:100100002D03000880080020064880470648004765
:10011000FEE7FEE7FEE7FEE7FEE7FEE7FEE7FEE7B7
:10012000FEE7FEE7A91B0008F5000008EFF31080CA
:1001300072B6704780F310887047334A1368012BFA
:1001400004D04FF001031360304A1060304A116050
:1001500030484FF0805101607047EFF3108272B663
:100160002948016891B14FF00001016027480168FA
:1001700029B1EFF3098121E9F00F006801602449FA
:1001800009680968B1E8F00F81F3098882F31088E3
:100190004EF0040E70471E4908601C494FF00000E5
:1001A000086019494FF0010008601B484FF47F01B7
:1001B000D0F8002041EA0201016016484FF080515A
:1001C000016016480068006880F3088861B662B66E
:1001D00070471EF0040F0CBFEFF30880EFF30980A7
:1001E00020E9F00F40F804ED1EF0040F0CBF80F37F
:1001F000088880F3098800B502F08CF95DF804EBFB
:100200004EF0040E70470000940000208C00002087
:100210009000002004ED00E020ED00E008ED00E09B
:100220002DE9F05F0546002092469B46884606462B
:10023000814640241BE0284641464746224600F0BE
:1002400053F853465A46C01A914110D311461846E6
:10025000224600F03AF82D1A67EB01084F46224675
:100260000120002100F031F817EB00094E41201E5B
:10027000A4F10104DFDC484631462A464346BDE886
:10028000F09F40EA01039B0703D009E008C9121F51
:1002900008C0042AFAD203E011F8013B00F8013B40
:1002A000521EF9D27047D2B201E000F8012B491E6C
:1002B000FBD270470022F6E710B513460A46044603
:1002C0001946FFF7F0FF204610BD202A04DB203A34
:1002D00000FA02F1002070479140C2F1200320FA99
:1002E00003F3194390407047202A04DB203A21FA97
:1002F00002F00021704721FA02F3D040C2F120023F
:100300009140084319467047064C074D06E0E068E7
:1003100040F0010394E8070098471034AC42F6D34C
:10032000FFF7ECFE9C360008BC36000810B503F061
:10033000BBF8002010BD00BFFEE7704710B50820D5
:1003400000F040F810BD704770B50446002594F8E1
:100350002100022803D00420A063012520E02068AA
:10036000006820F00E00216808602068006820F016
:1003700001002168086094F8400000F01C01012091
:100380008840E16B4860012084F8210000BF002014
:1003900084F8200000BF606B10B12046616B884775
:1003A000284670BD10B50446082C07D14101044809
:1003B00000F006F92103024800F002F910BD000028
:1003C0000000024010B5044604480068204020B1F7
:1003D000024804602046FFF7E5FF10BD1404014009
:1003E00078B50346002200240020CAE0012696408A
:1003F0000D6805EA0604002C71D04D68012D08D067
:100400004D68022D05D04D68112D02D04D68122D7A
:1004100013D1986856000325B540A8435600CD680F
:10042000B54028439860586801259540A8430D7948
:10043000C5F30015954028435860D8685600032539
:10044000B540A84356008D68B5402843D8604D6834
:10045000022D02D04D68122D13D1D60803F12005CC
:1004600055F826005507EE0E0F25B540A843560750
:10047000F60E0D69B5402843D60803F1200545F86E
:100480002600186856000325B540A8430D7905F0ED
:1004900003055600B540284318604D6805F08055A7
:1004A000B5F1805F6CD100BF394D2D6845F0010575
:1004B000374E356035462D6805F00105009500BFC3
:1004C00000BF344D960855F8260095072E0F0F25CE
:1004D000B540A843304DAB4202D1002515E04FE0B6
:1004E0002E4DAB4201D101250FE02D4DAB4201D184
:1004F00002250AE02B4DAB4201D1032505E02A4D30
:10050000AB4201D1042500E005259607360FB54022
:100510002843204D960845F82600244D2868A0431E
:100520004D6805F48035B5F5803F00D120431F4D5F
:1005300028602D1D2868A0434D6805F40035B5F5E9
:10054000003F00D12043194D2D1D28602D1D286826
:10055000A0434D6805F48015B5F5801F00D12043F8
:10056000124D083528602D1D2868A0434D6805F4FC
:100570000015B5F5001F00D120430C4D0C35286047
:10058000521C0D68D540002D7FF430AF78BD0000BF
:1005900020380240080001400000024000040240F0
:1005A00000080240000C024000100240000401401C
:1005B000024613690B400BB1012000E00020704798
:1005C00010B5426921EA020302EA010443EA044346
:1005D000836110BD0AB1816101E00B048361704742
:1005E00001480068704700000000002010B500249A
:1005F000032000F0B3F8002000F008F808B101244F
:1006000001E000F02FF8204610BD000070B5044650
:10061000002511480068D8B10F4800684FF47A717E
:10062000B1FBF0F00D490968B1FBF0F6304600F07F
:10063000AFFD58B9102C07D200222146501E00F001
:100640004FF80748046004E0012502E0012500E0BE
:100650000125284670BD0000080000200C00002085
:100660000400002008B500BF1448006840F00040B6
:10067000124908600846006800F00040009000BF82
:1006800000BF00BF081F006840F00100091F08609C
:100690000846006800F00100009000BF00BF00BFE6
:1006A000081D006840F08050091D08600846006879
:1006B00000F08050009000BF00BF08BD2438024009
:1006C00001460846002809DB00F01F0301229A407A
:1006D00043099B0003F1E023C3F8002100BF7047EA
:1006E0002DE9F05F80460D461646002701F046FCD6
:1006F000074639462A46334601F00700C0F1070A8B
:10070000BAF1040F02D94FF0040A01E0C0F1070A60
:10071000D14600F1040ABAF1070F02D24FF0000AE5
:1007200001E0A0F1030AD4464FF0010A0AFA09FADF
:10073000AAF1010A0AEA020A0AFA0CFA4FF0010BBE
:100740000BFA0CFBABF1010B0BEA030B4AEA0B04AF
:100750002146404601F01AFCBDE8F09F00BF00F0C2
:100760000702064B19684FF6FF031940044B0B4371
:1007700043EA0221014B196000BF70470CED00E015
:100780000000FA052DE9F04104460D4614B9012098
:10079000BDE8F0817E48006800F00100A84218D250
:1007A00000BF012D05D17A48006840F00400784967
:1007B00008607748006820F0010028437449086009
:1007C00000BF0846006800F00100A84201D00120E7
:1007D000DEE7207800F00200022807D16D480068AB
:1007E00020F0F000A16808436A490860207800F012
:1007F000010000287FD06068022807D165480838CA
:10080000006800F40030F8B90120C1E760680328EF
:1008100007D160480838006800F00070A0B90120D6
:10082000B6E76068012807D15A480838006800F028
:10083000020048B90120ABE756480838006800F4C8
:10084000007008B90120A3E75248006820F00300B7
:10085000616808434F490860FFF7C2FE06466068BA
:10086000022810D108E0FFF7BBFE801B41F288315F
:10087000884201D903208BE74648006800F00C004D
:100880000828F0D137E06068032810D108E0FFF7AE
:10089000A7FE801B41F28831884201D9032077E707
:1008A0003C48006800F00C000C28F0D123E06068A0
:1008B000012810D108E0FFF793FE801B41F2883138
:1008C000884201D9032063E73248006800F00C0039
:1008D0000428F0D10FE008E0FFF782FE801B41F210
:1008E0008831884201D9032052E72A48006800F085
:1008F0000C000028F0D12648006800F00100A84252
:1009000018D900BF012D05D12148006840F004002E
:100910001F4908601E48006820F0010028431C4958
:10092000086000BF0846006800F00100A84201D03E
:1009300001202DE7207800F00400042807D1154895
:10094000006820F4E060E1680843124908602078FC
:1009500000F00800082808D10E48006820F4605014
:10096000216940EAC1000B49086000F041F80949DB
:100970000968C1F30311084A515CC840074908607F
:1009800007480068FFF742FE0746384600E70000C8
:10099000003C024008380240293500080C000020C5
:1009A0000400002001480068704700000C0000208F
:1009B00000B5FFF7F7FF04490968C1F30221034AB4
:1009C000515CC84000BD00000838024039350008BD
:1009D00000B5FFF7E7FF04490968C1F3C221034AE4
:1009E000515CC84000BD000008380240393500089D
:1009F0002DE9F05F2248D0F8009009F00C0070B3A8
:100A0000042804D0082804D00C2829D103E01D4D67
:100A100032E01D4D30E01D48C9F3834110F801A0BC
:100A2000C9F38150441C1648006800F4803050B16E
:100A30001548A0FB0A700146224600233846FFF7FE
:100A4000EFFB064609E00F48A0FB0A70014622466C
:100A500000233846FFF7E4FB064635460CE000E08D
:100A600000BF0748001F0068C0F3423B0BF10100C4
:100A700001218140CD0300BF00BF2846BDE8F09FA3
:100A8000083802400024F40000127A0020350008E3
:100A90002DE9F843044614B90120BDE8F883FE4867
:100AA000006800F00C06FC48006800F480372078ED
:100AB00000F00100002875D0082E04D00C2E0ED1B5
:100AC000B7F5803F0BD1F4480838006800F40030D7
:100AD000002867D06068002864D10120DDE700BFEE
:100AE0006068012808D1EC480838006840F480307C
:100AF000E949083908602DE0606868B9E6480838B7
:100B0000006820F48030E44908390860084600682D
:100B100020F4802008601DE0606805280DD1DE48C3
:100B20000838006840F48020DB490839086008462E
:100B3000006840F4803008600CE0D748083800684E
:100B400020F48030D449083908600846006820F451
:100B50008020086000BF606890B1FFF741FD054646
:100B600006E0FFF73DFD401B642801D9032094E710
:100B7000C9480838006800F400300028F1D011E0BE
:100B8000FFF72EFD054606E0FFF72AFD401B64280F
:100B900001D9032081E7C0480838006800F400301C
:100BA0000028F1D1207800F00200022853D1042E51
:100BB00002D00C2E17D1B7B9B7480838006800F03A
:100BC000020020B1E068012801D0012065E7B248A9
:100BD000001F006820F4F850216940EA0120AE4966
:100BE000091F086037E0E06800B30120AB490860E6
:100BF000FFF7F6FC054606E0FFF7F2FC401B022873
:100C000001D9032049E7A4480838006800F0020031
:100C10000028F1D0A048001F006820F4F850216996
:100C200040EA01209C49091F086014E000209B490C
:100C30000860FFF7D5FC054606E0FFF7D1FC401B36
:100C4000022801D9032028E793480838006800F0FB
:100C500002000028F1D1207800F01000102871D196
:100C6000F6BB8D480838006800F4007018B1A06920
:100C700008B9012011E78849091F206A096801F4B1
:100C80006041884219D9206A00F04EFE08B1012067
:100C900003E78148001F006820F46040216A084390
:100CA0007D49091F0860217F7B48001F006861F3B0
:100CB0001F607949091F08601AE07748001F006823
:100CC00020F46040216A08437349091F0860217FAE
:100CD0007148001F006861F31F606F49091F00E041
:100CE00020E00860206A00F01FFE08B10120D4E671
:100CF0000121206A01EB503101208840C003664980
:100D00000968C1F30311664A515CC840654908602F
:100D100065480068FFF77AFC8046B8F1000F42D0C2
:100D20004046BAE6A06948B301205C490862FFF773
:100D300057FC054607E0FFF753FC401B022802D989
:100D40000320AAE62FE054480838006800F4007039
:100D50000028F0D05048001F006820F46040216A4D
:100D600008434D49091F0860217F4B48001F006858
:100D700061F31F604849091F086014E000204749DB
:100D80000862FFF72DFC054606E0FFF729FC401B33
:100D9000022801D9032080E63F480838006800F4A3
:100DA00000700028F1D1207800F0080008282CD12C
:100DB0006069A8B101203D490860FFF711FC0546B4
:100DC00006E0FFF70DFC401B022801D9032064E672
:100DD00031482C30006800F002000028F1D014E007
:100DE000002032490860FFF7FBFB054606E0FFF7ED
:100DF000F7FB401B022801D903204EE626482C3081
:100E0000006800F002000028F1D1207800F0040012
:100E100004286ED14FF000091F481C30006800F014
:100E2000805088B900BF1C481C30006840F08050DA
:100E300019491C3108600846006800F08050009095
:100E400000BF00BF4FF001091948006800F480702E
:100E5000B0B91748006840F4807015490860FFF782
:100E6000BFFB054606E0FFF7BBFB401B642801D92A
:100E7000032012E60E48006800F480700028F2D0CB
:100E800000BFA068012817D103482C30006840F447
:100E9000807001492C310DE00838024000004742C3
:100EA000293500080C00002004000020800647427D
:100EB00000700040086028E0A06858B966480068E3
:100EC00020F48070644908600846006820F480605F
:100ED00008601AE0A06805280CD15F48006840F45B
:100EE00080605D4908600846006840F480700860D2
:100EF0000BE040E05848006820F4807056490860D4
:100F00000846006820F48060086000BFA06898B1BF
:100F1000FFF766FB054608E0FFF762FB401B41F266
:100F20008831884201D90320B7E54B48006800F4B6
:100F300000700028F0D012E0FFF752FB054608E0F1
:100F4000FFF74EFB401B41F28831884201D9032054
:100F5000A3E54148006800F400700028F0D1B9F121
:100F6000010F07D13C481038006820F080503A4902
:100F70001039086000BF606AA8B30C2E52D0606AB6
:100F8000022839D1002035490866FFF729FB0546BC
:100F900006E0FFF725FB401B022801D903207CE572
:100FA0002D483438006800F000700028F1D1D4E9F1
:100FB0000A010843216B084327492C39096821F4A9
:100FC0007D01084324492C39086001202349086623
:100FD000FFF706FB054607E0FFF702FB401B022870
:100FE00002D9032059E535E01B483438006800F089
:100FF00000700028F0D02DE0002018490866FFF7A7
:10100000EFFA054606E0FFF7EBFA401B022801D98C
:10101000032042E510483438006800F000700028D2
:10102000F1D117E0606A012800D136E50A482C3872
:10103000076807F48031A06A814209D107F4701172
:10104000E06A814204D107F44001206B814201D063
:10105000012022E5002020E534380240000047420C
:1010600010B504460CB9012010BD606A38B960683B
:10107000B0F5827F00D105E00021E16102E00021AE
:10108000216161610021A16294F8510028B900201A
:1010900084F85000204600F03DF8022084F851000A
:1010A0002068006820F0400021680860A08800F4F3
:1010B0008270218901F404410843A18901F400618F
:1010C0000843217C01F002010843217D01F0010168
:1010D0000843218B01F400710843217F01F038019E
:1010E00008432021095D01F080010843218D01F4AE
:1010F00000510843216808600421A06901EA1040FA
:101100002168486000206065012084F851000020BB
:10111000AAE7000010B586B00446142101A8FFF725
:10112000C9F818492068884229D100BF16480068CC
:1011300040F48050144908600846006800F480506C
:10114000009000BF00BF00BF081F006840F0010012
:10115000091F08600846006800F00100009000BF09
:1011600000BFA020019002200290002003900320E5
:1011700004900520059001A90448FFF731F906B055
:1011800010BD000000300140203802400000024045
:1011900070B504462546681EB0F1807F01D301205A
:1011A0000FE0681E4FF0E02148610F214FF0FF3043
:1011B00000F0ECFE00204FF0E0218861072008617C
:1011C000002070BD704700002DE9F04704462068FC
:1011D00005682068C668206847694FF00008C14666
:1011E00005F00F08B8F1000F0AD105F0200038B162
:1011F00006F0200020B1204600F008FDBDE8F08791
:10120000B8F1000F72D007F0010018B906F4907021
:1012100000286BD005F0010030B106F4807018B1E1
:10122000E06B40F00100E06305F0040030B107F02E
:10123000010018B1E06B40F00200E06305F002002D
:1012400030B107F0010018B1E06B40F00400E0633A
:1012500005F0080048B106F0200010B907F00100C1
:1012600018B1E06B40F00800E063E06B70B305F08C
:10127000200028B106F0200010B1204600F0C6FC86
:1012800020684069C0F38019E06B00F0080010B9D5
:10129000B9F1000F23D0204600F098FC2068406987
:1012A00000F04000402816D12068406920F040003E
:1012B00021684861606B50B11748616B4863606B8F
:1012C000FFF742F810B1606B416B88470CE0204695
:1012D000FFF778FF08E02046FFF774FF04E02046A0
:1012E000FFF770FF0020E06388E7FFE705F080006C
:1012F00030B106F0800018B1204600F0B3FD7DE764
:1013000005F0400030B106F0400018B1204600F072
:101310006DFC73E700BF71E7B91B000810B5044608
:101320000CB9012010BDA06900B100E000BF94F825
:10133000390028B9002084F83800204600F028F849
:10134000242084F839002068C06820F40050216807
:10135000C860204600F0AEFC2068006920F4904090
:10136000216808612068406920F02A0021684861EE
:101370002068C06840F400502168C8600020E06325
:10138000202084F8390084F83A000020CAE70000E1
:1013900010B586B00446142101A8FEF78BFF1C4946
:1013A0002068884232D100BF1A48006840F480406B
:1013B000184908600846006800F48040009000BFAB
:1013C00000BF00BF081F006840F00100091F08604F
:1013D0000846006800F00100009000BF00BF4FF415
:1013E000C06001900220029000200390032004902E
:1013F0000720059001A90848FEF7F2FF00221146D8
:101400002520FFF76DF92520FFF75AF906B010BD2A
:1014100000380140203802400000024070472DE9AA
:10142000F84304460D4616461F464FF0000994F84F
:10143000390020285DD105B116B90120BDE8F88337
:1014400000BF94F83800012801D10220F6E70120FE
:1014500084F8380000BF0020E063212084F83900C0
:10146000FFF7BEF88146A684E68400BF002084F81A
:10147000380000BF2BE0E08C401EE084A068B0F58F
:10148000805F16D14B46002280212046009700F055
:101490001DFD08B10320D1E7A846B8F80000C0F34D
:1014A000080021684860206908B9AD1C0FE06D1C78
:1014B0000DE04B46002280212046009700F006FDFB
:1014C00008B10320BAE715F8010B21684860E08CE9
:1014D0000028D0D14B46002240212046009700F042
:1014E000F5FC08B10320A9E7202084F8390000208A
:1014F000A4E70220A2E7704700B587B0142102A834
:10150000FEF7D8FE00BF2B48006840F020002949B4
:1015100008600846006800F02000019000BF00BF8E
:1015200000BF0846006840F00100086008460068F7
:1015300000F00100019000BF00BF00BF0846006836
:1015400040F0020008600846006800F002000190C8
:1015500000BF00BF00224FF401411748FFF73AF8DF
:1015600001224FF490711548FFF734F84FF4014011
:1015700002900120039004900220059002A90E48D9
:10158000FEF72EFF4FF4907002900120039004901C
:101590000220059002A90948FEF722FF10200290C0
:1015A000002003900120049002A90448FEF718FFD0
:1015B00007B000BD1C380240000002400004024099
:1015C00010B51048104908604FF4827048604FF41D
:1015D00000410D4881600021C160022101610121AB
:1015E0004161490281611821C161002101624162AA
:1015F00081620A21C162FFF733FD08B1FEF7A3FE45
:1016000010BD000000300140B800002010B50B48AC
:101610000B4908604FF4E1304860002108488160C0
:10162000C16001610C21416100218161C161FFF74D
:1016300075FE08B1FEF787FE10BD000000380140BE
:101640001001002000BFFEE77047000000B587B022
:1016500000BF1348006840F00200114908600846C6
:10166000006800F00200019000BF00BF029840F047
:10167000C00002900120039004900220059002A96E
:101680000848FEF7ADFE012240210648FEF7A2FF02
:10169000012280210348FEF79DFF07B000BD000036
:1016A0001C3802400004024070B5044600BF1D48CB
:1016B000006820F440401B4908600846006840F478
:1016C0008040086000BF002240211648FEF782FFDC
:1016D000002523E0E00928B1012280211148FEF70E
:1016E00079FF04E0002280210E48FEF773FF6006B8
:1016F000040E012001F01EFB012240210948FEF7E3
:1017000069FF012001F016FB002240210548FEF789
:1017100061FF012001F00EFB681CC5B2082DD9DB6A
:1017200070BD00000004024010B500BF13480068FF
:1017300020F44040114908600846006840F48040A9
:10174000086000BF012240210C48FEF743FF012240
:1017500080210A48FEF73EFF012001F0EBFA00224B
:1017600080210648FEF736FF012001F0E3FA00224F
:1017700040210248FEF72EFF10BD00000004024089
:1017800010B500BF1348006820F4404011490860BC
:101790000846006840F48040086000BF00224021F5
:1017A0000C48FEF717FF002280210A48FEF712FFBF
:1017B000012001F0BFFA012240210648FEF70AFF8E
:1017C000012280210348FEF705FF012001F0B2FA53
:1017D00010BD00000004024010B5002400BF1848EE
:1017E000006820F440401649086008460068086018
:1017F00000BF012280211248FEF7ECFE012001F01B
:1018000099FA012240210E48FEF7E4FE012001F082
:1018100091FA07E0601CC4B2FA2C03DDFFF7B0FFB9
:10182000012010BD80210648FEF7C2FE0028F1D13C
:10183000002240210248FEF7CDFE0020F1E7000023
:101840000004024010B51121012000F009F88221A6
:101850000E2000F005F83C210F2000F001F810BD2B
:1018600070B505460C46FFF75FFFA220FFF71CFF8F
:10187000FFF7B2FF2846FFF717FFFFF7ADFF20463F
:10188000FFF712FFFFF7A8FFFFF77AFF012001F033
:1018900051FA70BD70B5002414E02148005D0A21A2
:1018A00090FBF1F0C5B21E48005D90FBF1F201FB28
:1018B00012001C4908550846005D00EB051008554C
:1018C000601CC4B2082CE8DB20210020FFF7C8FF11
:1018D000144841780820FFF7C3FF12488178072099
:1018E000FFF7BEFF0F48C1780520FFF7B9FF0D488D
:1018F00001790420FFF7B4FF0A4841790320FFF77C
:10190000AFFF084881790220FFF7AAFF0548C17997
:101910000620FFF7A5FF00210846FFF7A1FF70BDD5
:101920009C000020A400002018B503460022254892
:10193000006800F0F00050BB22481C30006800F046
:10194000805020B12048006800F4C05118E000BF6A
:101950001C481C30006840F080501A4C1C34206039
:101960002046006800F08050009000BF00BF16487D
:10197000006800F4C0512046006820F080502060CC
:10198000B1F5C05F03D1B3F5404F00D1012200BFD4
:10199000012A05D10D48006840F004000B4C20607E
:1019A0000A48006820F001001043084C206000BF86
:1019B0002046006800F00100904201D0012018BDCF
:1019C0000020FCE70838024000700040003C024064
:1019D00000B587B000BF1948006840F00200174901
:1019E00008600846006800F00200019000BF00BFD8
:1019F000029840F0800002900120039004900220A1
:101A0000059002A90E48FEF7EBFC029840F040005A
:101A100002900120039004900220059002A908483A
:101A2000FEF7DEFC012240210548FEF7D3FD01222E
:101A300080210348FEF7CEFD07B000BD1C380240F0
:101A400000040240704710B500F08AFE01F05EFA13
:101A500000F096FE10BD000000B593B0342106A83A
:101A6000FEF728FC142101A8FEF724FC16480068A4
:101A700020F4C05040F40060134908600220069032
:101A80000120099010200A9002200F90002110914F
:101A9000410411914105129106A8FEF7F9FF08B122
:101AA000FEF751FC0F2001900320029000200390CC
:101AB00004900590012101A8FEF764FE08B1FEF72D
:101AC00042FC13B000BD00000070004070B5002261
:101AD00000200021002400232D4D2D6805F00C026C
:101AE00032B1042A10D0082A12D00C2A36D113E0C1
:101AF000274D2D1F2D68C5F342335D1C0126AE40D6
:101B0000F503244E356035E0234D224E356031E03B
:101B1000224D204E35602DE01D4D2D6805F47010CE
:101B20001B4D2D6805F440011D4D05EB90452878AF
:101B3000012505EB9151164D2D6805F4803434B91B
:101B4000154D4543B5FBF1F5124E356005E0134DDB
:101B50004543B5FBF1F50F4E35600BE00C4D2D1FE5
:101B60002D68C5F342335D1C0126AE40F503094ED6
:101B7000356000BF00BF064D2D68C5F30315094E43
:101B8000725D044D2D68D540024E356070BD000079
:101B9000083802400C0000200024F40000127A00F3
:101BA00020350008293500084FF000600149086021
:101BB0007047000008ED00E070B505466C6A002033
:101BC000E085E0842046FFF7FDFA70BD0168C96832
:101BD00021F490710268D1600168496921F0010126
:101BE00002685161202180F83A10704710B5044610
:101BF0002068C06820F040002168C860202084F878
:101C000039002046FFF777FC002010BD70B5044670
:101C100094F83A0022284AD1A068B0F5805F13D129
:101C2000A56A206940B920684068C0F30800288090
:101C3000A06A801CA06219E020684068C0B22880B9
:101C4000A06A401CA06211E0206938B92068406891
:101C5000C1B2A26A501CA062117007E020684068FF
:101C600000F07F01A26A501CA0621170E08D401E3E
:101C700080B2E085C8B92068C06820F020002168E3
:101C8000C8602068C06820F480702168C86020683F
:101C9000406920F0010021684861202084F83A0062
:101CA0002046FFF7BBFB002070BD0020FCE70220B0
:101CB000FAE7000070B504462168096921F4405133
:101CC000E2681143226811612269A16811436269C7
:101CD0001143E26941EA02052168C96849F20C62D0
:101CE000914329432268D1602168496921F44071F8
:101CF000A269114322685161594A2168914202D177
:101D0000FEF766FE01E0FEF753FEE169B1F5004F14
:101D100053D100EBC00101EB001162685200B1FB2E
:101D2000F2F16422B1FBF2F10A0100EBC00101EB18
:101D3000001163685B00B1FBF3F100EBC00303EB40
:101D4000001366687600B3FBF6F36426B3FBF6F384
:101D500003EBC30606EB0313A1EB8301322303EB72
:101D6000C1016423B1FBF3F101F0F80102EB410280
:101D700000EBC00101EB001163685B00B1FBF3F104
:101D800000EBC00303EB001366687600B3FBF6F3C9
:101D90006426B3FBF6F303EBC30606EB0313A1EBD8
:101DA0008301322303EBC1016423B1FBF3F101F0A2
:101DB000070111442268916051E000EBC00101EB82
:101DC000001162689200B1FBF2F100EBC00202EB7D
:101DD000001263689B00B2FBF3F26423B2FBF3F2E0
:101DE00002EBC20303EB0212A1EB8201322202EBEF
:101DF00001116422B1FBF2F101F0F00100EBC0022D
:101E000002EB001263689B00B2FBF3F26423B2FBA7
:101E1000F3F201EB021200EBC00101EB0011636869
:101E20009B00B1FBF3F100EBC00303EB001366680A
:101E3000B600B3FBF6F36426B3FBF6F303EBC3067D
:101E400006EB0313A1EB8301322303EB011164239F
:101E5000B1FBF3F101F00F0111442268916070BDF4
:101E600000380140014691F8390021282CD18868BA
:101E7000B0F5805F0FD10A6A1088C0F308000B68C4
:101E80005860086918B9086A801C086209E0086A85
:101E9000401C086205E00B6A581C086218780B6841
:101EA0005860C88C401E80B2C88458B90868C068A1
:101EB00020F080000B68D8600868C06840F04000DF
:101EC0000B68D860002070470220FCE72DE9F04144
:101ED00004460D4617469846069E21E0701CF8B150
:101EE0002EB1FEF77DFBA0EB0800B04218D92068A8
:101EF000C06820F4D0702168C8602068406920F074
:101F0000010021684861202084F8390084F83A00F3
:101F100000BF002084F8380000BF0320BDE8F08136
:101F2000206800682840A84201D1012000E000207C
:101F3000B842D3D00020F1E710B50248FFF744F9CA
:101F400010BD00001001002000BFFEE70146481E42
:101F5000B0F1807F01D301207047481E4FF0E0228E
:101F60005061FF20044A107000204FF0E022906181
:101F7000072010610020EFE723ED00E00248006831
:101F8000C0F30220704700000CED00E010B50028FF
:101F900004DB0A07130E054A135406E00A07140E61
:101FA000034A00F00F031B1FD45410BD00E400E0EF
:101FB00018ED00E0014609B900207047C8B220B111
:101FC000C8B20E4A105C401CF7E701F47F4028B10C
:101FD0000A48C1F30722805C0930EEE701F47F0074
:101FE00028B10648C1F30742805C1130E5E7034899
:101FF00000EB116000781930DFE700004135000880
:1020000002E008C8121F08C1002AFAD170477047C1
:10201000002001E001C1121F002AFBD1704700001F
:1020200003490868884201D0012070470020FCE77E
:10203000780000202DE9FC5F04468B4615461E46BD
:10204000DDE90C9ADDE90E7804F1140040600060CF
:1020500000BF1C346560A660C4F80C90C4F810A0E2
:102060002321D4E9030200F0D8FBD4E9033C634404
:102070001A1F0F4BD4E9010100F04CFB2060A7763A
:1020800067760020E061C4F82080C4F82480606195
:1020900020766065A0651C3C00902346054A2146D9
:1020A000019004F1440000F0B3FF0020BDE8FC9F64
:1020B000E92B0008452E00082DE9F04704460E469E
:1020C00017469846DDF8209084F80990607A20F051
:1020D00001006072E66127620020A062C4F82480DB
:1020E000002506E004F1140101EBC50000F073FBCC
:1020F0006D1C012DF6DBBDE8F08710B5024600200F
:1021000001460EE002F1140303EBC100D0E90043E5
:102110006360D0E9003423604060006000BF481C69
:1021200001460129EEDB10BD00B587B0142102A8DD
:10213000FEF7C0F800BF1448006840F002001249E2
:1021400008600846006800F00200019000BF00BF70
:10215000002208210D48FEF73DFA082002900C48A5
:102160000390012004900220059002A90748FEF781
:1021700037F9022211460920FEF7B2FA0920FEF7CC
:102180009FFA07B000BD00001C3802400004024066
:10219000000021108CB018A103C9CDE90A01282242
:1021A00017496846FEF76DF8FEF720FAFFF754FC72
:1021B000FFF7A2F9FFF704FAFFF748FAFFF742FB2F
:1021C000FFF706FCFFF722FAFFF764FBFFF7ACFF0F
:1021D0000CA000F0E5FA0DE04FF400410D48FEF7C9
:1021E000EFF94FF480710B48FEF7EAF94FF47A707B
:1021F00000F0A0FDF0E7000030303A303000000081
:10220000F8340008496E69742046696E7368210AC3
:10221000000000000000024010B5044600F0FEF887
:10222000FFF7B8FF10BD00002DE9F04F86B00D4656
:102230009C46DDE9106401960F9B04F04008B8F15C
:10224000000F02D0DFF8708101E0DFF87081CDF877
:10225000008004F01008B8F1000F01D024F0010450
:1022600004F00108B8F1000F02D04FF0300801E08F
:102270004FF02008C246002704F00208B8F1000F12
:1022800011D0002A02DA2D2752420CE004F0040893
:10229000B8F1000F01D02B2705E004F00808B8F1D1
:1022A000000F00D02027002142B94FF0300B8846A4
:1022B000491C0DF1080909F808B01DE01AE0E146D3
:1022C000B9F10A0F08D14FF00A0BB2FBFBFE0BFB72
:1022D0001E28B2FBFBF202E002F00F08120900BF59
:1022E000DDF8009019F808B08846491C0DF108097E
:1022F00009F808B0002AE2D1B14200DD0E469B1B6E
:1023000004F01108B8F1000F10D117B1002B00DD57
:102310005B1E06E0A84203D24FF0200880F8008040
:10232000401CB3F10008A3F10103F3DC27B1A8427C
:1023300000D207705B1E401C04F01008B8F1000FBB
:102340000AD104E0A84201D280F800A0401CB3F1F9
:102350000008A3F10103F5DC06E0A84203D24FF028
:10236000300880F80080401CB046761E8845F4DCBA
:1023700008E0A84205D20DF1080818F8018080F89D
:102380000080401CB1F10008A1F1010104DDDDF87D
:102390000480B8F1000FECD106E0A84203D24FF060
:1023A000200880F80080401CB3F10008A3F101036D
:1023B000F3DC06B0BDE8F08F523600084136000865
:1023C0007FB50A4C14200221CA01094BCDE9003225
:1023D000CDE902100023074A07A1204600F090FC37
:1023E0000546204600F0F6FC7FBD000050020020AC
:1023F00050010020192200086D61696E0000000084
:1024000010B5044C02E020688047241D0248844235
:10241000F9D310BD903600089436000810B5044C6E
:1024200002E020688047241D02488442F9D310BD91
:10243000943600089836000810B5FDF777FE04467C
:1024400004480088401C00B2024908802046FDF77D
:1024500071FE10BD6800002010B5FDF767FE044650
:102460000C480088401E00B20A4908800846B0F9AE
:10247000000000280ADC002008802046FDF75AFEF4
:102480000548006828B100F051FA02E02046FDF747
:1024900051FE10BD680000206C00002010B5FFF751
:1024A00015FB074800684FF47A71B0FBF1F4204641
:1024B000FFF74CFDFFF7A4FFFFF7A8F810BD0000E1
:1024C0000C000020F8B50546002400260D200090E1
:1024D00000BF00200E4981F8380000BF284600F0F8
:1024E00011FB064600BF0FE0285D0A2805D1012335
:1024F0001A4669460648FEF792FF291901231A4633
:102500000348FEF78CFF641CB442EDD3F8BD000015
:102510001001002070B505462C1D2E48006838B10A
:1025200028462C4909688847064606B970BD00BF91
:1025300029A0E16B00F034F92BA0216A00F030F9FA
:102540002DA0616A00F02CF92FA0A16A00F028F9F3
:1025500031A0E16A00F024F933A0216800F020F9ED
:1025600035A0616800F01CF937A0A16800F018F9E7
:1025700039A0E16800F014F93BA0216900F010F9DE
:102580003DA0616900F00CF93FA0A16900F008F9D5
:1025900041A0E16900F004F943A0216B00F000F9CB
:1025A00045A0616B00F0FCF847A0A16B00F0F8F8C3
:1025B000287800F0040038B100F0E4FB064631460C
:1025C00045A000F0EDF802E04BA000F0E9F800BFF4
:1025D000FEE70000980000207073723A20307825E2
:1025E0003038780A000000007230303A2030782508
:1025F0003038780A000000007230313A20307825F7
:102600003038780A000000007230323A20307825E5
:102610003038780A000000007230333A20307825D4
:102620003038780A000000007230343A20307825C3
:102630003038780A000000007230353A20307825B2
:102640003038780A000000007230363A20307825A1
:102650003038780A000000007230373A2030782590
:102660003038780A000000007230383A203078257F
:102670003038780A000000007230393A203078256E
:102680003038780A000000007231303A2030782566
:102690003038780A000000007231313A2030782555
:1026A0003038780A000000007231323A2030782544
:1026B0003038780A00000000206C723A203078250B
:1026C0003038780A000000002070633A2030782506
:1026D0003038780A00000000686172642066617515
:1026E0006C74206F6E207468726561643A20257383
:1026F0000D0A0D0A000000006861726420666175B1
:102700006C74206F6E2068616E646C65720D0A0DCA
:102710000A000000F0B504460D461646301D20F0B4
:10272000070040380146002203E00C4F41F82270B8
:10273000521C102AF9D30D624FF0000CC1F824C0CE
:10274000C1F828C0C1F82CC0C1F830C04B638C63FD
:102750004FF0807CC1F83CC0F0BD0000EFBEADDEA4
:1027600010B5FDF7E3FC044604480078401C03491B
:1027700008702046FDF7DEFC10BD000014000020AC
:1027800010B5FDF7D3FC044604480078401E034909
:1027900008702046FDF7CEFC10BD0000140000209C
:1027A0000FB438B505A800907F210848009B049A13
:1027B00000F0DAFC04467F2C00D97F240348FFF7A1
:1027C00081FE0020009038BC5DF814FBC00300209F
:1027D0004060006070474060006070470268516070
:1027E00002680A60016048607047026851600268D0
:1027F0000A6001604860704701460868884201D15C
:10280000012070470020FCE7D0E900215160D0E9A9
:1028100000121160406000607047F0B50C4605463C
:10282000E6B2042A15D300F0030797B9014646EA39
:10283000062343EA034304E008C108C108C108C1F4
:10284000103A102AF8D201E008C1121F042AFBD264
:102850000D4601E005F8016B171EA2F10102F9D146
:10286000F0BD70B5044600202072FDF75FFC054600
:1028700004F10C00D0E900215160D0E90012116090
:102880004060006000BF2846FDF754FC70BD0000AA
:10289000024600210AE0074800EB01100078904250
:1028A00003D1044800EB01107047491C0529F2DBF5
:1028B0000020F9E7180000202DE9F04704460D46F6
:1028C000904600262846FFF7E3FF0746FFF7B4FDD2
:1028D0007E6802E0A6F10C003668381D8642F9D108
:1028E000FFF7BAFD45F080002072082241462046DD
:1028F00000F011F9FDF71AFC8146381D04F10C01B6
:102900000268516002680A600160486000BF484682
:10291000FDF710FCBDE8F0870146087A00F0800062
:1029200008B1012070470020FCE700002DE9F041CC
:10293000FDF7FCFB07461848008838BB17480068BD
:10294000FFF738FB461E164850F83600A0F1140475
:1029500014480068844218D013490E701148056865
:1029600004601248007850B904F11C0105F11C0004
:10297000FDF7E3FB3846FDF7DDFBBDE8F08104F130
:102980001C0105F11C00FDF7D8FB00BF3846FDF720
:10299000D1FB00BFF1E700006800002074000020B8
:1029A000400400206C000020700000201400002073
:1029B00070B50446FDF7BAFB054614F8340F20F055
:1029C0000F0040F0010020706278343C0A4B03EBAA
:1029D000C20004F114014268116042684A6041601B
:1029E000086000BF0549A06B0968084303490860F7
:1029F0002846FDF79FFB70BD4004002074000020B6
:102A000070B50446FDF792FB054604F11400D0E9C9
:102A100000215160D0E9001211604060006000BFE9
:102A200094F83510094A02EBC1000168814201D1D6
:102A3000012100E0002129B10548A16B006888430D
:102A4000034908602846FDF775FB70BD400400206F
:102A50007400002008B509A0FFF7A2FE0AA0FFF746
:102A60009FFE12A0032301221946009012A0FFF737
:102A700097FE19A0FFF794FE08BD00000A205C2015
:102A80007C202F0A000000002D205254202D2020F1
:102A9000202020546872656164204F7065726174F3
:102AA000696E672053797374656D0A004E6F7620E6
:102AB0003137203230323000202F207C205C202023
:102AC00020202025642E25642E2564206275696CE3
:102AD000642025730A0000002032303036202D207B
:102AE0003230313920436F707972696768742062BF
:102AF000792072742D746872656164207465616DEB
:102B00000A00000001460A4600E0521C1078002826
:102B1000FBD1501A704770B50346A2B118460C4657
:102B200000BF14F8016B00F8016B3EB902E000250C
:102B300000F8015B551E2A1EF9D102E0551E2A1E1F
:102B4000EFD100BF00BF184670BD000010B50020D7
:102B50000B490880002405E00A4901EBC400FFF797
:102B600037FE641C082CF7DB07200749087000209B
:102B700006490860064908600648FFF729FE10BDAF
:102B80006800002040040020700000206C0000203D
:102B9000740000207800002070B508480068FFF736
:102BA00009FA451E064850F83500A0F114040548FE
:102BB000046004F11C00FDF7EEFA70BD7400002003
:102BC000400400206C00002010B5002405E00449FA
:102BD00001EBC400FFF7FFFD641C002CF7D010BD13
:102BE000800000207047000070B512480468FDF7AF
:102BF0009DFA05462046FFF703FF042084F83400C1
:102C000004F1440000F0F4F92046FFF785FE0128A6
:102C100005D1206F18B92046FFF723FE04E004F128
:102C200014010548FFF7DAFD2846FDF783FAFFF7A0
:102C30007DFE70BD6C0000207800002001E000F0F7
:102C400001F8FCE770B534E0FDF770FA0546FFF7D0
:102C5000E7F930B31A480068A0F1140404F1140035
:102C6000D0E900215160D0E900121160406000609D
:102C700000BFFFF7E1FB206F10B12046216F8847AE
:102C80002046FFF749FE012808D12046FFF7E9FD5D
:102C9000FFF7E2FB2846FDF74DFA70BDFFF7DCFBBE
:102CA00003E02846FDF746FAF7E72846FDF742FA23
:102CB00000BFFFF7B5F90028C6D100BFEDE700005F
:102CC000780000201FB5202007218022074BCDE986
:102CD0000032CDE902100023054A06A1074800F0A2
:102CE0000FF8064800F076F81FBD000040030020F2
:102CF0003D2C00087469646C65000000C802002067
:102D00002DE9FF5F05460C4616461F46DDE910AB70
:102D1000DDE90E89224601212846FFF7CDFD3B461D
:102D20003246214628468DE8000FFFF783F904B0AC
:102D3000BDE8F09F70B50446204600F0C5F8054692
:102D4000284600F025F870BD70B5044694F83400AC
:102D500000F00F00022802D04FF0FF3070BDFDF7E9
:102D6000E5F9054604F11400FFF74EFD04F14400B7
:102D700000F0E2F92846FDF7DDF92046FFF718FEDE
:102D80000020EBE701480068704700006C0000205D
:102D900031B5FDF7CBF905460D480468204600F033
:102DA0002FF86A46002104F1440000F005F904F10F
:102DB000440000F045F92846FDF7BCF9FFF7B6FDE1
:102DC000206B801C08B900202063002038BD000063
:102DD0006C00002010B504463434A078607061782F
:102DE000012088406060022004F834092046FFF783
:102DF000ABFFFFF7C7FF08B1FFF798FD002010BD3C
:102E000070B5044694F8340000F00F00012802D099
:102E10004FF0FF3070BDFDF789F9054694F8340096
:102E200020F00F0040F0020084F834002046FFF745
:102E3000E7FD04F1440000F07FF92846FDF77AF938
:102E40000020E7E770B5044625466FF001002863CF
:102E500005F11400FFF7D8FC2846FFF7A9FDFFF79E
:102E600065FD70BD70B5FDF761F90546144804684D
:102E700094F8340000F00F0001281CD1D4E90510AB
:102E8000814218D004F11400FFF7BEFC94F83520FD
:102E90000C4B03EBC20004F114014268116042685C
:102EA0004A604160086000BF2846FDF743F9FFF71C
:102EB0003DFD002070BD2846FDF73CF90020F9E7F4
:102EC0006C000020400400200146002902DA4FF087
:102ED000FF3014E04FF47A7291FBF2F24FF47A7300
:102EE00002FB03F01A4691FBF2F302FB13124FF4BC
:102EF0007A735A4302F2E73292FBF3F210447047BE
:102F000001480068704700001000002010B50A4812
:102F10000068401C08490860FFF734FF0446206C35
:102F2000401E2064206C18B9E06B2064FFF79AFF04
:102F300000F004F810BD00001000002070B5FFF78D
:102F4000DFFF0546FDF7F2F8064628E0194800685D
:102F5000A0F11404A06A281A6FF0004188421DD223
:102F60002046FFF7CAF8D4E907108847FFF7C8FFE3
:102F70000546607A00F0020058B1607A00F0010066
:102F800038B1607A20F001006072204600F058F8F5
:102F900005E0607A20F00100607200E004E005487E
:102FA000FFF72AFC0028D1D000BF3046FDF7C2F859
:102FB00070BD000080000020034649B1012904D003
:102FC000022908D0032910D10AE0586A10600CE0E9
:102FD0001068586209E0587A20F00200587204E044
:102FE000587A40F00200587200BF00BF00207047BE
:102FF00070B50446FDF79AF805462046FFF77DF8C0
:103000002846FDF797F82046FFF72BFC002070BDFF
:103010002DE9F84307460C4615461E46DDE90889AA
:1030200022460A213846FFF747FC434632462946E6
:103030003846CDF80090FFF73FF8BDE8F883000070
:103040002DE9F8430546FDF771F880462846FFF75D
:1030500054F8687A20F0010068724046FDF76AF87B
:10306000FFF74EFF696A0844A862FDF75FF88046E3
:103070002F4F009700242AE019E05DF82420116802
:10308000142202EBC402881A826AAB6AD21A00D1F7
:1030900008E0826AAB6AD21A6FF000439A4200D20B
:1030A0000CE000BF5DF8240000684DF824005DF8D6
:1030B000240007EBC40149688842DED100BF2CB16F
:1030C0005DF824000830611C4DF82100641C002CC0
:1030D000D2D018480068401C1649086008460668A7
:1030E00005F114010098FFF780FB022412E006F0BE
:1030F000030060B9C4F1010305F1140202EBC3013E
:10310000C4F101025DF82200FFF76FFB00E003E06D
:10311000B608641C012CEAD900BF687A40F00100AF
:1031200068724046FDF706F80020BDE8F88300000D
:10313000800000208800002070B50446607A00F00E
:10314000010010B94FF0FF3070BDFCF7EFFF0546EE
:103150002046FEF7D2FF2846FCF7ECFF607A20F00D
:10316000010060720020EFE72DE9FF4F89B0804633
:1031700044460A9808EB0006464504D24FF0FF3655
:10318000A6EB08000A906FE10B980078252806D07E
:10319000B44202D20B9800782070641C61E10025D3
:1031A00026E00B98401C0B900B9800782D2802D13C
:1031B00045F010051CE00B9800782B2802D145F053
:1031C000040515E00B980078202802D145F0080589
:1031D0000EE00B980078232802D145F0200507E087
:1031E0000B980078302802D145F0010500E000E09E
:1031F000D7E700BF4FF0FF370B98007830380A2828
:1032000004D20BA800F065F907460EE00B98007891
:103210002A280AD10B98401C0B900C9880C80C905F
:10322000002F02DA7F4245F010054FF0FF390B986E
:1032300000782E281CD10B98401C0B900B9800781E
:1032400030380A2804D20BA800F043F981460AE07E
:103250000B9800782A2806D10B98401C0B900C98EC
:1032600050F8049B0C90B9F1000F01DA4FF00009FF
:10327000002004900B980078682803D00B98007801
:103280006C2805D10B98007804900B98401C0B908B
:103290000A2005900B9800786F2875D00CDC632805
:1032A00013D004DC252870D058286FD18DE0642815
:1032B0006DD06928F9D18FE070286AD0732825D0A5
:1032C000752878D07828F0D182E005F0100040B958
:1032D00004E0B44201D220202070641C781E071E36
:1032E000F7DC0C9810F8041B0C90C8B20790B4429D
:1032F00001D207982070641C04E0B44201D220205F
:103300002070641C781E071EF7DCAAE00C98006889
:1033100006900C98001D0C90069808B95CA00690C9
:103320000698FFF7EFFB8346B9F1000F02DDCB45AE
:1033300000DDCB4605F0100048B904E0B44201D2EC
:1033400020202070641C38467F1E5845F6DC002083
:1033500008900BE0B44202D2069800782070641CFA
:103360000698401C06900898401C089008985845FC
:10337000F0DB04E0B44201D220202070641C384607
:103380007F1E5845F6DC6CE01CE015E028E022E0EA
:10339000FFE7781C10B9082745F00105CDE9007951
:1033A00002950C9804C8102331460C902046FEF775
:1033B0003BFF044655E012E0B44201D225202070C4
:1033C000641C4EE0082005901DE045F0400500BF5C
:1033D0001020059017E000BF45F0020500BF12E085
:1033E000B44201D225202070641C0B98007830B1C3
:1033F000B44202D20B9800782070641C02E00B9853
:10340000401E0B902DE000BF04986C2807D10C984B
:1034100050F804AB0C9005F00200B8B116E0049827
:1034200068280BD10C9830F8041B1FFA81FA0C9015
:1034300005F0020050B10FFA8AFA07E00C9850F834
:1034400004AB0C9005F0020000B100BFCDE900799B
:103450000295524631462046059BFEF7E5FE04469E
:1034600000BF0B98401C0B900B98007800287FF44D
:103470008BAE0A9838B1B44202D20020207002E02C
:10348000002006F8010CA4EB08000DB0BDE8F08F99
:10349000284E554C4C2900000020704700207047F2
:1034A000002070470020704710B5FCF73FFEFEF784
:1034B000F5FFFFF7CFFAFFF787FBFFF747FBFEF7B4
:1034C0007FFFFFF78FFBFFF7FDFBFFF765FB00209A
:1034D00010BD0146002009E00B685A1C0A601A78EA
:1034E00000EB800302EB4302A2F130000A6812787D
:1034F000303A0A2AF0D3704764360008683600086C
:103500006C360008703600087436000878360008FB
:103510007C360008803600088436000888360008AB
:10352000030406080C101820300000000000000002
:10353000000102030406070809000000000102035D
:10354000040000010002000100030001000200016C
:10355000000400010002000100030001000200015C
:10356000000500010002000100030001000200014B
:10357000000400010002000100030001000200013C
:10358000000600010002000100030001000200012A
:10359000000400010002000100030001000200011C
:1035A000000500010002000100030001000200010B
:1035B00000040001000200010003000100020001FC
:1035C00000070001000200010003000100020001E9
:1035D00000040001000200010003000100020001DC
:1035E00000050001000200010003000100020001CB
:1035F00000040001000200010003000100020001BC
:1036000000060001000200010003000100020001A9
:10361000000400010002000100030001000200019B
:10362000000500010002000100030001000200018A
:10363000000400010002000100030001000200017B
:10364000003031323334353637383961626364657E
:1036500066003031323334353637383941424344ED
:10366000454600003000000031000000320000003C
:103670003300000034000000350000003600000078
:10368000370000003800000039000000A5340008B1
:103690009D34000899340008A1340008BC360008A5
:1036A00000000020B8000000002000087437000867
:1036B000B8000020C807000010200008000000002B
:1036C000100000000100000068FF1F000000000063
:1036D00000000000010000001C0000201C00002071
:1036E00078000000020000002C0000202C000020C8
:1036F00020000000030000003C0000203C000020EF
:1037000024000000050000004C0000204C000020B8
:10371000300000000A0000005C0000205C00002077
:103720002C0000000000000000000000000000006D
:103730000000000000000000000000000000000089
:103740000000000000000000000000000000000079
:10375000000000000000000014110C1F173B32068F
:103760000000000000000000000000000000000059
:043770000000000055
:04000005080000F5FA
:00000001FF
