:020000040800F2
:100000000815002009010008611A000811190008EC
:100010005D1A000815020008A9230008000000006E
:10002000000000000000000000000000F91F0008B0
:1000300019020008000000000B1E0008FB1F00084A
:100040002301000823010008230100082301000800
:1000500023010008230100082301000823010008F0
:1000600023010008230100082301000823010008E0
:1000700023010008230100082301000823010008D0
:1000800023010008230100082301000823010008C0
:1000900023010008230100082301000823010008B0
:1000A00000000000230100082301000823010008CC
:1000B0002301000823010008230100082301000890
:1000C0002301000823010008230100082301000880
:1000D00023010008992300082301000823010008D8
:1000E0002301000823010008230100082301000860
:1000F00023010008DFF80CD000F07AF80048004730
:1001000005240008081500200648804706480047D7
:10011000FEE7FEE7FEE7FEE7FEE7FEE7FEE7FEE7B7
:10012000FEE7FEE775200008F50000082DE9F05F06
:100130000546002092469B46884606468146402456
:100140001BE0284641464746224600F041F8534608
:100150005A46C01A914110D311461846224600F063
:1001600028F82D1A67EB01084F462246012000218E
:1001700000F01FF817EB00094E41201EA4F1010406
:10018000DFDC484631462A464346BDE8F09FD2B2FE
:1001900001E000F8012B491EFBD270470022F6E770
:1001A00010B513460A4604461946FFF7F0FF2046ED
:1001B00010BD202A04DB203A00FA02F1002070472B
:1001C0009140C2F1200320FA03F319439040704795
:1001D000202A04DB203A21FA02F00021704721FA9C
:1001E00002F3D040C2F12002914008431946704703
:1001F000064C074D06E0E06840F0010394E8070074
:1002000098471034AC42F6D3FFF778FFC07100086E
:10021000E071000800BFFEE77047F8B504460F46DE
:100220006069401E00902069431E0022114620464E
:1002300000F059F9002517E02A460021204600F079
:100240007FF92421204600F0B4F8002604E0394666
:10025000204600F0BAF8761C2069C11700EB5171F6
:10026000B6EBE10FF3DB6D1C6069A842E4DCF8BD7E
:1002700070B505460C46204600F08EF970BD70B58D
:1002800005460C46204600F08DF970BD70B5064657
:100290000C4615462946204600F098F970BD10B569
:1002A00004462221204600F084F8C421204600F0B4
:1002B0008CF82021204600F07CF8FF21204600F039
:1002C00078F8204600F05AF910BD70B504460D4686
:1002D00001202060022060600020A0600320E06018
:1002E00080202061FA20606100F090F910B14FF099
:1002F000FF3070BDA561204600F046F80121204680
:1003000000F057F8F921204600F05FF80021204660
:1003100000F05BF80021204600F057F80C21204641
:1003200000F047F8D721204600F04FF8D6212046AC
:1003300000F04BF89D21204600F047F82C21204684
:1003400000F037F8A821204600F03FF83A21204677
:1003500000F02FF81A21204600F037F83B21204604
:1003600000F027F80821204600F02FF81121204640
:1003700000F01FF80321204600F027F82046A1696D
:1003800000F09EF80020B4E710B504460022204695
:100390002168FFF77BFF14212046FFF769FF012248
:1003A00020462168FFF772FF14212046FFF760FF07
:1003B00010BD70B504460D46002220466168FFF767
:1003C00065FF284600F040F970BD70B504460D4643
:1003D000012220466168FFF759FF284600F034F9F2
:1003E00070BD2DE9FF4F83B0804614461D46109E18
:1003F000049840B1002C06DB002E04DB002D02DB4C
:100400001198002802DA07B0BDE8F08F04F0F80474
:1004100006F0F806A019D8F81010884203DBD8F8C7
:100420001000471E01E0A019471E11982844D8F873
:100430001410884204DBD8F81400A0F1010903E08D
:1004400011982844A0F101093B462A46214640461E
:10045000CDF8009000F047F8AA462DE0524621461C
:10046000404600F06DF824214046FFF7A2FF2046E9
:10047000E11704EB51714FEAE10B15E0E01704EBD3
:100480005070ABEBE000F21706EB5272D210AAEB01
:10049000050303FB0202CDE901460498815C404656
:1004A000FFF793FF0BF1010BF91707EB5171BBEB52
:1004B000E10FE3DD0AF1010ACA45CFDD00BFA2E783
:1004C00070B504460E46A66132212046FFF771FF43
:1004D000002505E0A069415D2046FFF776FF6D1C11
:1004E0001E2DF7DB70BD2DE9F04180460D46144608
:1004F0001E46069F44214046FFF75BFFC5F3C70138
:100500004046FFF762FFC6F3C7014046FFF75DFFB5
:1005100045214046FFF74DFFE1B24046FFF755FF4A
:10052000C4F307214046FFF750FFF9B24046FFF7FA
:100530004CFFC7F307214046FFF747FFBDE8F081B6
:1005400070B506460D4614464E213046FFF731FF82
:10055000C5F3C7013046FFF738FF4F213046FFF79C
:1005600028FFE1B23046FFF730FFC4F307213046E1
:10057000FFF72BFF304600F001F870BD10B50446C0
:1005800003E00A212046FFF773FE2046E168FFF7EB
:1005900076FE0128F5D010BD10B50446204600F0C7
:1005A000A1F810BD10B50446074A02EBC4029288B8
:1005B00091B2054A52F8340000F090F9012800D1B8
:1005C00010BD0020FCE700005000002070B504467C
:1005D0000D46012D0BD10C4A02EBC402928891B258
:1005E000094A52F83400012200F08AF90AE0064A6A
:1005F00002EBC402928891B2034A52F834000022FE
:1006000000F07EF970BD00005000002009480A4A41
:1006100006CA06C00838094A06CAC0E90212084AD2
:1006200006CAC0E90412074A06CAC0E90612002039
:10063000704700005000002000000020080000204B
:10064000100000201800002001B50C4A928891B2D9
:100650000A4A1068002200F053F94FF47A7301221D
:100660006946074800F036FF044A928891B2034A6F
:100670001068012200F044F908BD0000500000207D
:1006800070100020704770B50446002594F82100D2
:10069000022803D00420A063012520E02068006820
:1006A00020F00E00216808602068006820F001003A
:1006B0002168086094F8400000F01C010120884087
:1006C000E16B4860012084F8210000BF002084F81D
:1006D000200000BF606B10B12046616B8847284640
:1006E00070BD000070B5044600F010F906462546BE
:1006F000681C10B104480068054400BF00F006F90A
:10070000801BA842FAD370BD4800002078B503468C
:10071000002200240020CAE0012696400D6805EA68
:100720000604002C71D04D68012D08D04D68022DB3
:1007300005D04D68112D02D04D68122D13D1986847
:1007400056000325B540A8435600CD68B540284360
:100750009860586801259540A8430D79C5F30015A8
:10076000954028435860D86856000325B540A843F3
:1007700056008D68B5402843D8604D68022D02D0E0
:100780004D68122D13D1D60803F1200555F8260027
:100790005507EE0E0F25B540A8435607F60E0D6916
:1007A000B5402843D60803F1200545F8260018680F
:1007B00056000325B540A8430D7905F00305560002
:1007C000B540284318604D6805F08055B5F1805F4D
:1007D0006CD100BF394D2D6845F00105374E3560AD
:1007E00035462D6805F00105009500BF00BF344D6A
:1007F000960855F8260095072E0F0F25B540A843FB
:10080000304DAB4202D1002515E04FE02E4DAB42FA
:1008100001D101250FE02D4DAB4201D102250AE0A7
:100820002B4DAB4201D1032505E02A4DAB4201D14E
:10083000042500E005259607360FB5402843204DD6
:10084000960845F82600244D2868A0434D6805F415
:100850008035B5F5803F00D120431F4D28602D1D08
:100860002868A0434D6805F40035B5F5003F00D178
:100870002043194D2D1D28602D1D2868A0434D686B
:1008800005F48015B5F5801F00D12043124D0835C1
:1008900028602D1D2868A0434D6805F40015B5F5A6
:1008A000001F00D120430C4D0C352860521C0D68F0
:1008B000D540002D7FF430AF78BD000020380240D5
:1008C000080001400000024000040240000802400D
:1008D000000C02400010024000040140024613696F
:1008E0000B400BB1012000E00020704710B54269B9
:1008F00021EA020302EA010443EA0443836110BDD2
:100900000AB1816101E00B0483617047014800680E
:100910007047000040000020034800680349096850
:10092000084401490860704740000020480000204A
:1009300010B50024032000F0B3F8002000F008F800
:1009400008B1012401E000F02FF8204610BD00009E
:1009500070B50446002511480068D8B10F480068FA
:100960004FF47A71B1FBF0F00D490968B1FBF0F674
:10097000304600F086FE58B9102C07D200222146DE
:10098000501E00F04FF80748046004E0012502E023
:10099000012500E00125284670BD00004800002028
:1009A0004C0000204400002008B500BF1448006837
:1009B00040F00040124908600846006800F000401E
:1009C000009000BF00BF00BF081F006840F001009A
:1009D000091F08600846006800F00100009000BF91
:1009E00000BF00BF081D006840F08050091D08606E
:1009F0000846006800F08050009000BF00BF08BDAE
:100A00002438024001460846002809DB00F01F0395
:100A100001229A4043099B0003F1E023C3F800211F
:100A200000BF70472DE9F05F80460D46164600274F
:100A300001F0BCFC074639462A46334601F0070060
:100A4000C0F1070ABAF1040F02D94FF0040A01E01D
:100A5000C0F1070AD14600F1040ABAF1070F02D229
:100A60004FF0000A01E0A0F1030AD4464FF0010A5A
:100A70000AFA09FAAAF1010A0AEA020A0AFA0CFABF
:100A80004FF0010B0BFA0CFBABF1010B0BEA030B64
:100A90004AEA0B042146404601F090FCBDE8F09F75
:100AA00000BF00F00702064B19684FF6FF0319401C
:100AB000044B0B4343EA0221014B196000BF70470E
:100AC0000CED00E00000FA052DE9F04104460D466A
:100AD00014B90120BDE8F0817E48006800F00100F3
:100AE000A84218D200BF012D05D17A48006840F015
:100AF0000400784908607748006820F00100284326
:100B00007449086000BF0846006800F00100A84270
:100B100001D00120DEE7207800F00200022807D192
:100B20006D48006820F0F000A16808436A49086039
:100B3000207800F0010000287FD06068022807D1EB
:100B400065480838006800F40030F8B90120C1E7B2
:100B50006068032807D160480838006800F000701A
:100B6000A0B90120B6E76068012807D15A480838C3
:100B7000006800F0020048B90120ABE75648083889
:100B8000006800F4007008B90120A3E7524800682B
:100B900020F00300616808434F490860FFF7B6FE84
:100BA00006466068022810D108E0FFF7AFFE801B00
:100BB00041F28831884201D903208BE7464800681A
:100BC00000F00C000828F0D137E06068032810D14D
:100BD00008E0FFF79BFE801B41F28831884201D973
:100BE000032077E73C48006800F00C000C28F0D1A7
:100BF00023E06068012810D108E0FFF787FE801B22
:100C000041F28831884201D9032063E73248006805
:100C100000F00C000428F0D10FE008E0FFF776FEAA
:100C2000801B41F28831884201D9032052E72A48CB
:100C3000006800F00C000028F0D12648006800F0A1
:100C40000100A84218D900BF012D05D12148006834
:100C500040F004001F4908601E48006820F00100B1
:100C600028431C49086000BF0846006800F00100E6
:100C7000A84201D001202DE7207800F004000428CC
:100C800007D11548006820F4E060E1680843124984
:100C90000860207800F00800082808D10E48006895
:100CA00020F46050216940EAC1000B49086000F05F
:100CB00041F809490968C1F30311084A515CC84069
:100CC0000749086007480068FFF742FE07463846B4
:100CD00000E70000003C024008380240A77100080D
:100CE0004C000020440000200148006870470000CC
:100CF0004C00002000B5FFF7F7FF04490968C1F375
:100D00000221034A515CC84000BD0000083802407F
:100D1000B771000800B5FFF7E7FF04490968C1F3A0
:100D2000C221034A515CC84000BD0000083802409F
:100D3000B77100082DE9F05F2248D0F8009009F063
:100D40000C0070B3042804D0082804D00C2829D142
:100D500003E01D4D32E01D4D30E01D48C9F38341D5
:100D600010F801A0C9F38150441C1648006800F433
:100D7000803050B11548A0FB0A700146224600237E
:100D80003846FFF7D3F9064609E00F48A0FB0A7082
:100D90000146224600233846FFF7C8F90646354685
:100DA0000CE000E000BF0748001F0068C0F3423BB2
:100DB0000BF1010001218140CD0300BF00BF284697
:100DC000BDE8F09F083802400024F40000127A00C9
:100DD0009E7100082DE9F843044614B90120BDE8CE
:100DE000F883FE48006800F00C06FC48006800F438
:100DF0008037207800F00100002875D0082E04D03C
:100E00000C2E0ED1B7F5803F0BD1F448083800689E
:100E100000F40030002867D06068002864D1012009
:100E2000DDE700BF6068012808D1EC480838006899
:100E300040F48030E949083908602DE0606868B9FD
:100E4000E6480838006820F48030E4490839086032
:100E50000846006820F4802008601DE060680528CE
:100E60000DD1DE480838006840F48020DB4908399D
:100E700008600846006840F4803008600CE0D748FD
:100E80000838006820F48030D449083908600846E2
:100E9000006820F48020086000BF606890B1FFF710
:100EA00035FD054606E0FFF731FD401B642801D9FA
:100EB000032094E7C9480838006800F4003000288F
:100EC000F1D011E0FFF722FD054606E0FFF71EFD19
:100ED000401B642801D9032081E7C0480838006816
:100EE00000F400300028F1D1207800F00200022840
:100EF00053D1042E02D00C2E17D1B7B9B7480838F9
:100F0000006800F0020020B1E068012801D0012053
:100F100065E7B248001F006820F4F850216940EAF4
:100F20000120AE49091F086037E0E06800B30120E6
:100F3000AB490860FFF7EAFC054606E0FFF7E6FC70
:100F4000401B022801D9032049E7A448083800685B
:100F500000F002000028F1D0A048001F006820F433
:100F6000F850216940EA01209C49091F086014E0FB
:100F700000209B490860FFF7C9FC054606E0FFF723
:100F8000C5FC401B022801D9032028E793480838F4
:100F9000006800F002000028F1D1207800F0100075
:100FA000102871D1F6BB8D480838006800F4007035
:100FB00018B1A06908B9012011E78849091F206A02
:100FC000096801F46041884219D9206A00F01EFFC7
:100FD00008B1012003E78148001F006820F4604049
:100FE000216A08437D49091F0860217F7B48001F53
:100FF000006861F31F607949091F08601AE07748AB
:10100000001F006820F46040216A08437349091FEB
:101010000860217F7148001F006861F31F606F49FD
:10102000091F00E020E00860206A00F0EFFE08B130
:101030000120D4E60121206A01EB503101208840D3
:10104000C00366490968C1F30311664A515CC84090
:101050006549086065480068FFF77AFC8046B8F18A
:10106000000F42D04046BAE6A06948B301205C496F
:101070000862FFF74BFC054607E0FFF747FC401B03
:10108000022802D90320AAE62FE054480838006855
:1010900000F400700028F0D05048001F006820F4D1
:1010A0006040216A08434D49091F0860217F4B4871
:1010B000001F006861F31F604849091F086014E0C1
:1010C000002047490862FFF721FC054606E0FFF7CC
:1010D0001DFC401B022801D9032080E63F48083848
:1010E000006800F400700028F1D1207800F00800BA
:1010F00008282CD16069A8B101203D490860FFF79C
:1011000005FC054606E0FFF701FC401B022801D95B
:10111000032064E631482C30006800F0020000280B
:10112000F1D014E0002032490860FFF7EFFB0546DC
:1011300006E0FFF7EBFB401B022801D903204EE637
:1011400026482C30006800F002000028F1D12078F9
:1011500000F0040004286ED14FF000091F481C3035
:10116000006800F0805088B900BF1C481C3000683F
:1011700040F0805019491C3108600846006800F0B2
:101180008050009000BF00BF4FF00109194800686F
:1011900000F48070B0B91748006840F480701549B9
:1011A0000860FFF7B3FB054606E0FFF7AFFB401B07
:1011B000642801D9032012E60E48006800F480700C
:1011C0000028F2D000BFA068012817D103482C30B6
:1011D000006840F4807001492C310DE0083802406D
:1011E00000004742A77100084C0000204400002086
:1011F0008006474200700040086028E0A06858B9A7
:101200006648006820F480706449086008460068F9
:1012100020F4806008601AE0A06805280CD15F48BF
:10122000006840F480605D4908600846006840F44A
:10123000807008600BE040E05848006820F480703F
:10124000564908600846006820F48060086000BFC6
:10125000A06898B1FFF75AFB054608E0FFF756FB78
:10126000401B41F28831884201D90320B7E54B4841
:10127000006800F400700028F0D012E0FFF746FB91
:10128000054608E0FFF742FB401B41F288318842E7
:1012900001D90320A3E54148006800F4007000284C
:1012A000F0D1B9F1010F07D13C481038006820F0A7
:1012B00080503A491039086000BF606AA8B30C2E0C
:1012C00052D0606A022839D1002035490866FFF7FC
:1012D0001DFB054606E0FFF719FB401B022801D95C
:1012E00003207CE52D483438006800F000700028A9
:1012F000F1D1D4E90A010843216B084327492C396D
:10130000096821F47D01084324492C390860012033
:1013100023490866FFF7FAFA054607E0FFF7F6FAF1
:10132000401B022802D9032059E535E01B48343818
:10133000006800F000700028F0D02DE0002018496F
:101340000866FFF7E3FA054606E0FFF7DFFA401B01
:10135000022801D9032042E510483438006800F023
:1013600000700028F1D117E0606A012800D136E54D
:101370000A482C38076807F48031A06A814209D1F5
:1013800007F47011E06A814204D107F44001206B38
:10139000814201D0012022E5002020E534380240BE
:1013A0000000474210B504460CB9012010BD606A28
:1013B00038B96068B0F5827F00D105E00021E161B5
:1013C00002E00021216161610021A16294F85100D5
:1013D00028B9002084F85000204600F03DF8022093
:1013E00084F851002068006820F0400021680860FF
:1013F000A08800F48270218901F404410843A18986
:1014000001F400610843217C01F002010843217DC1
:1014100001F001010843218B01F400710843217F91
:1014200001F0380108432021095D01F080010843E3
:10143000218D01F400510843216808600421A0694E
:1014400001EA10402168486000206065012084F8AE
:1014500051000020AAE7000010B586B00446142110
:1014600001A8FEF79BFE18492068884229D100BFD9
:101470001648006840F48050144908600846006827
:1014800000F48050009000BF00BF00BF081F00683C
:1014900040F00100091F08600846006800F00100E4
:1014A000009000BF00BFA020019002200290002009
:1014B0000390032004900520059001A90448FFF73C
:1014C00025F906B010BD0000003001402038024070
:1014D000000002402DE9F84F0446884616461D4696
:1014E0004FF0000A00BF94F85000012802D10220FA
:1014F000BDE8F88F012084F8500000BFFFF706FA1E
:101500000746B14694F85100012802D04FF0020A74
:10151000ADE0B8F1000F00D016B94FF0010AA6E017
:10152000032084F8510000206065C4F83080A6864E
:10153000E686A063A087E08760642064A068B0F5B9
:10154000004F0BD12068006820F04000216808603F
:101550002068006840F480402168086020680068C6
:1015600000F04000402805D02068006840F04000AE
:1015700021680860E068B0F5006F2FD1606810B195
:10158000B9F1010F09D1206B00882168C860206B78
:10159000801C2063E08E401EE0861BE0206880688F
:1015A00000F0020002280AD1206B00882168C86080
:1015B000206B801C2063E08E401EE0860AE0FFF76F
:1015C000A5F9C01BA84201D3681C00B915B94FF09A
:1015D000030A4CE0E08E0028E0D12EE0606810B1F4
:1015E000B9F1010F09D1206B007821680873206BD5
:1015F000401C2063E08E401EE0861BE0206880686F
:1016000000F0020002280AD1206B007821680873DC
:10161000206B401C2063E08E401EE0860AE0FFF74E
:1016200075F9C01BA84201D3681C00B915B94FF069
:10163000030A1CE0E08E0028E0D13A462946204605
:1016400000F038FC08B120206065A06850B900BFE8
:10165000002000902068C06800902068806800909A
:1016600000BF00BF606D08B14FF0010A00BF01204C
:1016700084F8510000BF002084F8500000BF50469D
:1016800036E770B504462546681EB0F1807F01D369
:1016900001200FE0681E4FF0E02148610F214FF05C
:1016A000FF3000F08BFE00204FF0E0218861072022
:1016B0000861002070BD70472DE9F047044620689E
:1016C00005682068C668206847694FF00008C14671
:1016D00005F00F08B8F1000F0AD105F0200038B16D
:1016E00006F0200020B1204600F0F6FCBDE8F087AF
:1016F000B8F1000F72D007F0010018B906F490702D
:1017000000286BD005F0010030B106F4807018B1EC
:10171000E06B40F00100E06305F0040030B107F039
:10172000010018B1E06B40F00200E06305F0020038
:1017300030B107F0010018B1E06B40F00400E06345
:1017400005F0080048B106F0200010B907F00100CC
:1017500018B1E06B40F00800E063E06B70B305F097
:10176000200028B106F0200010B1204600F0B4FCA3
:1017700020684069C0F38019E06B00F0080010B9E0
:10178000B9F1000F23D0204600F086FC20684069A4
:1017900000F04000402816D12068406920F0400049
:1017A00021684861606B50B11748616B4863606B9A
:1017B000FEF769FF10B1606B416B88470CE0204673
:1017C000FFF779FF08E02046FFF775FF04E02046A9
:1017D000FFF771FF0020E06388E7FFE705F0800076
:1017E00030B106F0800018B1204600F0A1FD7DE781
:1017F00005F0400030B106F0400018B1204600F07E
:101800005BFC73E700BF71E78520000810B5044654
:101810000CB9012010BDA06900B100E000BF94F830
:10182000390028B9002084F83800204600F028F854
:10183000242084F839002068C06820F40050216812
:10184000C860204600F09CFC2068006920F49040AD
:10185000216808612068406920F02A0021684861F9
:101860002068C06840F400502168C8600020E06330
:10187000202084F8390084F83A000020CAE70000EC
:1018800010B586B00446142101A8FEF787FC1C4958
:101890002068884232D100BF1A48006840F4804076
:1018A000184908600846006800F48040009000BFB6
:1018B00000BF00BF081F006840F00100091F08605A
:1018C0000846006800F00100009000BF00BF4FF420
:1018D000C060019002200290002003900320049039
:1018E0000720059001A90848FEF710FF00221146C5
:1018F0002520FFF797F82520FFF784F806B010BDE4
:101900000038014020380240000002407047704714
:1019100000BFFEE700B587B0142102A8FEF73EFC29
:1019200000BF2A48006840F02000284908600846A7
:10193000006800F02000019000BF00BF00BF084613
:10194000006840F0010008600846006800F00100EF
:10195000019000BF00BF00BF0846006840F00200D1
:1019600008600846006800F00200019000BF00BF58
:1019700000224FF401411648FEF7C2FF0122682100
:101980001448FEF7BDFF4FF4014002900120039080
:1019900004900220059002A90D48FEF7B7FE6820CA
:1019A00002900120039004900220059002A90948AA
:1019B000FEF7ACFE1020029000200390012004905E
:1019C00002A90448FEF7A2FE07B000BD1C38024081
:1019D000000002400004024010B5104810490860A1
:1019E0004FF4827048604FF400410D48816000213F
:1019F000C160022101610121416149028161182117
:101A0000C16100210162416281620A21C162FFF766
:101A1000C9FC08B1FEF736FE10BD000000300140E1
:101A20007010002010B50B480B4908604FF4E130EE
:101A30004860002108488160C16001610C2141615A
:101A400000218161C161FFF7E1FE08B1FEF71AFED6
:101A500010BD000000380140C810002000BFFEE7A4
:101A60007047F0B504460F4600250CE0002606E05E
:101A70003B4632462946204600F009F8761CA0680D
:101A8000B042F5DC6D1C6068A842EFDCF0BDF0B53B
:101A90001D46002907DB43688B4204DD002A02DB78
:101AA0008368934200DCF0BDFDB1466802FB06147A
:101AB000E61704EB5676F6100768BE5D0B46CF17A7
:101AC00001EB5777FF10A1EBC70C802747FA0CF703
:101AD0003E43476802FB0714E71704EB5777FF10F4
:101AE000D0F800C00CF807601EE0466802FB061440
:101AF000E61704EB5676F6100768BE5D0B46CF1767
:101B000001EB5777FF10A1EBC70C802747FA0CF7C2
:101B1000BE43476802FB0714E71704EB5777FF1033
:101B2000D0F800C00CF8076000BFBCE72DE9FF4FFC
:101B3000884691469A460D9DA988CA1701EB5272B4
:101B4000D2100846CB1701EB5373DB10A1EBC30394
:101B50000BB1012300E000231344AAF12002B5F8E1
:101B600006C002FB0CF203FB02FB286800EB0B072C
:101B700000262BE000241CE0E11704EB5171C91092
:101B8000A4EBC102802111413A78114039B109EB2F
:101B9000060208EB04010E9B009800F032F8E117F2
:101BA00004EB5171C910A4EBC101072900D17F1CBE
:101BB000641CA888A042DFDCA888C11700EB517123
:101BC000C910A0EBC10101B17F1C761CE888B042AE
:101BD000D0DCBDE8FF8F2DE9F04307460C46904668
:101BE0001E46DDF81C90254606E04B464246294637
:101BF000384600F006F86D1CA019A842F5DCBDE8D7
:101C0000F0832DE9F04104460D4616469846E068FB
:101C100090B9002D07DB6068A84204DD002E02DBCE
:101C2000A068B04201DCBDE8F08143463246294657
:101C30002046FFF72CFF49E0E068012815D1002D70
:101C400007DBA068A84204DD002E02DB6068B0421A
:101C500000DCE8E72F466068851B3E464346324677
:101C600029462046FFF713FF30E0E068022815D12F
:101C7000002D07DB6068A84204DD002E02DBA068AF
:101C8000B04200DCCFE76068451BA068861B434676
:101C9000324629462046FFF7FAFE17E0E06803289F
:101CA00014D1002D07DBA068A84204DD002E02DB62
:101CB0006068B04200DCB6E72F463546A068C61B18
:101CC0004346324629462046FFF7E1FE00BFAAE719
:101CD0002DE9FF4F81B00D4616461F460F9CAF42BF
:101CE00001DD284600E038468046AF4201DD384637
:101CF00000E0284682460E98B04201DD304600E002
:101D00000E9881460E98B04201DD0E9800E03046F4
:101D10008346AAEB0800431C4A46414600940198BA
:101D2000FFF759FFAAEB0800431C5A4641460094AE
:101D30000198FFF750FFABEB0900431C4A464146B0
:101D40000094019800F02CF8ABEB0900431C4A46C4
:101D500051460094019800F023F805B0BDE8F08FDB
:101D60002DE9FF4F82B081460D461E46DDE90F7A10
:101D700034464FF0000BA8460CE0CDE9007A2378FA
:101D800041464846049AFFF7D1FEB8888044641C57
:101D90000BF1010B20780028EFD106B0BDE8F08FE1
:101DA0002DE9F0430746884614461E46DDF81C9090
:101DB000254606E04B462A4641463846FFF721FFB6
:101DC0006D1CA019A842F5DCBDE8F083F0B50C4607
:101DD0001D460021C16004601346D61702EB5676FB
:101DE000F610A2EBC60656B1D61702EB5676F610E1
:101DF000A2EBC607114602F10806F61B00E01646E4
:101E000046608560F0BDC1607047704718B50346F5
:101E100000222548006800F0F00050BB22481C302A
:101E2000006800F0805020B12048006800F4C051E4
:101E300018E000BF1C481C30006840F080501A4C6D
:101E40001C3420602046006800F08050009000BFE5
:101E500000BF1648006800F4C0512046006820F01A
:101E600080502060B1F5C05F03D1B3F5404F00D181
:101E7000012200BF012A05D10D48006840F004008E
:101E80000B4C20600A48006820F001001043084C09
:101E9000206000BF2046006800F00100904201D0A1
:101EA000012018BD0020FCE7083802400070004007
:101EB000003C02407CB504460D46164616480068B4
:101EC0001821B0FBF1F01549B0FBF1F04FF47A7135
:101ED000484301906068B0F5827F0DD12B46002207
:101EE00080212046009600F01BF898B1606D40F00C
:101EF0002000606503207CBD00BF019800B908E0A8
:101F00000198401E019020688068C0F3C01000282E
:101F1000F3D100BF0020EEE74C00002040420F004C
:101F20002DE9F84F04460D4690461E46DDF82890F0
:101F3000FEF7ECFCA0EB0900371AFEF7E7FC82463F
:101F40002C480068C0F3CB307843009045E0701C0B
:101F5000002842D0FEF7DAFCA0EB0A00B84200D21B
:101F6000A7BB2068406820F0E000216848606068F6
:101F7000B0F5827F0DD1A068B0F5004F03D0A06806
:101F8000B0F5806F05D12068006820F0400021681E
:101F90000860A06AB0F5005F0DD100BF206800683E
:101FA00020F40050216808602068006840F4005068
:101FB0002168086000BF012084F8510000BF0020A4
:101FC00084F8500000BF0320BDE8F88FFFE70098B9
:101FD00000B900270098401E0090206880682840C3
:101FE000A84201D1012000E000204045AFD10020EF
:101FF000EAE700004C000020704710B5FEF78CFCAB
:1020000010BD000000B593B0342106A8FEF7C6F855
:10201000142101A8FEF7C2F81548006820F4C0504A
:1020200040F40060124908600120069007900220E9
:102030000F90C10310914FF440211191410512916D
:1020400006A8FEF7C7FE08B1FEF71CFB0F200190A3
:10205000032002900020039004900590012101A824
:10206000FEF732FD08B1FEF70DFB13B000BD000016
:10207000007000404FF000600149086070470000A8
:1020800008ED00E070B505466C6A0020E085E0844C
:102090002046FFF710FB70BD0168C96821F49071FC
:1020A0000268D1600168496921F00101026851614B
:1020B000202180F83A10704710B504462068C068A7
:1020C00020F040002168C860202084F839002046B4
:1020D000FFF71DFC002010BD70B5044694F83A00CF
:1020E00022284AD1A068B0F5805F13D1A56A206983
:1020F00040B920684068C0F308002880A06A801CAE
:10210000A06219E020684068C0B22880A06A401C24
:10211000A06211E0206938B920684068C1B2A26AA3
:10212000501CA062117007E02068406800F07F0139
:10213000A26A501CA0621170E08D401E80B2E08542
:10214000C8B92068C06820F020002168C8602068F5
:10215000C06820F480702168C8602068406920F061
:10216000010021684861202084F83A002046FFF7EA
:10217000CDFB002070BD0020FCE70220FAE7000044
:1021800070B504462168096921F44051E2681143A1
:10219000226811612269A168114362691143E269F1
:1021A00041EA02052168C96849F20C62914329435A
:1021B0002268D1602168496921F44071A269114304
:1021C00022685161594A2168914202D1FEF7A2FD6D
:1021D00001E0FEF78FFDE169B1F5004F53D100EB4F
:1021E000C00101EB001162685200B1FBF2F1642200
:1021F000B1FBF2F10A0100EBC00101EB00116368D1
:102200005B00B1FBF3F100EBC00303EB0013666866
:102210007600B3FBF6F36426B3FBF6F303EBC306D9
:1022200006EB0313A1EB8301322303EBC10164230B
:10223000B1FBF3F101F0F80102EB410200EBC00148
:1022400001EB001163685B00B1FBF3F100EBC0032D
:1022500003EB001366687600B3FBF6F36426B3FB6A
:10226000F6F303EBC30606EB0313A1EB8301322362
:1022700003EBC1016423B1FBF3F101F00701114449
:102280002268916051E000EBC00101EB001162682F
:102290009200B1FBF2F100EBC00202EB00126368A6
:1022A0009B00B2FBF3F26423B2FBF3F202EBC20336
:1022B00003EB0212A1EB8201322202EB0111642234
:1022C000B1FBF2F101F0F00100EBC00202EB0012F1
:1022D00063689B00B2FBF3F26423B2FBF3F201EB01
:1022E000021200EBC00101EB001163689B00B1FB1F
:1022F000F3F100EBC00303EB00136668B600B3FB19
:10230000F6F36426B3FBF6F303EBC30606EB031305
:10231000A1EB8301322303EB01116423B1FBF3F141
:1023200001F00F0111442268916070BD0038014036
:10233000014691F8390021282CD18868B0F5805FDA
:102340000FD10A6A1088C0F308000B68586008694A
:1023500018B9086A801C086209E0086A401C086213
:1023600005E00B6A581C086218780B685860C88C26
:10237000401E80B2C88458B90868C06820F0800048
:102380000B68D8600868C06840F040000B68D860EF
:10239000002070470220FCE710B50248FFF78CF9D7
:1023A00010BD0000C810002000BFFEE70248006812
:1023B000C0F30220704700000CED00E010B50028CB
:1023C00004DB0A07130E054A135406E00A07140E2D
:1023D000034A00F00F031B1FD45410BD00E400E0BB
:1023E00018ED00E002E008C8121F08C1002AFAD167
:1023F00070477047002001E001C1121F002AFBD185
:102400007047000000B58FB0E4A103C9CDE90D010C
:10241000FEF78EFAFFF7F6FDFFF77CFAFFF7DCFA1E
:10242000FFF700FBDF4906A8FDF74FFF18B14FF09B
:10243000FF300FB000BDFF2106A8FDF7EEFEFA2326
:102440007822D94902A8FFF7C1FC012102A8FFF7B1
:10245000DAFC012102A8FFF704FB0020D349D4A332
:102460005F22CDE90010014602A8FFF779FC0020A9
:10247000CE49CBA35F22CDE90010092102A8FFF7C6
:102480006FFC0020C949CAA35F22CDE900101221C8
:1024900002A8FFF765FC0020C449C1A35F22CDE973
:1024A00000101B2102A8FFF75BFC0020C149C2A35A
:1024B0005A22CDE90010242102A8FFF751FC002088
:1024C000BA49BEA35F22CDE90010342102A8FFF76C
:1024D00047FC0020B549B2A35F22CDE900103D21A1
:1024E00002A8FFF73DFC0020B249B5A35A22CDE96E
:1024F0000010462102A8FFF733FC0020AB49ACA333
:102500005F22CDE90010562102A8FFF729FC002028
:10251000A649A3A35F22CDE90010114602A8FFF748
:102520001FFC0020A349A7A35A22CDE9001068216F
:1025300002A8FFF715FC00209E49A3A35A22CDE96B
:102540000010802102A8FFF70BFC002099499CA3F2
:102550005A22CDE90010902102A8FFF701FC0020CB
:1025600094499AA35A22CDE90010A02102A8FFF7AE
:10257000F7FB00208F4994A35A22CDE90010B02127
:1025800002A8FFF7EDFB00208A4991A35A22CDE96A
:102590000010C82102A8FFF7E3FB002085498DA3A6
:1025A0005A22CDE90010D82102A8FFF7D9FB00205C
:1025B000804989A35A22CDE90010E82102A8FFF73B
:1025C000CFFB00207B4985A30222CDE90010BB216F
:1025D00002A8FFF7C5FB0020764971A30222CDE9CE
:1025E0000010CF2102A8FFF7BBFB00207C4970A39D
:1025F0001922CDE90010BB2102A8FFF7B1FB002092
:10260000774978A31922CDE90010C82102A8FFF765
:10261000A7FB0020724971A31922CDE90010D22135
:1026200002A8FFF79DFB00206D496FA31922CDE999
:102630000010DC2102A8FFF793FB002068496BA380
:102640001922CDE90010EA2102A8FFF789FB00203A
:10265000584967A32922CDE90010BB2102A8FFF742
:102660007FFB002053494EA32922CDE90010CF2142
:1026700002A8FFF775FB002059494DA33E22CDE982
:102680000010BB2102A8FFF76BFB0020544956A3A2
:102690003E22CDE90010C82102A8FFF761FB00200F
:1026A0004F494EA33E22CDE90010D22102A8FFF7E8
:1026B00057FB00204A494CA33E22CDE90010DC2103
:1026C00002A8FFF74DFB002045494AA33E22CDE971
:1026D0000010EA2102A8FFF743FB50204821002305
:1026E0001A46CDE90010304906A8FDF77AFE002011
:1026F0005421FA235622CDE90010014602A8FFF723
:10270000E7FA00205321FA235522CDE900100146B3
:1027100002A8FFF7DDFA0020374938A30246CDE9C9
:102720000010014602A8FFF71BFB0020324934A32A
:102730000246CDE90010462102A8FFF711FB002058
:102740002D4930A30246CDE90010642102A8FFF70D
:1027500007FBFA20782100231A46CDE90010124920
:1027600006A8FDF73EFE06A8FDF799FD4FF4FA61B5
:1027700006A8FDF77DFDFEF7C9F80DE04FF4004116
:102780002148FEF7B3F84FF480711F48FEF7AEF80A
:102790004FF4FA70FDF7A6FFF0E7000030303A3052
:1027A000300000000C2800087000002020000020ED
:1027B000320000003800002021000000310000003D
:1027C000220000002300000020000000280000007C
:1027D0002A0000002B000000360000002E00000040
:1027E00028000020350000003900000043000000F0
:1027F0002F000000250000003000002031320000D2
:102800003A00000033340000000002402255AA556F
:10281000AA55AA1100000000000000001E1E1E1E86
:102820001E1E1E1E01000000000018000000000017
:10283000000000000000000000000F010000000088
:102840000000000000000000000000000000000088
:102850000000000000000000000000000000000078
:10286000000000000000000000000C000C000C0044
:102870000C000C000C000C000C0000000C00000010
:102880000000000000000000000000001DC01DC08E
:1028900008800880088000000000000000000000A0
:1028A000000000000000000000000D800D800D8081
:1028B0000D803FC01B003FC01B001B001B001B0006
:1028C000000000000000000004001F803180318003
:1028D00038001E000F000380318031803F0004006B
:1028E0000400000000000000000018002400240084
:1028F00018C007801E0031800240024001800000A5
:102900000000000000000000000000000F001800A0
:10291000180018000C001D80370033001D800000D7
:102920000000000000000000000000000700070099
:102930000200020002000000000000000000000091
:10294000000000000000000000000300030006007B
:102950000E000C000C000C000C000E000600030022
:1029600003000000000000000000180018000C0028
:102970000600060006000600060006000C001C000B
:1029800018000000000000000000060006003FC024
:102990003FC00F001F8019800000000000000000F1
:1029A0000000000000000000000000000000040023
:1029B000040004003F800400040004000000000044
:1029C0000000000000000000000000000000000007
:1029D00000000000000000000000060004000C00E1
:1029E00008000800000000000000000000000000D7
:1029F000000000003F800000000000000000000018
:102A000000000000000000000000000000000000C6
:102A1000000000000000000000000C000C0000009E
:102A2000000000000000000000C000C00180018024
:102A30000300030006000C000C0018001800300012
:102A4000300000000000000000000E001B0031807C
:102A5000318031803180318031801B000E000000D8
:102A60000000000000000000000006003E0006001C
:102A70000600060006000600060006003FC0000033
:102A8000000000000000000000000F0019803180ED
:102A90003180030006000C00180030003F80000069
:102AA000000000000000000000003F006180018085
:102AB00003001F0003800180018061803F0000004F
:102AC00000000000000000000000070007000F00E9
:102AD0000B001B00130033003F8003000F80000039
:102AE000000000000000000000001F801800180017
:102AF00018001F0011800180018021801F0000004C
:102B00000000000000000000000007801C0018000A
:102B10003000370039803180318019800F0000008B
:102B2000000000000000000000007F0043000300E0
:102B300006000600060006000C000C000C00000059
:102B4000000000000000000000001F003180318004
:102B500031801F0031803180318031801F000000C2
:102B6000000000000000000000001E003300318063
:102B7000318033801D800180030007003C0000008D
:102B80000000000000000000000000000000000045
:102B90000C000C000000000000000C000C00000005
:102BA0000000000000000000000000000000000025
:102BB00003000300000000000000060004000800FD
:102BC00008000000000000000000000000C003003A
:102BD00004001800600018000400030000C000009A
:102BE00000000000000000000000000000000000E5
:102BF00000007FC000007FC0000000000000000057
:102C0000000000000000000000000000600018004C
:102C10000400030000C0030004001800600000006E
:102C20000000000000000000000000001F003180D4
:102C30003180018007000C000C0000000C00000037
:102C4000000000000000000000000E001100210044
:102C500021002700290029002700200011000E0074
:102C60000000000000000000000000003F000F0016
:102C70000900198019801F8030C030C079E0000041
:102C80000000000000000000000000007F00318014
:102C9000318031803F003180318031807F00000001
:102CA00000000000000000000000C000DF4030C055
:102CB0006040600060006000604030801F000000E5
:102CC0000000000000000000000000007F003180D4
:102CD00030C030C030C030C030C031807F00000014
:102CE0000000000000000000000000007F80308035
:102CF000308032003E003200308030807F80000023
:102D00000000000000000000000000007FC0304014
:102D1000304032003E003200300030007C000000C5
:102D20000000000000000000000000001E80318054
:102D300060806000600067C0618031801F0000001B
:102D40000000000000000000000000007BC0318097
:102D5000318031803F803180318031807BC0000004
:102D60000000000000000000000000003FC006005E
:102D70000600060006000600060006003FC0000030
:102D80000000000000000000000000001FC0030061
:102D90000300030003006300630063003E000000C3
:102DA0000000000000000000000000007BC0318037
:102DB000330036003C003E003300318079C0000013
:102DC0000000000000000000000000007E0018006D
:102DD0001800180018001840184018407FC0000064
:102DE000000000000000000000000000E0E060C003
:102DF00071C07BC06AC06EC064C060C0FBE00000F0
:102E000000000000000000000000000073C03180DE
:102E100039803D8035803780338031807980000073
:102E20000000000000000000000000001F003180D2
:102E300060C060C060C060C060C031801F00000022
:102E40000000000000000000000000007F00318052
:102E50003180318031803F00300030007E00000042
:102E60000000000000000000000000001F00318092
:102E700060C060C060C060C060C031801F000CC016
:102E80001F80000000000000000000007F00318073
:102E9000318031803E003300318031807CE00000A1
:102EA0000000000000000000000000001F803180D2
:102EB000318038001F000380318031803F000000E6
:102EC0000000000000000000000000007F804C8037
:102ED0004C804C800C000C000C000C003F000000EB
:102EE0000000000000000000000000007BC03180F6
:102EF0003180318031803180318031801F0000008D
:102F00000000000000000000000000007BC03180D5
:102F100031801B001B001B000A000E000E00000089
:102F2000000000000000000000000000FBE060C0A6
:102F300064C06EC06EC02A803B803B803180000040
:102F40000000000000000000000000007BC0318095
:102F50001B000E000E000E001B0031807BC0000025
:102F600000000000000000000000000079E030C018
:102F700019800F0006000600060006001F800000F2
:102F80000000000000000000000000003F802180E1
:102F90002300060004000C00188030803F800000F1
:102FA000000000000000000000000780060006008E
:102FB00006000600060006000600060006000600E1
:102FC00007800000000000003000300018001800EA
:102FD0000C000C000600030003000180018000C00B
:102FE00000C000000000000000001E0006000600F7
:102FF00006000600060006000600060006000600A1
:103000001E0000000000000004000A000A00110079
:103010002080208000000000000000000000000070
:1030200000000000000000000000000000000000A0
:103030000000000000000000000000000000000090
:10304000000000000000FFE0080004000200000093
:103050000000000000000000000000000000000070
:103060000000000000000000000000000000000060
:103070001F00018001801F80318033801DC000004F
:103080000000000000000000000070003000300070
:103090003700398030C030C030C039807700000040
:1030A0000000000000000000000000000000000020
:1030B0001E80318060806000608031801F000000D1
:1030C000000000000000000000000380018001807B
:1030D0001D80338061806180618033801DC000006D
:1030E00000000000000000000000000000000000E0
:1030F0001F00318060C07FC0600030C01F800000B2
:103100000000000000000000000007E00C000C00C0
:103110003F800C000C000C000C000C003F800000F5
:10312000000000000000000000000000000000009F
:103130001DC0338061806180618033801D8001808B
:1031400001801F000000000000007000300030000F
:103150003700398031803180318031807BC0000080
:103160000000000000000000000006000600000053
:103170001E00060006000600060006003FC0000014
:103180000000000000000000000006000600000033
:103190003F000300030003000300030003000300DB
:1031A00003003E000000000000007000300030000E
:1031B000378036003C003C003600330077C000000A
:1031C000000000000000000000001E0006000600D5
:1031D0000600060006000600060006003FC00000CC
:1031E00000000000000000000000000000000000DF
:1031F0007F8036C036C036C036C036C076E00000AC
:1032000000000000000000000000000000000000BE
:103210007700398031803180318031807BC000007F
:10322000000000000000000000000000000000009E
:103230001F00318060C060C060C031801F0000008E
:10324000000000000000000000000000000000007E
:103250007700398030C030C030C03980370030004E
:1032600030007C00000000000000000000000000B2
:103270001DC0338061806180618033801D8001804A
:10328000018007C0000000000000000000000000F6
:103290007B801CC018001800180018007F00000078
:1032A000000000000000000000000000000000001E
:1032B0001F8031803C001F00038031803F000000F0
:1032C00000000000000000000000180018001800B6
:1032D0007F00180018001800180018800F00000068
:1032E00000000000000000000000000000000000DE
:1032F0007380318031803180318033801DC0000087
:1033000000000000000000000000000000000000BD
:103310007BC0318031801B001B000E000E000000BE
:10332000000000000000000000000000000000009D
:10333000F1E060C064C06EC03B803B803180000023
:10334000000000000000000000000000000000007D
:103350007BC01B000E000E000E001B007BC0000097
:10336000000000000000000000000000000000005D
:1033700079E030C0198019800B000F0006000600AC
:103380000C003E00000000000000000000000000F3
:103390003F80218003000E00180030803F80000035
:1033A0000000000000000000000006000C000C00FF
:1033B0000C000C000C0018000C000C000C000C00A1
:1033C00006000000000000000000060006000600E5
:1033D00006000600060006000600060006000600BD
:1033E000060000000000000000000C0006000600BF
:1033F00006000600060003000600060006000600A0
:103400000C000000000000000000000000000000B0
:10341000E780A800F00010001000100008000780EE
:10342000000000000000000000000000000000009C
:10343000000000000000000000000000000000008C
:10344000000000000000000000000000000000007C
:10345000000007000700070007000700070007003B
:10346000020002000000000007000700000000004A
:103470000000000000000000000000001CE01CE054
:103480001CE0084008400840000000000000000068
:10349000000000000000000000000000000000002C
:1034A0000CC00CC00CC00CC00CC03FF03FF00CC0F6
:1034B0000CC03FF03FF00CC00CC00CC00CC00CC0E6
:1034C00000000000000000000300030007E00FE020
:1034D000186018001F000FC000E0186018601FC0BF
:1034E0001F80030003000300000000000000000034
:1034F00000001C002200220022001C6001E00F805E
:103500003C0031C002200220022001C00000000067
:10351000000000000000000000000000000003E0C8
:103520000FE00C000C0006000F301FF019E018C06F
:103530001FF007B0000000000000000000000000C5
:1035400000000000038003800380010001000100EF
:10355000000000000000000000000000000000006B
:103560000000000000000000000000C000C001805A
:103570000180018003000300030003000300030037
:1035800001800180018000C000C000000000000038
:1035900000000C000C0006000600060003000300FB
:1035A00003000300030003000600060006000C00F1
:1035B0000C000000000000000000030003000300F6
:1035C0001B601FE0078007800FC00CC000000000D8
:1035D00000000000000000000000000000000000EB
:1035E00000000000000003000300030003003FF0A0
:1035F0003FF0030003000300030000000000000090
:1036000000000000000000000000000000000000BA
:103610000000000000000000000000000000038027
:103620000300030006000600040000000000000084
:1036300000000000000000000000000000003FE06B
:103640003FE000000000000000000000000000005B
:10365000000000000000000000000000000000006A
:1036600000000000000000000000000000000380D7
:103670000380038000000000000000000000000044
:103680000060006000C000C000C001800180030035
:103690000300060006000C000C000C0018001800C7
:1036A000000000000000000000000F801FC018C0D4
:1036B000306030603060306030603060306018C042
:1036C0001FC00F800000000000000000000000008C
:1036D000000003001F001F0003000300030003009D
:1036E00003000300030003001FE01FE000000000D0
:1036F000000000000000000000000F801FC038E044
:103700003060006000C00180030006000C0018005B
:103710003FE03FE00000000000000000000000006B
:1037200000000F803FC030E0006000E007C007C02D
:1037300000E00060006060E07FC03F8000000000AB
:103740000000000000000000000001C003C003C032
:1037500006C00CC00CC018C030C03FE03FE000C045
:1037600003E003E000000000000000000000000093
:1037700000001FC01FC0180018001F801FC018E0E5
:1037800000600060006030E03FC01F80000000006B
:103790000000000000000000000003E00FE01E0039
:1037A0001800380037803FC038E03060306018E0E3
:1037B0001FC00780000000000000000000000000A3
:1037C00000003FE03FE03060006000C000C000C08B
:1037D000018001800180030003000300000000005D
:1037E000000000000000000000000F801FC038E053
:1037F000306038E01FC01FC038E03060306038E013
:103800001FC00F800000000000000000000000004A
:1038100000000F001FC038C03060306038E01FE08B
:103820000F6000E000C003C03F803E0000000000C9
:103830000000000000000000000000000000000088
:10384000000003800380038000000000000003806C
:103850000380038000000000000000000000000062
:103860000000000000000000000001C001C001C015
:1038700000000000000003800300060006000400B2
:103880000000000000000000000000000000003008
:1038900000F003C007001C0078001C00070003C0F4
:1038A00000F00030000000000000000000000000F8
:1038B000000000000000000000007FF07FF000002A
:1038C00000007FF07FF0000000000000000000001A
:1038D00000000000000000000000000000003000B8
:1038E0003C000F00038000E0007800E003800F0040
:1038F0003C0030000000000000000000000000005C
:10390000000000000F801FC018601860006001C038
:103910000380030000000000070007000000000013
:103920000000000000000000000003800C80084040
:103930001040104011C012401240124011C010003F
:1039400008000840078000000000000000000000A0
:10395000000000001F801F80038006C006C00CC04E
:103960000C601FE01FE030307878787800000000AD
:103970000000000000000000000000003F803FC089
:103980001860186018E01FC01FE018701830183059
:103990003FF03FE0000000000000000000000000D9
:1039A000E000A000A7B0CFF01C703830300030002D
:1039B0003000300038301C700FE007C000000000FD
:1039C0000000000000000000000000007F807FC0B9
:1039D00030E030703030303030303030307030E007
:1039E0007FC07F8000000000000000000000000099
:1039F000000000003FF03FF01830183019801F80A1
:103A00001F801980183018303FF03FF00000000090
:103A10000000000000000000000000003FF03FF048
:103A20001830183019801F801F8019801800180066
:103A30003F003F0000000000000000000000000008
:103A40000000000007B01FF0187030303000300068
:103A500031F831F8303018301FF007C00000000096
:103A60000000000000000000000000003CF03CF0FE
:103A70001860186018601FE01FE018601860186078
:103A80003CF03CF0000000000000000000000000DE
:103A9000000000001FE01FE003000300030003001C
:103AA00003000300030003001FE01FE0000000000C
:103AB00000000000000000000000000003F803F810
:103AC000006000600060006030603060306030E0B6
:103AD0003FC00F8000000000000000000000000058
:103AE000000000003EF83EF818E019801B001F009F
:103AF0001D8018C018C018603E783E3800000000D5
:103B00000000000000000000000000003F003F0037
:103B10000C000C000C000C000C000C300C300C30B5
:103B20003FF03FF000000000000000000000000037
:103B3000000000007878787838703CF034B037B006
:103B400037B03330333030307CF87CF80000000080
:103B500000000000000000000000000039F03DF00F
:103B60001C601E601E601B601B6019E019E018E0FD
:103B70003EE03E6000000000000000000000000089
:103B80000000000007800FC01CE03870303030307B
:103B90003030303038701CE00FC00780000000006B
:103BA0000000000000000000000000003FC03FE0F7
:103BB00018701830183018701FE01FC01800180057
:103BC0003F003F0000000000000000000000000077
:103BD0000000000007800FC01CE03870303030302B
:103BE0003030303038701CE00FC0078007B00FF065
:103BF0000CE0000000000000000000003FC03FE0BB
:103C00001870183018701FE01FC018E01860187086
:103C10003E383E18000000000000000000000000D8
:103C2000000000000FB01FF03870303038001F80E7
:103C300007E00070303038703FE037C0000000000F
:103C40000000000000000000000000003FF03FF016
:103C5000333033303330030003000300030003002C
:103C60000FC00FC0000000000000000000000000B6
:103C7000000000003CF03CF018601860186018600C
:103C80001860186018601CE00FC00780000000007A
:103C900000000000000000000000000078F078F054
:103CA0003060306018C018C00D800D800D80070096
:103CB00007000700000000000000000000000000F6
:103CC000000000007C7C7C7C30183398339833985B
:103CD00036D816D01C701C701C7018300000000004
:103CE00000000000000000000000000078F078F004
:103CF000306018C00D80070007000D8018C03060CC
:103D000078F078F0000000000000000000000000E3
:103D1000000000003CF03CF018600CC007800780F9
:103D200003000300030003000FC00FC000000000E9
:103D30000000000000000000000000001FE01FE085
:103D4000186018C001800300030006000C601860B2
:103D50001FE01FE000000000000000000000000065
:103D6000000003C003C003000300030003000300BE
:103D7000030003000300030003000300030003C06B
:103D800003C0000000000000180018000C000C0028
:103D90000C0006000600030003000180018000C043
:103DA00000C000C0006000600000000000000000D3
:103DB00000000F000F0003000300030003000300D6
:103DC00003000300030003000300030003000F00CF
:103DD0000F000000000000000000020007000D803E
:103DE00018C030602020000000000000000000002B
:103DF00000000000000000000000000000000000C3
:103E000000000000000000000000000000000000B2
:103E100000000000000000000000000000000000A2
:103E200000000000FFFCFFFC000004000300008015
:103E30000000000000000000000000000000000082
:103E40000000000000000000000000000000000072
:103E5000000000000000000000000FC01FE0006034
:103E60000FE01FE0386030E03FF01F7000000000FE
:103E70000000000000000000000070007000300032
:103E8000300037803FE038603030303030303860DC
:103E90007FE07780000000000000000000000000CC
:103EA0000000000000000000000007B01FF0183004
:103EB00030303000300038301FF00FC000000000FC
:103EC00000000000000000000000007000700030E2
:103ED000003007B01FF0187030303030303038709C
:103EE0001FF807B8000000000000000000000000FC
:103EF0000000000000000000000007801FE01860C4
:103F00003FF03FF0300018301FF007C00000000005
:103F10000000000000000000000003F007F00600B1
:103F200006001FE01FE0060006000600060006006F
:103F30001FE01FE000000000000000000000000083
:103F40000000000000000000000007B81FF8187013
:103F500030303030303018701FF007B00030007053
:103F60000FE00FC00000000000003800380018000B
:103F700018001BC01FE01C601860186018601860F3
:103F80003CF03CF0000000000000000000000000D9
:103F9000000003000300000000001F001F000300DA
:103FA00003000300030003001FE01FE00000000007
:103FB00000000000000000000000030003000000FB
:103FC00000001FC01FC000C000C000C000C000C073
:103FD00000C000C000C001C03F803F0000000000E2
:103FE000000038003800180018001BE01BE01B0020
:103FF0001E001E001B00198039F039F0000000007F
:10400000000000000000000000001F001F0003006F
:104010000300030003000300030003000300030088
:104020001FE01FE000000000000000000000000092
:10403000000000000000000000007EE07FF0333050
:1040400033303330333033307BB87BB8000000007E
:104050000000000000000000000000000000000060
:1040600000003BC03FE01C601860186018601860DA
:104070003CF03CF0000000000000000000000000E8
:104080000000000000000000000007801FE0186032
:1040900030303030303018601FE007800000000002
:1040A0000000000000000000000000000000000010
:1040B000000077807FE0386030303030303038605A
:1040C0003FE03780300030007C007C0000000000C2
:1040D0000000000000000000000007B81FF8187082
:1040E00030303030303018701FF007B00030003002
:1040F00000F800F8000000000000000000000000D0
:1041000000003CE03DF00F300E000C000C000C00F5
:104110003FC03FC0000000000000000000000000A1
:104120000000000000000000000007E01FE0186031
:104130001E000FC001E018601FE01F80000000009B
:104140000000000000000000000000000C000C0057
:104150000C003FE03FE00C000C000C000C000C30A9
:104160000FF007C000000000000000000000000089
:104170000000000000000000000038E038E0186097
:1041800018601860186018E01FF00F700000000041
:10419000000000000000000000000000000000001F
:1041A000000078F078F0306018C018C00D800D80E5
:1041B00007000700000000000000000000000000F1
:1041C0000000000000000000000078F078F032608D
:1041D000326037E01DC01DC018C018C000000000CC
:1041E00000000000000000000000000000000000CF
:1041F00000003CF03CF00CC00780030007800CC0BE
:104200003CF03CF000000000000000000000000056
:104210000000000000000000000078F078F030603E
:1042200018C018C00D800F800700060006000C00A3
:104230007F007F0000000000000000000000000080
:1042400000001FE01FE018C00180030006000C60A2
:104250001FE01FE000000000000000000000000060
:10426000000001C003C003000300030003000300BB
:1042700007000E000700030003000300030003C053
:1042800001C0000000000000000003000300030064
:104290000300030003000300030003000300030006
:1042A00003000300030003000300000000000000FF
:1042B00000001C001E0006000600060006000600A6
:1042C00007000380070006000600060006001E0027
:1042D0001C000000000000000000000000000000C2
:1042E000000000000E003F3033F001E0000000004D
:1042F00000000000000000000000000000000000BE
:1043000000000000000000000000000000000000AD
:10431000000000000000000000000000000000009D
:10432000000000000000000000000000000000008D
:10433000000000000000000000000000000000007D
:10434000000000000000000000000000000000006D
:10435000000000000000000000000000000000005D
:10436000000000000000000000000000000000004D
:10437000000000000000000000000000000000003D
:10438000000000000000000000000000000000002D
:10439000000000000000000000000000000000001D
:1043A000000000000000000000000000000000000D
:1043B00000000000000000000000000000000000FD
:1043C00000000000000000000000000000000000ED
:1043D00000000000000000000000000000000000DD
:1043E00000000000000000000000000000000000CD
:1043F00000000000000000000000000000000000BD
:1044000000000000000000000000000000000000AC
:10441000000000000000000000000000000000009C
:10442000000000000000000000000000000000008C
:10443000000000000000000000000000000000007C
:10444000000000000000000000000000000000006C
:10445000000000000000000000000000000000005C
:10446000000000000000000000000000000000004C
:10447000000000000000000000000000000000003C
:10448000000000000000000000000000000000002C
:10449000000000000000000000000000000000001C
:1044A000000000000000000000000000000000000C
:1044B00000000000000000000000000000000000FC
:1044C00000000003FF00000003FF00000003FF00E6
:1044D000000003FF00000003FF00000001FF0000D8
:1044E0000001FF00000001FF00000001FF000000CC
:1044F00001FF00000001FF00000001FF00000001BB
:10450000FF00000001FF00000001FF00000001FFAC
:1045100000000001FF00000001FF00000001FF009B
:10452000000001FE00000001FE00000001FE00008E
:104530000001FE00000001FE00000000FE0000007F
:1045400000FE00000000FE00000000FE0000000071
:10455000FE00000000FE00000000FE00000000FE63
:1045600000000000FE00000000FE00000000FE0051
:10457000000000FE00000000FE00000000FE000041
:104580000000FC00000000FC00000000FC00000037
:1045900000FC00000000000000000000000000001F
:1045A000000000000000000000000000000000000B
:1045B00000000003FF80000003FF80000003FF8075
:1045C000000003FF80000003FF80000003FF800065
:1045D0000003FF80000003FF80000003FF80000055
:1045E00003FF0000000000000000000000000000C9
:1045F00000000000000000000000000000000000BB
:1046000000000000000000000000000000000000AA
:10461000000000000000000000000000000000009A
:10462000000000000000000000000000000000008A
:10463000000000000000000000000000000000007A
:10464000000000000000000000000000000000006A
:10465000000000000000000000000000007FC3FE1A
:1046600000007FC3FE00007FC3FC00003FC3FC00CE
:10467000003F83FC00003F83FC00003F83FC000000
:104680003F83FC00003F83FC00003F83F800003FB5
:1046900083F800003F81F800003F81F800003F816F
:1046A000F800003F81F800003F01F800003F01F8EA
:1046B00000000000000000000000000000000000FA
:1046C00000000000000000000000000000000000EA
:1046D00000000000000000000000000000000000DA
:1046E00000000000000000000000000000000000CA
:1046F00000000000000000000000000000000000BA
:1047000000000000000000000000000000000000A9
:104710000000000000000000000000000000000099
:104720000000000000000000000000000000000089
:104730000000000000000000000000000000000079
:104740000000000000000000000000000000000069
:104750000000000000000000000000000000000059
:104760000000000000000000000000000000000049
:104770000000000000000000000000000000000039
:104780000000000000000000000000000000000029
:104790000000000000000000000000000000000019
:1047A0000000000000000000000000000000000009
:1047B00000000000000000000000000000000000F9
:1047C00000000000000000000000000000000000E9
:1047D00000000000000000000000000000000000D9
:1047E00000000000000000000000000000000000C9
:1047F000000000000000000FC01FC0000FC01FC05D
:10480000000FC01FC0000FC01F80001FC01F80000E
:104810001FC01F80001FC01F80001FC03F80001FDF
:10482000803F80001F803F80001F803F00001F806E
:104830003F00003F803F00003F803F007FFFFFFFC1
:10484000FC7FFFFFFFFC7FFFFFFFFC7FFFFFFFFC04
:104850007FFFFFFFFC7FFFFFFFFC007F007E00006B
:104860007F007E00007F007E00007F00FE00007E53
:1048700000FE00007E00FE00007E00FC0000FE0046
:10488000FC0000FE00FC0000FE00FC0000FE01FC3D
:104890000000FC01FC0000FC01FC007FFFFFFFFCAE
:1048A0007FFFFFFFFC7FFFFFFFFC7FFFFFFFFC7F21
:1048B000FFFFFFFC7FFFFFFFFC01FC03F80001F896
:1048C00003F80001F803F80001F803F00003F8030F
:1048D000F00003F803F00003F803F00003F807F01A
:1048E0000003F007F00003F007F00003F007F0000A
:1048F00003F007E00007F007E00007F007E000071B
:10490000F007E000000000000000000000000000D0
:104910000000000000000000000000000000000097
:104920000000000000000000000000000000000087
:104930000000000000000000000000000000000077
:104940000000000000000000000000000000000067
:104950000000000000000000000000000000000057
:104960000000000000FC00000000FC00000000FC53
:1049700000000000FC00000000FC00000000FC0043
:10498000000003FF8000000FFFF000003FFFF80071
:10499000007FFFFC0000FFFFFE0001FFFFFF0003A0
:1049A000FFFFFF0003FEFDFF8007FCFCFF8007F810
:1049B000FC7F8007F8FC7FC007F8FC7FC007F8FC8D
:1049C0003FC007F8FC3FC007F8FC3FC007F8FC00F9
:1049D0000007F8FC000007FCFC000007FCFC0000DE
:1049E00003FEFC000003FFFC000001FFFC000000D0
:1049F000FFFC000000FFFC0000003FFF0000001F64
:104A0000FFC000000FFFE0000003FFF0000000FF08
:104A1000FC000000FFFE000000FFFF000000FFFFA1
:104A2000000000FFFF800000FDFFC00000FCFFC091
:104A30000000FC7FC00000FC3FE01FF0FC3FE01FD7
:104A4000F0FC3FE01FF0FC3FE01FF0FC3FE00FF008
:104A5000FC3FE00FF0FC3FE00FF8FC3FE00FF8FCFC
:104A60003FC00FF8FC3FC007FCFC7FC007FEFCFF07
:104A70008003FFFFFF8003FFFFFF0001FFFFFF0038
:104A800000FFFFFE00007FFFFC00003FFFF0000082
:104A90000FFFC0000000FC00000000FC0000000050
:104AA000FC00000000FC00000000FC00000000FC16
:104AB00000000000FC00000000FC000000000000FE
:104AC00000000000000000000000000000000000E6
:104AD00000000000000000000000000000000000D6
:104AE00000000000000000000000000000000000C6
:104AF00000000000000000000000000000000000B6
:104B000000000000000000000000000000000000A5
:104B10000001F000030007FC0007800FFE00078083
:104B20001FFF000F801FFF800F003FBF801F003F4F
:104B30001F801E003F1FC03E003F1FC03C007F0F74
:104B4000C07C007F0FC078007F0FC078007F0FC04F
:104B5000F8007F0FC0F0007F0FC1F0007F0FC1E0B1
:104B6000007F0FC3E0007F0FC3C0007F0FC7C000EE
:104B70007F0FC780003F1FC780003F1FCF80003FCF
:104B80001F8F00003FFF9F00001FFF9E00001FFFC0
:104B90003E00000FFE3C000007FC7C3F8000F078E8
:104BA000FFC0000079FFE00000F1FFF00000F3FF1C
:104BB000F80001F3F3F80001E7F1F80003E7F1F87A
:104BC0000003C7F1FC0007C7E1FC000787E1FC0018
:104BD0000F87E1FC000F07E1FC000F07E1FC001F5D
:104BE00007E1FC001E07E1FC003E07E1FC003C077A
:104BF000E1FC007C07E1FC007807F1FC00F807F11C
:104C0000F800F007F1F800F003F3F801F003FFF803
:104C100001E001FFF003E001FFE003C000FFC0037B
:104C2000C0003F8000000000000000000000000005
:104C30000000000000000000000000000000000074
:104C40000000000000000000000000000000000064
:104C50000000000000000000000000000000000054
:104C60000000000000000000000000000000000044
:104C70000000000000000000000000000000000034
:104C80000000000000000000000000000000000024
:104C90000000000000000000000000000000000014
:104CA000000001FC0000000FFF8000001FFFC0009B
:104CB000003FFFE000007FFFF00000FFFFF000007A
:104CC000FFDFF80001FF07F80001FE07F80001FE12
:104CD00003F80001FC03F80001FC03F80001FC03E9
:104CE000F80001FC07F80001FC07F80001FC07F8D8
:104CF0000001FE0FF00001FE0FF00000FE1FE000BB
:104D000000FF3FE00000FFFFC000007FFF800000C9
:104D10007FFF0000007FFE0000003FF80000003F22
:104D2000F00000007FE0000001FFE0000003FFF062
:104D3000000007FFF8000007FFF807F00FF7FC0777
:104D4000F01FE3FC07F03FE3FE07F03FC1FF0FF069
:104D50003FC0FF8FF07FC0FF8FF07F807FCFF07F5D
:104D6000803FEFE07F801FFFE07F801FFFE07F80BC
:104D70000FFFC07F8007FFC07FC003FFC03FC0019F
:104D8000FFC03FE000FFE03FE001FFF01FF803FF3E
:104D9000FC1FFE0FFFFE0FFFFFFFFC07FFFFFFFCE6
:104DA00003FFFFF3F801FFFFE1F8007FFF807000D1
:104DB0001FFE0030000000000000000000000000A6
:104DC00000000000000000000000000000000000E3
:104DD00000000000000000000000000000000000D3
:104DE00000000000000000000000000000000000C3
:104DF00000000000000000000000000000000000B3
:104E000000000000000000000000000000000000A2
:104E10000000000000000000000000000000000092
:104E20000000000000000000000000000000000082
:104E3000000007FC00000007FC00000007FC000069
:104E40000007F800000007F800000003F800000069
:104E500003F800000003F800000003F8000000035E
:104E6000F800000003F800000003F800000003F061
:104E700000000003F000000003F000000003F00059
:104E8000000003F00000000000000000000000002F
:104E90000000000000000000000000000000000012
:104EA0000000000000000000000000000000000002
:104EB00000000000000000000000000000000000F2
:104EC00000000000000000000000000000000000E2
:104ED00000000000000000000000000000000000D2
:104EE00000000000000000000000000000000000C2
:104EF00000000000000000000000000000000000B2
:104F000000000000000000000000000000000000A1
:104F10000000000000000000000000000000000091
:104F20000000000000000000000000000000000081
:104F30000000000000000000000000000000000071
:104F40000000000000000000000000000000000061
:104F50000000000000000000000000000000000051
:104F60000000000000000000000000000000000041
:104F70000000000000000000000000000000000031
:104F80000000000000000000000000000000000021
:104F90000000000000000000000000000000000011
:104FA00000006000000000F000000001F8000000B8
:104FB00003FC00000007F80000000FF00000000FE5
:104FC000E00000001FE00000003FC00000007F8004
:104FD0000000007F00000000FE00000001FE000055
:104FE0000001FC00000003F800000003F8000000CE
:104FF00007F000000007E00000000FE00000000FD5
:10500000E00000000FC00000001FC00000001F8073
:105010000000001F800000003F800000003F800073
:1050200000003F000000003F000000003F000000C3
:10503000003F000000003F000000007F0000000073
:105040007F000000007F000000007F000000007F64
:10505000000000007F000000007F000000003F0013
:105060000000003F000000003F000000003F000083
:1050700000003F000000003F000000003F800000F3
:10508000001F800000001F800000001F8000000043
:105090001FC00000000FC00000000FE00000000F64
:1050A000E000000007F000000007F000000003F837
:1050B00000000003F800000001FC00000000FE00FA
:1050C000000000FE000000007F000000003F8000A4
:1050D00000003FC00000001FE00000000FF00000D3
:1050E0000007F800000003FC00000001F8000000C9
:1050F00001F000000000E0000000000000000000DF
:10510000000000000000000000000000000000009F
:10511000000000000000000000000000000000008F
:1051200000000000000000000000000000000C0073
:105130000000001E000000003F000000007F800013
:1051400000003FC00000001FE00000000FE0000072
:105150000007F000000007F800000003FC0000005A
:1051600001FC00000000FE000000007F00000000C5
:105170007F000000003F800000003F800000001F13
:10518000C00000000FC00000000FE000000007E0BA
:1051900000000007E000000007F000000003F0003E
:1051A000000003F000000003F800000003F8000016
:1051B0000001F800000001F800000001F800000004
:1051C00001F800000001FC00000001FC00000001EB
:1051D000FC00000001FC00000001FC00000001FCDC
:1051E00000000001FC00000001FC00000001FC00C8
:1051F000000001F800000001F800000001F80000C4
:105200000001F800000001F800000003F8000000B1
:1052100003F800000003F000000003F000000007A6
:10522000F000000007E00000000FE00000000FE0C9
:105230000000001FC00000001FC00000003F8000F1
:1052400000003F800000007F00000000FE00000022
:1052500000FE00000001FC00000003F80000000751
:10526000F80000000FF00000001FE00000003FC049
:105270000000007F800000003F800000001F000051
:1052800000000E0000000000000000000000000010
:10529000000000000000000000000000000000000E
:1052A00000000000000000000000000000000000FE
:1052B00000000000000000000000000000000000EE
:1052C00000000000000000000000000000000000DE
:1052D00000000000000000000000000000000000CE
:1052E000000000FF00000000FF00000000FF0000C1
:1052F0000000FF00000000FF00000000FF000000B1
:1053000000FF00000C00FF00301F00FF00F81F80AE
:105310007E01F83FE07E07FC3FF07E0FFC7FFC7EC5
:105320003FFE3FFF7EFFFC0FFFFFFFF003FFFFFF8D
:10533000C000FFFFFF00007FFFFE00001FFFF8001E
:105340000007FFE000000FFFF000003FFFFC00003F
:10535000FFFFFF0001FFFFFF8007FFFFFFE01FFFD0
:105360007EFFF87FFE7E7FFE7FF87E1FFE3FF07E91
:105370000FFC3FC07E03FC1F00FF00F80E00FF0083
:10538000700000FF00000000FF00000000FF0000B0
:105390000000FF00000000FF00000000FF00000010
:1053A00000FF00000000FF000000000000000000FF
:1053B00000000000000000000000000000000000ED
:1053C00000000000000000000000000000000000DD
:1053D00000000000000000000000000000000000CD
:1053E00000000000000000000000000000000000BD
:1053F00000000000000000000000000000000000AD
:10540000000000000000000000000000000000009C
:10541000000000000000000000000000000000008C
:10542000000000000000000000000000000000007C
:10543000000000000000000000000000000000006C
:10544000000000000000000000000000000000005C
:10545000000000000000000000000000000000004C
:10546000000000000000000000000000000000003C
:10547000000000000000000000000000000000002C
:10548000000000000000000000000000000000001C
:10549000000000000000000000000000000000000C
:1054A000FE00000000FE00000000FE00000000FE04
:1054B00000000000FE00000000FE00000000FE00F2
:1054C000000000FE00000000FE00000000FE0000E2
:1054D0000000FE00000000FE00000000FE000000D2
:1054E00000FE00000000FE00007FFFFFFFFC7FFFCA
:1054F000FFFFFC7FFFFFFFFC7FFFFFFFFC7FFFFF45
:10550000FFFC7FFFFFFFFC0000FE00000000FE002C
:10551000000000FE00000000FE00000000FE000091
:105520000000FE00000000FE00000000FE00000081
:1055300000FE00000000FE00000000FE0000000071
:10554000FE00000000FE00000000FE00000000FE63
:10555000000000000000000000000000000000004B
:10556000000000000000000000000000000000003B
:10557000000000000000000000000000000000002B
:10558000000000000000000000000000000000001B
:10559000000000000000000000000000000000000B
:1055A00000000000000000000000000000000000FB
:1055B00000000000000000000000000000000000EB
:1055C00000000000000000000000000000000000DB
:1055D00000000000000000000000000000000000CB
:1055E00000000000000000000000000000000000BB
:1055F00000000000000000000000000000000000AB
:10560000000000000000000000000000000000009A
:10561000000000000000000000000000000000008A
:10562000000000000000000000000000000000007A
:10563000000000000000000000000000000000006A
:10564000000000000000000000000000000000005A
:10565000000000000000000000000000000000004A
:10566000000000000000000000000000000000003A
:10567000000000000000000000000000000000002A
:10568000000000000000000000000000000000001A
:10569000000000000000000000000000000000000A
:1056A00000000000000000000000000000000000FA
:1056B00000000000000000000000000000000000EA
:1056C00000000000000000000000000000000000DA
:1056D00000000000000000000000000000000000CA
:1056E00000000000000000000000000003FC0000BB
:1056F0000003FE00000003FE00000003FE000000A7
:1057000003FE00000003FE00000003FE0000000393
:10571000FC000000007C00000000FC00000000F81D
:1057200000000001F800000001F000000001F0009E
:10573000000003E000000003E000000000000000A3
:105740000000000000000000000000000000000059
:105750000000000000000000000000000000000049
:105760000000000000000000000000000000000039
:105770000000000000000000000000000000000029
:105780000000000000000000000000000000000019
:105790000000000000000000000000000000000009
:1057A00000000000000000000000000000000000F9
:1057B00000000000000000000000000000000000E9
:1057C00000000000000000000000000000000000D9
:1057D00000000000000000000000000000000000C9
:1057E00000000000000000000000000000000000B9
:1057F00000000000000000000000000000000000A9
:105800000000000000000000007FFFFFFFFC7FFFA2
:10581000FFFFFC7FFFFFFFFC7FFFFFFFFC7FFFFF21
:10582000FFFC7FFFFFFFFC00000000000000000005
:105830000000000000000000000000000000000068
:105840000000000000000000000000000000000058
:105850000000000000000000000000000000000048
:105860000000000000000000000000000000000038
:105870000000000000000000000000000000000028
:105880000000000000000000000000000000000018
:105890000000000000000000000000000000000008
:1058A00000000000000000000000000000000000F8
:1058B00000000000000000000000000000000000E8
:1058C00000000000000000000000000000000000D8
:1058D00000000000000000000000000000000000C8
:1058E00000000000000000000000000000000000B8
:1058F00000000000000000000000000000000000A8
:105900000000000000000000000000000000000097
:105910000000000000000000000000000000000087
:105920000000000000000000000000000000000077
:105930000000000000000000000000000000000067
:105940000000000000000000000000000000000057
:105950000000000000000000000000000000000047
:105960000000000000000000000000000000000037
:105970000000000000000000000000000000000027
:105980000000000000000000000000000000000017
:105990000000000000000000000000000000000007
:1059A00000000000000000000000000000000000F7
:1059B00000000000000000000000000000000000E7
:1059C00000000000000000000000000000000000D7
:1059D00000000000000000000000000000000000C7
:1059E00000000000000000000000000000000000B7
:1059F00000000000000000000000000000000000A7
:105A000000000000000000000000000003FC000097
:105A10000007FC00000007FC00000007FC0000007D
:105A200007FC00000007FC00000007FC000000036A
:105A3000FC0000000000000000000000000000006A
:105A40000000000000000000000000000000000056
:105A50000000000000000000000000000000000046
:105A60000000000000000000000000000000000036
:105A70000000000000000000000000000000000026
:105A80000000000000000000000000000000000016
:105A90000000000000000000000000000000000006
:105AA00000000000000070000000007C000000000A
:105AB000FC00000000F800000001F800000001F008
:105AC00000000003F000000003E000000007E00019
:105AD00000000FC00000000FC00000001F80000089
