:020000040800F2
:10000000C818002009010008191C0008D3010008C5
:10001000151C000837030008B12600080000000086
:10002000000000000000000000000000B1210008F6
:100030003B030008000000005B010008B32100083A
:100040002301000823010008230100082301000800
:1000500023010008230100082301000823010008F0
:1000600023010008230100082301000823010008E0
:1000700023010008230100082301000823010008D0
:1000800023010008230100082301000823010008C0
:1000900023010008230100082301000823010008B0
:1000A00000000000230100082301000823010008CC
:1000B0002301000823010008230100082301000890
:1000C0002301000823010008230100082301000880
:1000D00023010008A12600082301000823010008CD
:1000E0002301000823010008230100082301000860
:1000F00023010008DFF80CD000F006F900480047A3
:100100002D030008C818002006488047064800470D
:10011000FEE7FEE7FEE7FEE7FEE7FEE7FEE7FEE7B7
:10012000FEE7FEE711230008F5000008EFF310805A
:1001300072B6704780F310887047334A1368012BFA
:1001400004D04FF001031360304A1060304A116050
:1001500030484FF0805101607047EFF3108272B663
:100160002948016891B14FF00001016027480168FA
:1001700029B1EFF3098121E9F00F006801602449FA
:1001800009680968B1E8F00F81F3098882F31088E3
:100190004EF0040E70471E4908601C494FF00000E5
:1001A000086019494FF0010008601B484FF47F01B7
:1001B000D0F8002041EA0201016016484FF080515A
:1001C000016016480068006880F3088861B662B66E
:1001D00070471EF0040F0CBFEFF30880EFF30980A7
:1001E00020E9F00F40F804ED1EF0040F0CBF80F37F
:1001F000088880F3098800B502F0CEFE5DF804EBB4
:100200004EF0040E70470000D4000020CC00002007
:10021000D000002004ED00E020ED00E008ED00E05B
:100220002DE9F05F0546002092469B46884606462B
:10023000814640241BE0284641464746224600F0BE
:1002400053F853465A46C01A914110D311461846E6
:10025000224600F03AF82D1A67EB01084F46224675
:100260000120002100F031F817EB00094E41201E5B
:10027000A4F10104DFDC484631462A464346BDE886
:10028000F09F40EA01039B0703D009E008C9121F51
:1002900008C0042AFAD203E011F8013B00F8013B40
:1002A000521EF9D27047D2B201E000F8012B491E6C
:1002B000FBD270470022F6E710B513460A46044603
:1002C0001946FFF7F0FF204610BD202A04DB203A34
:1002D00000FA02F1002070479140C2F1200320FA99
:1002E00003F3194390407047202A04DB203A21FA97
:1002F00002F00021704721FA02F3D040C2F120023F
:100300009140084319467047064C074D06E0E068E7
:1003100040F0010394E8070098471034AC42F6D34C
:10032000FFF7ECFEB48A0008D48A000810B503F089
:10033000FDFD002010BD00BFFEE77047F8B5044684
:100340000F466069401E00902069431E002211463E
:10035000204600F059F9002517E02A4600212046E2
:1003600000F07FF92421204600F0B4F8002604E0D4
:100370003946204600F0BAF8761C2069C11700EB18
:100380005171B6EBE10FF3DB6D1C6069A842E4DC50
:10039000F8BD70B505460C46204600F08EF970BDDC
:1003A00070B505460C46204600F08EF970BD70B55C
:1003B00006460C4615462946204600F099F970BDC0
:1003C00010B504462221204600F084F8C4212046BE
:1003D00000F08CF82021204600F07CF8FF21204618
:1003E00000F078F8204600F05AF910BD70B50446C8
:1003F0000D4601202060022060600020A0600320E4
:10040000E06080202061FA20606100F091F910B175
:100410004FF0FF3070BDA561204600F046F8012185
:10042000204600F057F8F921204600F05FF800213F
:10043000204600F05BF80021204600F057F80C2120
:10044000204600F047F8D721204600F04FF8D6218B
:10045000204600F04BF89D21204600F047F82C2163
:10046000204600F037F8A821204600F03FF83A2156
:10047000204600F02FF81A21204600F037F83B21E3
:10048000204600F027F80821204600F02FF811211F
:10049000204600F01FF80321204600F027F82046F0
:1004A000A16900F09EF80020B4E710B504460022D0
:1004B00020462168FFF77BFF14212046FFF769FFE4
:1004C000012220462168FFF772FF14212046FFF722
:1004D00060FF10BD70B504460D46002220466168DD
:1004E000FFF765FF284600F041F970BD70B504467E
:1004F0000D46012220466168FFF759FF284600F0AB
:1005000035F970BD2DE9FF4F83B0804614461D4676
:10051000109E049840B1002C06DB002E04DB002D59
:1005200002DB1198002802DA07B0BDE8F08F04F072
:10053000F80406F0F806A019D8F81010884203DB7A
:10054000D8F81000471E01E0A019471E1198284452
:10055000D8F81410884204DBD8F81400A0F101097F
:1005600003E011982844A0F101093B462A462146A0
:100570004046CDF8009000F047F8AA462DE05246DC
:100580002146404600F06DF824214046FFF7A2FFC7
:100590002046E11704EB51714FEAE10B15E0E0173B
:1005A00004EB5070ABEBE000F21706EB5272D21086
:1005B000AAEB050303FB0202CDE901460498815C26
:1005C0004046FFF793FF0BF1010BF91707EB517151
:1005D000BBEBE10FE3DD0AF1010ACA45CFDD00BF45
:1005E000A2E770B504460E46A66132212046FFF709
:1005F00071FF002505E0A069415D2046FFF776FF09
:100600006D1C1E2DF7DB70BD2DE9F04180460D46B7
:1006100014461E46069F44214046FFF75BFFC5F384
:10062000C7014046FFF762FFC6F3C7014046FFF728
:100630005DFF45214046FFF74DFFE1B24046FFF721
:1006400055FFC4F307214046FFF750FFF9B240467B
:10065000FFF74CFFC7F307214046FFF747FFBDE810
:10066000F08170B506460D4614464E213046FFF720
:1006700031FFC5F3C7013046FFF738FF4F21304641
:10068000FFF728FFE1B23046FFF730FFC4F3072140
:100690003046FFF72BFF304600F001F870BD10B573
:1006A000044603E00A212046FFF773FE2046E16876
:1006B000FFF776FE0128F5D010BD10B504462046A0
:1006C00003F07AF810BD000010B50446074A02EBAB
:1006D000C402928891B2054A52F8340000F07CF9C5
:1006E000012800D110BD0020FCE70000DC00002044
:1006F00070B504460D46012D0BD10C4A02EBC40225
:10070000928891B2094A52F83400012200F076F939
:100710000AE0064A02EBC402928891B2034A52F8F8
:100720003400002200F06AF970BD0000DC000020F7
:1007300009480A4A06CA06C00838094A06CAC0E972
:100740000212084A06CAC0E90412074A06CAC0E9EA
:100750000612002070470000DC000020000000208E
:1007600008000020100000201800002001B50C4AED
:10077000928891B20A4A1068002200F03FF94FF4C3
:100780007A7301226946074800F016FF044A9288EE
:1007900091B2034A1068012200F030F908BD000050
:1007A000DC000020FC100020704770B504460025D6
:1007B00094F82100022803D00420A063012520E042
:1007C0002068006820F00E0021680860206800683A
:1007D00020F001002168086094F8400000F01C013E
:1007E00001208840E16B4860012084F8210000BFAF
:1007F000002084F8200000BF606B10B12046616BC0
:100800008847284670BD000078B5034600220024C2
:100810000020CAE0012696400D6805EA0604002C77
:1008200071D04D68012D08D04D68022D05D04D685E
:10083000112D02D04D68122D13D198685600032552
:10084000B540A8435600CD68B54028439860586825
:1008500001259540A8430D79C5F30015954028431F
:100860005860D86856000325B540A84356008D68E7
:10087000B5402843D8604D68022D02D04D68122D36
:1008800013D1D60803F1200555F826005507EE0EC2
:100890000F25B540A8435607F60E0D69B54028430D
:1008A000D60803F1200545F82600186856000325F0
:1008B000B540A8430D7905F003055600B54028431F
:1008C00018604D6805F08055B5F1805F6CD100BFB0
:1008D000394D2D6845F00105374E356035462D6898
:1008E00005F00105009500BF00BF344D960855F88E
:1008F000260095072E0F0F25B540A843304DAB427B
:1009000002D1002515E04FE02E4DAB4201D101256B
:100910000FE02D4DAB4201D102250AE02B4DAB4239
:1009200001D1032505E02A4DAB4201D1042500E0A9
:1009300005259607360FB5402843204D960845F803
:100940002600244D2868A0434D6805F48035B5F590
:10095000803F00D120431F4D28602D1D2868A043F3
:100960004D6805F40035B5F5003F00D12043194D21
:100970002D1D28602D1D2868A0434D6805F48015A5
:10098000B5F5801F00D12043124D083528602D1D7C
:100990002868A0434D6805F40015B5F5001F00D187
:1009A00020430C4D0C352860521C0D68D540002D9D
:1009B0007FF430AF78BD00002038024008000140CD
:1009C000000002400004024000080240000C024007
:1009D0000010024000040140024613690B400BB1B5
:1009E000012000E00020704710B5426921EA0203AF
:1009F00002EA010443EA0443836110BD0AB1816144
:100A000001E00B04836170470148006870470000F3
:100A10004000002010B50024032000F0B3F80020AF
:100A200000F008F808B1012401E000F02FF820469A
:100A300010BD000070B50446002511480068D8B10B
:100A40000F4800684FF47A71B1FBF0F00D49096866
:100A5000B1FBF0F6304600F086FE58B9102C07D2F4
:100A600000222146501E00F04FF80748046004E0C1
:100A7000012502E0012500E00125284670BD0000A7
:100A8000480000204C0000204400002008B500BFB2
:100A90001448006840F000401249086008460068A9
:100AA00000F00040009000BF00BF00BF081F0068BA
:100AB00040F00100091F08600846006800F00100CE
:100AC000009000BF00BF00BF081D006840F08050CC
:100AD000091D08600846006800F08050009000BFC3
:100AE00000BF08BD2438024001460846002809DB43
:100AF00000F01F0301229A4043099B0003F1E02309
:100B0000C3F8002100BF70472DE9F05F80460D4615
:100B10001646002701F0E6FD074639462A463346C9
:100B200001F00700C0F1070ABAF1040F02D94FF033
:100B3000040A01E0C0F1070AD14600F1040ABAF143
:100B4000070F02D24FF0000A01E0A0F1030AD446D9
:100B50004FF0010A0AFA09FAAAF1010A0AEA020A9E
:100B60000AFA0CFA4FF0010B0BFA0CFBABF1010B7C
:100B70000BEA030B4AEA0B042146404601F0BAFD9A
:100B8000BDE8F09F00BF00F00702064B19684FF662
:100B9000FF031940044B0B4343EA0221014B196048
:100BA00000BF70470CED00E00000FA052DE9F041B0
:100BB00004460D4614B90120BDE8F0817E48006866
:100BC00000F00100A84218D200BF012D05D17A48DB
:100BD000006840F00400784908607748006820F019
:100BE000010028437449086000BF0846006800F00F
:100BF0000100A84201D00120DEE7207800F00200C9
:100C0000022807D16D48006820F0F000A168084371
:100C10006A490860207800F0010000287FD06068F1
:100C2000022807D165480838006800F40030F8B998
:100C30000120C1E76068032807D1604808380068D0
:100C400000F00070A0B90120B6E76068012807D164
:100C50005A480838006800F0020048B90120ABE7A4
:100C600056480838006800F4007008B90120A3E76E
:100C70005248006820F00300616808434F4908604B
:100C8000FFF7C2FE06466068022810D108E0FFF7B1
:100C9000BBFE801B41F28831884201D903208BE7DB
:100CA0004648006800F00C000828F0D137E0606882
:100CB000032810D108E0FFF7A7FE801B41F288311E
:100CC000884201D9032077E73C48006800F00C0017
:100CD0000C28F0D123E06068012810D108E0FFF76C
:100CE00093FE801B41F28831884201D9032063E7DB
:100CF0003248006800F00C000428F0D10FE008E052
:100D0000FFF782FE801B41F28831884201D903201F
:100D100052E72A48006800F00C000028F0D126486D
:100D2000006800F00100A84218D900BF012D05D1CC
:100D30002148006840F004001F4908601E48006810
:100D400020F0010028431C49086000BF08460068E5
:100D500000F00100A84201D001202DE7207800F02A
:100D60000400042807D11548006820F4E060E16819
:100D7000084312490860207800F00800082808D1CC
:100D80000E48006820F46050216940EAC1000B4918
:100D9000086000F041F809490968C1F30311084AE5
:100DA000515CC8400749086007480068FFF742FEE9
:100DB0000746384600E70000003C02400838024081
:100DC000418900084C0000204400002001480068D0
:100DD000704700004C00002000B5FFF7F7FF044902
:100DE0000968C1F30221034A515CC84000BD0000FC
:100DF000083802405189000800B5FFF7E7FF0449B1
:100E00000968C1F3C221034A515CC84000BD00001B
:100E100008380240518900082DE9F05F2248D0F8D7
:100E2000009009F00C0070B3042804D0082804D006
:100E30000C2829D103E01D4D32E01D4D30E01D4846
:100E4000C9F3834110F801A0C9F38150441C16482E
:100E5000006800F4803050B11548A0FB0A700146CC
:100E6000224600233846FFF7DBF9064609E00F4823
:100E7000A0FB0A700146224600233846FFF7D0F94E
:100E8000064635460CE000E000BF0748001F00683A
:100E9000C0F3423B0BF1010001218140CD0300BFB3
:100EA00000BF2846BDE8F09F083802400024F40047
:100EB00000127A00388900082DE9F843044614B975
:100EC0000120BDE8F883FE48006800F00C06FC48ED
:100ED000006800F48037207800F00100002875D009
:100EE000082E04D00C2E0ED1B7F5803F0BD1F4485C
:100EF0000838006800F40030002867D060680028D7
:100F000064D10120DDE700BF6068012808D1EC480A
:100F10000838006840F48030E949083908602DE05D
:100F2000606868B9E6480838006820F48030E44911
:100F3000083908600846006820F4802008601DE039
:100F4000606805280DD1DE480838006840F480202C
:100F5000DB49083908600846006840F480300860C2
:100F60000CE0D7480838006820F48030D4490839AC
:100F700008600846006820F48020086000BF6068B0
:100F800090B1FFF741FD054606E0FFF73DFD401B30
:100F9000642801D9032094E7C9480838006800F4A0
:100FA00000300028F1D011E0FFF72EFD054606E0E5
:100FB000FFF72AFD401B642801D9032081E7C048C0
:100FC0000838006800F400300028F1D1207800F0E3
:100FD0000200022853D1042E02D00C2E17D1B7B92B
:100FE000B7480838006800F0020020B1E068012826
:100FF00001D0012065E7B248001F006820F4F850D6
:10100000216940EA0120AE49091F086037E0E06825
:1010100000B30120AB490860FFF7F6FC054606E087
:10102000FFF7F2FC401B022801D9032049E7A4483E
:101030000838006800F002000028F1D0A048001F26
:10104000006820F4F850216940EA01209C49091FFA
:10105000086014E000209B490860FFF7D5FC0546B6
:1010600006E0FFF7D1FC401B022801D9032028E746
:1010700093480838006800F002000028F1D1207879
:1010800000F01000102871D1F6BB8D4808380068B8
:1010900000F4007018B1A06908B9012011E788496F
:1010A000091F206A096801F46041884219D9206A41
:1010B00000F088FF08B1012003E78148001F0068A5
:1010C00020F46040216A08437D49091F0860217FA0
:1010D0007B48001F006861F31F607949091F0860A1
:1010E0001AE07748001F006820F46040216A084336
:1010F0007349091F0860217F7148001F006861F370
:101100001F606F49091F00E020E00860206A00F0BE
:1011100059FF08B10120D4E60121206A01EB5031CA
:1011200001208840C00366490968C1F30311664A7B
:10113000515CC8406549086065480068FFF77AFC63
:101140008046B8F1000F42D04046BAE6A06948B3E5
:1011500001205C490862FFF757FC054607E0FFF7EE
:1011600053FC401B022802D90320AAE62FE0544872
:101170000838006800F400700028F0D05048001FC4
:10118000006820F46040216A08434D49091F086047
:10119000217F4B48001F006861F31F604849091F09
:1011A000086014E0002047490862FFF72DFC05465F
:1011B00006E0FFF729FC401B022801D9032080E646
:1011C0003F480838006800F400700028F1D120780A
:1011D00000F0080008282CD16069A8B101203D4921
:1011E0000860FFF711FC054606E0FFF70DFC401B09
:1011F000022801D9032064E631482C30006800F051
:1012000002000028F1D014E0002032490860FFF706
:10121000FBFB054606E0FFF7F7FB401B022801D960
:1012200003204EE626482C30006800F0020000281B
:10123000F1D1207800F0040004286ED14FF00009AD
:101240001F481C30006800F0805088B900BF1C485F
:101250001C30006840F0805019491C310860084675
:10126000006800F08050009000BF00BF4FF00109FF
:101270001948006800F48070B0B91748006840F45D
:10128000807015490860FFF7BFFB054606E0FFF7D1
:10129000BBFB401B642801D9032012E60E480068FE
:1012A00000F480700028F2D000BFA068012817D198
:1012B00003482C30006840F4807001492C310DE067
:1012C0000838024000004742418900084C000020D5
:1012D000440000208006474200700040086028E07B
:1012E000A06858B96648006820F4807064490860B6
:1012F0000846006820F4806008601AE0A0680528AD
:101300000CD15F48006840F480605D490860084681
:10131000006840F4807008600BE040E058480068C6
:1013200020F48070564908600846006820F4806008
:10133000086000BFA06898B1FFF766FB054608E0AB
:10134000FFF762FB401B41F28831884201D903203C
:10135000B7E54B48006800F400700028F0D012E0B8
:10136000FFF752FB054608E0FFF74EFB401B41F23A
:101370008831884201D90320A3E54148006800F480
:1013800000700028F0D1B9F1010F07D13C481038A6
:10139000006820F080503A491039086000BF606A48
:1013A000A8B30C2E52D0606A022839D100203549EA
:1013B0000866FFF729FB054606E0FFF725FB401B03
:1013C000022801D903207CE52D483438006800F05C
:1013D00000700028F1D1D4E90A010843216B0843C9
:1013E00027492C39096821F47D01084324492C3907
:1013F0000860012023490866FFF706FB054607E061
:10140000FFF702FB401B022802D9032059E535E013
:101410001B483438006800F000700028F0D02DE040
:10142000002018490866FFF7EFFA054606E0FFF7C7
:10143000EBFA401B022801D9032042E5104834385A
:10144000006800F000700028F1D117E0606A012800
:1014500000D136E50A482C38076807F48031A06AC5
:10146000814209D107F47011E06A814204D107F486
:101470004001206B814201D0012022E5002020E5BF
:10148000343802400000474210B504460CB9012030
:1014900010BD606A38B96068B0F5827F00D105E0A0
:1014A0000021E16102E00021216161610021A1626E
:1014B00094F8510028B9002084F85000204600F02C
:1014C0003DF8022084F851002068006820F04000B8
:1014D00021680860A08800F48270218901F4044129
:1014E0000843A18901F400610843217C01F0020155
:1014F0000843217D01F001010843218B01F40071B3
:101500000843217F01F0380108432021095D01F0E3
:1015100080010843218D01F40051084321680860CF
:101520000421A06901EA104021684860002060653C
:10153000012084F851000020AAE7000010B586B011
:101540000446142101A8FEF7B5FE18492068884218
:1015500029D100BF1648006840F480501449086043
:101560000846006800F48050009000BF00BF00BF34
:10157000081F006840F00100091F08600846006865
:1015800000F00100009000BF00BFA02001900220E9
:10159000029000200390032004900520059001A9EB
:1015A0000448FFF731F906B010BD000000300140DB
:1015B00020380240000002402DE9F84F04468846DA
:1015C00016461D464FF0000A00BF94F8500001284F
:1015D00002D10220BDE8F88F012084F8500000BF3E
:1015E000FFF712FA0746B14694F85100012802D0DD
:1015F0004FF0020AADE0B8F1000F00D016B94FF07D
:10160000010AA6E0032084F8510000206065C4F8B8
:101610003080A686E686A063A087E08760642064A9
:10162000A068B0F5004F0BD12068006820F04000A2
:10163000216808602068006840F4804021680860E4
:101640002068006800F04000402805D0206800684D
:1016500040F0400021680860E068B0F5006F2FD1CD
:10166000606810B1B9F1010F09D1206B00882168C1
:10167000C860206B801C2063E08E401EE0861BE06B
:101680002068806800F0020002280AD1206B0088E0
:101690002168C860206B801C2063E08E401EE086BD
:1016A0000AE0FFF7B1F9C01BA84201D3681C00B9DA
:1016B00015B94FF0030A4CE0E08E0028E0D12EE08F
:1016C000606810B1B9F1010F09D1206B0078216871
:1016D0000873206B401C2063E08E401EE0861BE0F8
:1016E0002068806800F0020002280AD1206B007890
:1016F00021680873206B401C2063E08E401EE0864A
:101700000AE0FFF781F9C01BA84201D3681C00B9A9
:1017100015B94FF0030A1CE0E08E0028E0D13A46EC
:101720002946204600F0A2FC08B120206065A06890
:1017300050B900BF002000902068C0680090206869
:101740008068009000BF00BF606D08B14FF0010AD3
:1017500000BF012084F8510000BF002084F8500031
:1017600000BF504636E770B504462546681EB0F106
:10177000807F01D301200FE0681E4FF0E021486117
:101780000F214FF0FF3000F0B5FF00204FF0E021B7
:10179000886107200861002070BD70472DE9F0477F
:1017A0000446206805682068C668206847694FF0CD
:1017B0000008C14605F00F08B8F1000F0AD105F086
:1017C000200038B106F0200020B1204600F0D2FD04
:1017D000BDE8F087B8F1000F72D007F0010018B92A
:1017E00006F4907000286BD005F0010030B106F4CB
:1017F000807018B1E06B40F00100E06305F0040078
:1018000030B107F0010018B1E06B40F00200E06376
:1018100005F0020030B107F0010018B1E06B40F0B4
:101820000400E06305F0080048B106F0200010B99C
:1018300007F0010018B1E06B40F00800E063E06BD6
:1018400070B305F0200028B106F0200010B120464A
:1018500000F090FD20684069C0F38019E06B00F053
:10186000080010B9B9F1000F23D0204600F062FD46
:101870002068406900F04000402816D12068406987
:1018800020F0400021684861606B50B11748616BDF
:101890004863606BFEF789FF10B1606B416B88474E
:1018A0000CE02046FFF779FF08E02046FFF775FFC0
:1018B00004E02046FFF771FF0020E06388E7FFE7C0
:1018C00005F0800030B106F0800018B1204600F02D
:1018D0007DFE7DE705F0400030B106F0400018B114
:1018E000204600F037FD73E700BF71E721230008B1
:1018F00010B504460CB9012010BDA06900B100E08C
:1019000000BF94F8390028B9002084F83800204638
:1019100000F028F8242084F839002068C06820F4FA
:1019200000502168C860204600F078FD20680069FA
:1019300020F49040216808612068406920F02A0066
:10194000216848612068C06840F400502168C86080
:101950000020E063202084F8390084F83A00002059
:10196000CAE7000010B586B00446142101A8FEF7AE
:10197000A1FC1C492068884232D100BF1A48006887
:1019800040F48040184908600846006800F4804030
:10199000009000BF00BF00BF081F006840F00100BA
:1019A000091F08600846006800F00100009000BFB1
:1019B00000BF4FF4C060019002200290002003900D
:1019C000032004900720059001A90848FEF71CFF9A
:1019D000002211462520FFF797F82520FFF784F80D
:1019E00006B010BD0038014020380240000002401F
:1019F00070472DE9F84304460D4616461F464FF042
:101A0000000994F8390020285DD105B116B90120EC
:101A1000BDE8F88300BF94F83800012801D1022006
:101A2000F6E7012084F8380000BF0020E0632120A1
:101A300084F83900FEF7E8FF8146A684E68400BFFB
:101A4000002084F8380000BF2BE0E08C401EE084CA
:101A5000A068B0F5805F16D14B4600228021204659
:101A6000009700F0E7FD08B10320D1E7A846B8F8D9
:101A70000000C0F3080021684860206908B9AD1C67
:101A80000FE06D1C0DE04B460022802120460097A0
:101A900000F0D0FD08B10320BAE715F8010B21686A
:101AA0004860E08C0028D0D14B46002240212046DF
:101AB000009700F0BFFD08B10320A9E7202084F8BB
:101AC00039000020A4E70220A2E7704700B587B0E4
:101AD000142102A8FEF7EEFB00BF2A48006840F080
:101AE0002000284908600846006800F020000190A6
:101AF00000BF00BF00BF0846006840F0010008605A
:101B00000846006800F00100019000BF00BF00BF60
:101B10000846006840F0020008600846006800F0CF
:101B20000200019000BF00BF00224FF4014116489F
:101B3000FEF764FF012268211448FEF75FFF4FF4AF
:101B4000014002900120039004900220059002A918
:101B50000D48FEF759FE6820029001200390049082
:101B60000220059002A90948FEF74EFE10200290BF
:101B7000002003900120049002A90448FEF744FECF
:101B800007B000BD1C3802400000024000040240C3
:101B900010B51048104908604FF4827048604FF447
:101BA00000410D4881600021C160022101610121D5
:101BB0004161490281611821C161002101624162D4
:101BC00081620A21C162FFF75FFC08B1FEF7ECFDFC
:101BD00010BD000000300140FC10002010B50B4883
:101BE0000B4908604FF4E1304860002108488160EB
:101BF000C16001610C21416100218161C161FFF778
:101C000077FE08B1FEF7D0FD10BD0000003801409E
:101C10005411002000BFFEE77047F0B504460F46A0
:101C200000250CE0002606E03B46324629462046C9
:101C300000F009F8761CA068B042F5DC6D1C606805
:101C4000A842EFDCF0BDF0B51D46002907DB436874
:101C50008B4204DD002A02DB8368934200DCF0BD86
:101C6000FDB1466802FB0614E61704EB5676F61043
:101C70000768BE5D0B46CF1701EB5777FF10A1EB4E
:101C8000C70C802747FA0CF73E43476802FB07144E
:101C9000E71704EB5777FF10D0F800C00CF8076087
:101CA0001EE0466802FB0614E61704EB5676F610B3
:101CB0000768BE5D0B46CF1701EB5777FF10A1EB0E
:101CC000C70C802747FA0CF7BE43476802FB07148E
:101CD000E71704EB5777FF10D0F800C00CF8076047
:101CE00000BFBCE72DE9FF4F884691469A460D9DFF
:101CF000A988CA1701EB5272D2100846CB1701EB24
:101D00005373DB10A1EBC3030BB1012300E00023ED
:101D10001344AAF12002B5F806C002FB0CF203FB43
:101D200002FB286800EB0B0700262BE000241CE0D8
:101D3000E11704EB5171C910A4EBC10280211141DC
:101D40003A78114039B109EB060208EB04010E9B09
:101D5000009800F032F8E11704EB5171C910A4EBC0
:101D6000C101072900D17F1C641CA888A042DFDCC8
:101D7000A888C11700EB5171C910A0EBC10101B1D6
:101D80007F1C761CE888B042D0DCBDE8FF8F2DE9CF
:101D9000F04307460C4690461E46DDF81C9025464B
:101DA00006E04B4642462946384600F006F86D1CD0
:101DB000A019A842F5DCBDE8F0832DE9F041044606
:101DC0000D4616469846E06890B9002D07DB60681E
:101DD000A84204DD002E02DBA068B04201DCBDE8B1
:101DE000F0814346324629462046FFF72CFF49E062
:101DF000E068012815D1002D07DBA068A84204DDAA
:101E0000002E02DB6068B04200DCE8E72F46606825
:101E1000851B3E464346324629462046FFF713FFC0
:101E200030E0E068022815D1002D07DB6068A84289
:101E300004DD002E02DBA068B04200DCCFE7606862
:101E4000451BA068861B4346324629462046FFF7BD
:101E5000FAFE17E0E068032814D1002D07DBA06824
:101E6000A84204DD002E02DB6068B04200DCB6E769
:101E70002F463546A068C61B4346324629462046B3
:101E8000FFF7E1FE00BFAAE72DE9FF4F81B00D4645
:101E900016461F460F9CAF4201DD284600E038463B
:101EA0008046AF4201DD384600E0284682460E9863
:101EB000B04201DD304600E00E9881460E98B042F7
:101EC00001DD0E9800E030468346AAEB0800431C73
:101ED0004A46414600940198FFF759FFAAEB0800D3
:101EE000431C5A46414600940198FFF750FFABEB64
:101EF0000900431C4A4641460094019800F02CF822
:101F0000ABEB0900431C4A4651460094019800F08F
:101F100023F805B0BDE8F08F2DE9FF4F82B0814670
:101F20000D461E46DDE90F7A34464FF0000BA846F9
:101F30000CE0CDE9007A237841464846049AFFF741
:101F4000D1FEB8888044641C0BF1010B2078002876
:101F5000EFD106B0BDE8F08F2DE9F0430746884683
:101F600014461E46DDF81C90254606E04B462A46E0
:101F700041463846FFF721FF6D1CA019A842F5DC49
:101F8000BDE8F083F0B50C461D460021C160046039
:101F90001346D61702EB5676F610A2EBC60656B1DC
:101FA000D61702EB5676F610A2EBC607114602F1E1
:101FB0000806F61B00E0164646608560F0BDC1606D
:101FC0007047000018B5034600222548006800F05D
:101FD000F00050BB22481C30006800F0805020B157
:101FE0002048006800F4C05118E000BF1C481C30B5
:101FF000006840F080501A4C1C3420602046006875
:1020000000F08050009000BF00BF1648006800F448
:10201000C0512046006820F080502060B1F5C05FBC
:1020200003D1B3F5404F00D1012200BF012A05D1F1
:102030000D48006840F004000B4C20600A4800681E
:1020400020F001001043084C206000BF20460068CB
:1020500000F00100904201D0012018BD0020FCE7F3
:102060000838024000700040003C02407CB5044645
:102070000D461646164800681821B0FBF1F01549C8
:10208000B0FBF1F04FF47A71484301906068B0F50D
:10209000827F0DD12B46002280212046009600F041
:1020A0001BF898B1606D40F02000606503207CBD96
:1020B00000BF019800B908E00198401E0190206817
:1020C0008068C0F3C0100028F3D100BF0020EEE705
:1020D0004C00002040420F002DE9F84F04460D4609
:1020E00090461E46DDF82890FEF78EFCA0EB090016
:1020F000371AFEF789FC82462C480068C0F3CB30C3
:102100007843009045E0701C002842D0FEF77CFC2C
:10211000A0EB0A00B84200D2A7BB2068406820F0BC
:10212000E000216848606068B0F5827F0DD1A0684A
:10213000B0F5004F03D0A068B0F5806F05D12068DE
:10214000006820F0400021680860A06AB0F5005FD8
:102150000DD100BF2068006820F40050216808609D
:102160002068006840F400502168086000BF01202A
:1021700084F8510000BF002084F8500000BF032005
:10218000BDE8F88FFFE7009800B900270098401ECF
:102190000090206880682840A84201D1012000E01A
:1021A00000204045AFD10020EAE700004C000020AD
:1021B000704710B501F016F801F0EAFB01F022F8C3
:1021C00010BD000000B593B0342106A8FEF772F8E8
:1021D000142101A8FEF76EF81548006820F4C050DD
:1021E00040F4006012490860012006900790022028
:1021F0000F90C10310914FF44021119141051291AC
:1022000006A8FEF759FE08B1FEF7CEFA0F2001909E
:10221000032002900020039004900590012101A862
:10222000FEF7C4FC08B1FEF7BFFA13B000BD000012
:102230000070004070B5002200200021002400231F
:102240002D4D2D6805F00C0232B1042A10D0082A59
:1022500012D00C2A36D113E0274D2D1F2D68C5F35F
:1022600042335D1C0126AE40F503244E356035E057
:10227000234D224E356031E0224D204E35602DE059
:102280001D4D2D6805F470101B4D2D6805F440019F
:102290001D4D05EB90452878012505EB9151164D14
:1022A0002D6805F4803434B9154D4543B5FBF1F57F
:1022B000124E356005E0134D4543B5FBF1F50F4E69
:1022C00035600BE00C4D2D1F2D68C5F342335D1CAE
:1022D0000126AE40F503094E356000BF00BF064D34
:1022E0002D68C5F30315094E725D044D2D68D54068
:1022F000024E356070BD0000083802404C000020DE
:102300000024F40000127A0038890008418900088E
:102310004FF00060014908607047000008ED00E0E0
:1023200070B505466C6A0020E085E0842046FFF722
:1023300034FA70BD0168C96821F490710268D160F7
:102340000168496921F0010102685161202180F88A
:102350003A10704710B504462068C06820F040006D
:102360002168C860202084F839002046FFF7ADFBC3
:10237000002010BD70B5044694F83A0022284AD1D6
:10238000A068B0F5805F13D1A56A206940B92068C4
:102390004068C0F308002880A06A801CA06219E091
:1023A00020684068C0B22880A06A401CA06211E08A
:1023B000206938B920684068C1B2A26A501CA06286
:1023C000117007E02068406800F07F01A26A501C8D
:1023D000A0621170E08D401E80B2E085C8B920680F
:1023E000C06820F020002168C8602068C06820F420
:1023F00080702168C8602068406920F00100216871
:102400004861202084F83A002046FFF7F1FA0020C6
:1024100070BD0020FCE70220FAE7000070B504461A
:102420002168096921F44051E26811432268116171
:102430002269A168114362691143E26941EA020518
:102440002168C96849F20C62914329432268D1602E
:102450002168496921F44071A269114322685161E0
:10246000594A2168914202D1FEF7C6FC01E0FEF70D
:10247000B3FCE169B1F5004F53D100EBC00101EBB2
:10248000001162685200B1FBF2F16422B1FBF2F17B
:102490000A0100EBC00101EB001163685B00B1FBB6
:1024A000F3F100EBC00303EB001366687600B3FBA7
:1024B000F6F36426B3FBF6F303EBC30606EB031354
:1024C000A1EB8301322303EBC1016423B1FBF3F1E0
:1024D00001F0F80102EB410200EBC00101EB001139
:1024E00063685B00B1FBF3F100EBC00303EB001387
:1024F00066687600B3FBF6F36426B3FBF6F303EBF2
:10250000C30606EB0313A1EB8301322303EBC101E6
:102510006423B1FBF3F101F00701114422689160DB
:1025200051E000EBC00101EB001162689200B1FBC9
:10253000F2F100EBC00202EB001263689B00B2FBF9
:10254000F3F26423B2FBF3F202EBC20303EB0212D9
:10255000A1EB8201322202EB01116422B1FBF2F104
:1025600001F0F00100EBC00202EB001263689B0077
:10257000B2FBF3F26423B2FBF3F201EB021200EBC5
:10258000C00101EB001163689B00B1FBF3F100EBAC
:10259000C00303EB00136668B600B3FBF6F36426D2
:1025A000B3FBF6F303EBC30606EB0313A1EB8301C6
:1025B000322303EB01116423B1FBF3F101F00F01AE
:1025C00011442268916070BD00380140014691F8C5
:1025D000390021282CD18868B0F5805F0FD10A6AB4
:1025E0001088C0F308000B685860086918B9086AB9
:1025F000801C086209E0086A401C086205E00B6A5A
:10260000581C086218780B685860C88C401E80B24D
:10261000C88458B90868C06820F080000B68D8608A
:102620000868C06840F040000B68D8600020704720
:102630000220FCE72DE9F04104460D461746984676
:10264000069E21E0701CF8B12EB1FEF7DDF9A0EB7B
:102650000800B04218D92068C06820F4D070216802
:10266000C8602068406920F001002168486120208E
:1026700084F8390084F83A0000BF002084F838005C
:1026800000BF0320BDE8F081206800682840A84210
:1026900001D1012000E00020B842D3D00020F1E7B2
:1026A00010B50248FFF77AF810BD00005411002061
:1026B00000BFFEE70146481EB0F1807F01D3012034
:1026C0007047481E4FF0E0225061FF20044A10700E
:1026D00000204FF0E0229061072010610020EFE71A
:1026E00023ED00E002480068C0F3022070470000BC
:1026F0000CED00E010B5002804DB0A07130E054AB4
:10270000135406E00A07140E034A00F00F031B1FC0
:10271000D45410BD00E400E018ED00E0014609B912
:1027200000207047C8B220B1C8B20E4A105C401CED
:10273000F7E701F47F4028B10A48C1F30722805C23
:102740000930EEE701F47F0028B10648C1F30742E3
:10275000805C1130E5E7034800EB11600078193028
:10276000DFE700005989000802E008C8121F08C10D
:10277000002AFAD170477047002001E001C1121F02
:10278000002AFBD17047000003490868884201D045
:10279000012070470020FCE7B80000202DE9FC5F15
:1027A00004468B4615461E46DDE90C9ADDE90E7897
:1027B00004F114004060006000BF1C346560A66036
:1027C000C4F80C90C4F810A02321D4E9030200F04F
:1027D00066FDD4E9033C63441A1F0F4BD4E90101A1
:1027E00000F0DAFC2060A77667760020E061C4F88C
:1027F0002080C4F82480606120766065A0651C3C60
:1028000000902346054A2146019004F1440001F05E
:1028100041F90020BDE8FC9F6D360008C93800086A
:102820002DE9F04704460E4617469846DDF82090FD
:1028300084F80990607A20F001006072E6612762F6
:102840000020A062C4F82480002506E004F11401F1
:1028500001EBC50000F001FD6D1C012DF6DBBDE8AC
:10286000F08710B50246002001460EE002F1140385
:1028700003EBC100D0E900436360D0E9003423607A
:102880004060006000BF481C01460129EEDB10BD1E
:1028900000B599B0E3A103C9CDE917012822E349A6
:1028A0000DA8FDF7EEFCFEF7B5F8FFF78BFCFFF780
:1028B0000DF9FFF76DF9DE4906A8FDF797FD18B190
:1028C0004FF0FF3019B000BDFF2106A8FDF736FD1F
:1028D000FA237822D74902A8FFF754FB012102A866
:1028E000FFF76DFB012102A8FFF797F90020D249FD
:1028F000D2A35F22CDE90010014602A8FFF70CFB2E
:102900000020CD49C8A35F22CDE90010092102A80B
:10291000FFF702FB0020C849C8A35F22CDE90010E1
:10292000122102A8FFF7F8FA0020C349BEA35F22D4
:10293000CDE900101B2102A8FFF7EEFA0020C049E4
:10294000C0A35A22CDE90010242102A8FFF7E4FA1F
:102950000020B949BCA35F22CDE90010342102A8B0
:10296000FFF7DAFA0020B449AFA35F22CDE90010E7
:102970003D2102A8FFF7D0FA0020B149B3A35A22A3
:10298000CDE90010462102A8FFF7C6FA0020AA49A7
:10299000AAA35F22CDE90010562102A8FFF7BCFAD6
:1029A0000020A549A0A35F22CDE90010114602A88E
:1029B000FFF7B2FA0020A249A5A35A22CDE90010E0
:1029C000682102A8FFF7A8FA00209D49A1A35A2276
:1029D000CDE90010802102A8FFF79EFA0020984957
:1029E0009AA35A22CDE90010902102A8FFF794FA89
:1029F0000020934998A35A22CDE90010A02102A8F3
:102A0000FFF78AFA00208E4992A35A22CDE90010DE
:102A1000B02102A8FFF780FA002089498FA35A222B
:102A2000CDE90010C82102A8FFF776FA00208449FA
:102A30008BA35A22CDE90010D82102A8FFF76CFA27
:102A400000207F4987A35A22CDE90010E82102A87F
:102A5000FFF762FA00207A4983A30222CDE9001031
:102A6000BB2102A8FFF758FA002075496EA3022285
:102A7000CDE90010CF2102A8FFF74EFA00207B49D4
:102A80006EA31922CDE90010BB2102A8FFF744FA7A
:102A90000020764976A31922CDE90010C82102A8AA
:102AA000FFF73AFA002071496FA31922CDE900100F
:102AB000D22102A8FFF730FA00206C496DA3192239
:102AC000CDE90010DC2102A8FFF726FA00206749B3
:102AD00069A31922CDE90010EA2102A8FFF71CFA28
:102AE0000020574965A32922CDE90010BB2102A887
:102AF000FFF712FA002052494BA32922CDE900101A
:102B0000CF2102A8FFF708FA002058494BA33E2224
:102B1000CDE90010BB2102A8FFF7FEF900205349C0
:102B200054A33E22CDE90010C82102A8FFF7F4F912
:102B300000204E494CA33E22CDE90010D22102A82C
:102B4000FFF7EAF9002049494AA33E22CDE90010E7
:102B5000DC2102A8FFF7E0F90020444948A33E2207
:102B6000CDE90010EA2102A8FFF7D6F90020454977
:102B700045A30246CDE90010014602A8FFF7CCF9B3
:102B80000020404941A30246CDE90010462102A899
:102B9000FFF7C2F900203B493DA30246CDE90010F2
:102BA000642102A8FFF7B8F900205421FA23562225
:102BB000CDE90010014602A8FFF766F90020532175
:102BC000FA235522CDE90010014602A8FFF75CF96F
:102BD000FA20782100231A46CDE90010154906A8ED
:102BE000FDF790FC06A8FDF7EBFB4FF4FA6000F050
:102BF000E3FD284906A8FDF7F9FB10B14FF0FF30BF
:102C000060E60DE04FF400412348FDF7EDFE4FF480
:102C100080712148FDF7E8FE4FF4FA7000F0CCFD1A
:102C2000F0E7000030303A30300000001089000832
:102C30007C3F0008FC000020200000203200000043
:102C400038000020210000003100000022000000B8
:102C50002300000020000000280000002A000000DF
:102C60002B000000360000002E000000280000208D
:102C70003500000039000000430000002F00000074
:102C80002500000030000020313200003A00000032
:102C9000333400009A3F00080000024010B504469B
:102CA00000F0FEF8FFF7F4FD10BD00002DE9F04F35
:102CB00086B00D469C46DDE9106401960F9B04F03A
:102CC0004008B8F1000F02D0DFF8708101E0DFF8B2
:102CD0007081CDF8008004F01008B8F1000F01D029
:102CE00024F0010404F00108B8F1000F02D04FF005
:102CF000300801E04FF02008C246002704F0020827
:102D0000B8F1000F11D0002A02DA2D2752420CE050
:102D100004F00408B8F1000F01D02B2705E004F0FF
:102D20000808B8F1000F00D02027002142B94FF069
:102D3000300B8846491C0DF1080909F808B01DE060
:102D40001AE0E146B9F10A0F08D14FF00A0BB2FBC5
:102D5000FBFE0BFB1E28B2FBFBF202E002F00F08A9
:102D6000120900BFDDF8009019F808B08846491C28
:102D70000DF1080909F808B0002AE2D1B14200DDDE
:102D80000E469B1B04F01108B8F1000F10D117B1CB
:102D9000002B00DD5B1E06E0A84203D24FF02008A6
:102DA00080F80080401CB3F10008A3F10103F3DCBC
:102DB00027B1A84200D207705B1E401C04F0100827
:102DC000B8F1000F0AD104E0A84201D280F800A0B7
:102DD000401CB3F10008A3F10103F5DC06E0A842B2
:102DE00003D24FF0300880F80080401CB046761EB9
:102DF0008845F4DC08E0A84205D20DF1080818F86F
:102E0000018080F80080401CB1F10008A1F10101AF
:102E100004DDDDF80480B8F1000FECD106E0A84233
:102E200003D24FF0200880F80080401CB3F1000866
:102E3000A3F10103F3DC06B0BDE8F08F6A8A000855
:102E4000598A00087FB50A4C14200221CA01094B97
:102E5000CDE90032CDE902100023074A07A1204640
:102E600000F090FC0546204600F0F6FC7FBD000017
:102E700098120020981100209D2C00086D61696E49
:102E80000000000010B5044C02E020688047241DBB
:102E900002488442F9D310BDA88A0008AC8A000811
:102EA00010B5044C02E020688047241D024884428B
:102EB000F9D310BDAC8A0008B08A000810B5FDF740
:102EC00035F9044604480088401C00B202490880D5
:102ED0002046FDF72FF910BDA800002010B5FDF722
:102EE00025F904460C480088401E00B20A490880B3
:102EF0000846B0F9000000280ADC002008802046BF
:102F0000FDF718F90548006828B100F051FA02E011
:102F10002046FDF70FF910BDA8000020AC000020EE
:102F200010B5FFF787F9074800684FF47A71B0FBD6
:102F3000F1F42046FFF7BEFBFFF7A4FFFEF74EFEBD
:102F400010BD00004C000020F8B505460024002606
:102F50000D20009000BF00200E4981F8380000BF0E
:102F6000284600F011FB064600BF0FE0285D0A2846
:102F700005D101231A4669460648FEF73AFD29198C
:102F800001231A460348FEF734FD641CB442EDD316
:102F9000F8BD00005411002070B505462C1D2E48C8
:102FA000006838B128462C4909688847064606B9A2
:102FB00070BD00BF29A0E16B00F034F92BA0216A9D
:102FC00000F030F92DA0616A00F02CF92FA0A16A61
:102FD00000F028F931A0E16A00F024F933A021685B
:102FE00000F020F935A0616800F01CF937A0A16855
:102FF00000F018F939A0E16800F014F93BA021694C
:1030000000F010F93DA0616900F00CF93FA0A16942
:1030100000F008F941A0E16900F004F943A0216B38
:1030200000F000F945A0616B00F0FCF847A0A16B2F
:1030300000F0F8F8287800F0040038B100F0E4FB64
:103040000646314645A000F0EDF802E04BA000F046
:10305000E9F800BFFEE70000D80000207073723A64
:10306000203078253038780A000000007230303A7D
:10307000203078253038780A000000007230313A6C
:10308000203078253038780A000000007230323A5B
:10309000203078253038780A000000007230333A4A
:1030A000203078253038780A000000007230343A39
:1030B000203078253038780A000000007230353A28
:1030C000203078253038780A000000007230363A17
:1030D000203078253038780A000000007230373A06
:1030E000203078253038780A000000007230383AF5
:1030F000203078253038780A000000007230393AE4
:10310000203078253038780A000000007231303ADB
:10311000203078253038780A000000007231313ACA
:10312000203078253038780A000000007231323AB9
:10313000203078253038780A00000000206C723A80
:10314000203078253038780A000000002070633A7B
:10315000203078253038780A0000000068617264F9
:10316000206661756C74206F6E207468726561648E
:103170003A2025730D0A0D0A000000006861726490
:10318000206661756C74206F6E2068616E646C657A
:10319000720D0A0D0A000000F0B504460D461646F1
:1031A000301D20F0070040380146002203E00C4F9C
:1031B00041F82270521C102AF9D30D624FF0000C16
:1031C000C1F824C0C1F828C0C1F82CC0C1F830C073
:1031D0004B638C634FF0807CC1F83CC0F0BD0000B5
:1031E000EFBEADDE10B5FCF7A1FF04460448007841
:1031F000401C034908702046FCF79CFF10BD0000EE
:103200005400002010B5FCF791FF044604480078F4
:10321000401E034908702046FCF78CFF10BD0000DB
:10322000540000200FB438B505A800907F2108484D
:10323000009B049A00F0DAFC04467F2C00D97F241E
:103240000348FFF781FE0020009038BC5DF814FBB6
:1032500008140020406000607047406000607047C4
:103260000268516002680A60016048607047026845
:10327000516002680A600160486070470146086852
:10328000884201D1012070470020FCE7D0E90021ED
:103290005160D0E900121160406000607047F0B5E5
:1032A0000C460546E6B2042A15D300F0030797B989
:1032B000014646EA062343EA034304E008C108C185
:1032C00008C108C1103A102AF8D201E008C1121F43
:1032D000042AFBD20D4601E005F8016B171EA2F18E
:1032E0000102F9D1F0BD70B5044600202072FCF750
:1032F0001DFF054604F10C00D0E900215160D0E922
:10330000001211604060006000BF2846FCF712FF09
:1033100070BD0000024600210AE0074800EB0110E2
:103320000078904203D1044800EB01107047491C1B
:103330000529F2DB0020F9E7580000202DE9F047CD
:1033400004460D46904600262846FFF7E3FF074651
:10335000FFF7B4FD7E6802E0A6F10C003668381D68
:103360008642F9D1FFF7BAFD45F0800020720822AD
:103370004146204600F011F9FCF7D8FE8146381D81
:1033800004F10C010268516002680A600160486043
:1033900000BF4846FCF7CEFEBDE8F0870146087A3C
:1033A00000F0800008B1012070470020FCE7000019
:1033B0002DE9F041FCF7BAFE07461848008838BBF3
:1033C00017480068FFF7AAF9461E164850F836005D
:1033D000A0F1140414480068844218D013490E70F8
:1033E0001148056804601248007850B904F11C01C6
:1033F00005F11C00FCF7A1FE3846FCF79BFEBDE87A
:10340000F08104F11C0105F11C00FCF796FE00BFE1
:103410003846FCF78FFE00BFF1E70000A80000204F
:10342000B400002088140020AC000020B000002070
:103430005400002070B50446FCF778FE054614F8E9
:10344000340F20F00F0040F0010020706278343C0F
:103450000A4B03EBC20004F1140142681160426898
:103460004A604160086000BF0549A06B09680843D5
:10347000034908602846FCF75DFE70BD88140020F3
:10348000B400002070B50446FCF750FE054604F178
:103490001400D0E900215160D0E9001211604060B1
:1034A000006000BF94F83510094A02EBC1000168C2
:1034B000814201D1012100E0002129B10548A16B21
:1034C00000688843034908602846FCF733FE70BD56
:1034D00088140020B400002008B509A0FFF7A2FE60
:1034E0000AA0FFF79FFE12A00323012219460090B5
:1034F00012A0FFF797FE19A0FFF794FE08BD000089
:103500000A205C207C202F0A000000002D2052544D
:10351000202D2020202020546872656164204F7087
:1035200065726174696E672053797374656D0A0002
:103530004F6374203239203230323000202F207C0B
:10354000205C202020202025642E25642E25642048
:103550006275696C642025730A00000020323030E7
:1035600036202D203230313920436F7079726967EF
:1035700068742062792072742D74687265616420A9
:103580007465616D0A00000001460A4600E0521CA5
:1035900010780028FBD1501A704770B50346A2B1CD
:1035A00018460C4600BF14F8016B00F8016B3EB9D9
:1035B00002E0002500F8015B551E2A1EF9D102E049
:1035C000551E2A1EEFD100BF00BF184670BD000077
:1035D00010B500200B490880002405E00A4901EBE2
:1035E000C400FFF737FE641C082CF7DB07200749EF
:1035F0000870002006490860064908600648FFF781
:1036000029FE10BDA800002088140020B000002072
:10361000AC000020B4000020B800002070B50848BD
:103620000068FFF77BF8451E064850F83500A0F10A
:1036300014040548046004F11C00FCF7ACFD70BDE7
:10364000B400002088140020AC00002010B5002435
:1036500005E0044901EBC400FFF7FFFD641C002CEA
:10366000F7D010BDC00000207047000070B51248B0
:103670000468FCF75BFD05462046FFF703FF0420C6
:1036800084F8340004F1440000F0F4F92046FFF718
:1036900085FE012805D1206F18B92046FFF723FECB
:1036A00004E004F114010548FFF7DAFD2846FCF7B1
:1036B00041FDFFF77DFE70BDAC000020B80000208A
:1036C00001E000F001F8FCE770B534E0FCF72EFDF6
:1036D0000546FFF759F830B31A480068A0F1140402
:1036E00004F11400D0E900215160D0E9001211600A
:1036F0004060006000BFFFF7E1FB206F10B1204683
:10370000216F88472046FFF749FE012808D120464F
:10371000FFF7E9FDFFF7E2FB2846FCF70BFD70BD64
:10372000FFF7DCFB03E02846FCF704FDF7E728463B
:10373000FCF700FD00BFFFF727F80028C6D100BF47
:10374000EDE70000B80000201FB5202007218022EF
:10375000074BCDE90032CDE902100023054A06A14E
:10376000074800F00FF8064800F076F81FBD00008B
:1037700088130020C13600087469646C650000007D
:10378000101300202DE9FF5F05460C4616461F4624
:10379000DDE910ABDDE90E89224601212846FFF75D
:1037A000CDFD3B463246214628468DE8000FFEF708
:1037B000F5FF04B0BDE8F09F70B50446204600F068
:1037C000C5F80546284600F025F870BD70B50446DA
:1037D00094F8340000F00F00022802D04FF0FF30C0
:1037E00070BDFCF7A3FC054604F11400FFF74EFD85
:1037F00004F1440000F0E2F92846FCF79BFC204667
:10380000FFF718FE0020EBE7014800687047000052
:10381000AC00002031B5FCF789FC05460D48046872
:10382000204600F02FF86A46002104F1440000F021
:1038300005F904F1440000F045F92846FCF77AFC4C
:10384000FFF7B6FD206B801C08B900202063002024
:1038500038BD0000AC00002010B504463434A07818
:1038600060706178012088406060022004F83409AB
:103870002046FFF7ABFFFFF7C7FF08B1FFF798FD42
:10388000002010BD70B5044694F8340000F00F001D
:10389000012802D04FF0FF3070BDFCF747FC054611
:1038A00094F8340020F00F0040F0020084F8340057
:1038B0002046FFF7E7FD04F1440000F07FF92846B9
:1038C000FCF738FC0020E7E770B5044625466FF0AA
:1038D0000100286305F11400FFF7D8FC2846FFF724
:1038E000A9FDFFF765FD70BD70B5FCF71FFC05462F
:1038F0001448046894F8340000F00F0001281CD12B
:10390000D4E90510814218D004F11400FFF7BEFC81
:1039100094F835200C4B03EBC20004F1140142680B
:10392000116042684A604160086000BF2846FCF7A9
:1039300001FCFFF73DFD002070BD2846FCF7FAFBB7
:103940000020F9E7AC00002088140020014600297F
:1039500002DA4FF0FF3014E04FF47A7291FBF2F28A
:103960004FF47A7302FB03F01A4691FBF2F302FB69
:1039700013124FF47A735A4302F2E73292FBF3F2D6
:103980001044704701480068704700005000002054
:1039900010B50A480068401C08490860FFF734FF6A
:1039A0000446206C401E2064206C18B9E06B206433
:1039B000FFF79AFF00F004F810BD0000500000204F
:1039C00070B5FFF7DFFF0546FCF7B0FB064628E0C1
:1039D00019480068A0F11404A06A281A6FF0004189
:1039E00088421DD22046FEF73CFFD4E907108847E5
:1039F000FFF7C8FF0546607A00F0020058B1607A10
:103A000000F0010038B1607A20F0010060722046B9
:103A100000F058F805E0607A20F00100607200E0E4
:103A200004E00548FFF72AFC0028D1D000BF30464B
:103A3000FCF780FB70BD0000C0000020034649B1C8
:103A4000012904D0022908D0032910D10AE0586ABC
:103A500010600CE01068586209E0587A20F002000B
:103A6000587204E0587A40F00200587200BF00BF5C
:103A70000020704770B50446FCF758FB0546204609
:103A8000FEF7EFFE2846FCF755FB2046FFF72BFC20
:103A9000002070BD2DE9F84307460C4615461E462A
:103AA000DDE9088922460A213846FFF747FC4346EC
:103AB000324629463846CDF80090FEF7B1FEBDE803
:103AC000F88300002DE9F8430546FCF72FFB8046FC
:103AD0002846FEF7C6FE687A20F00100687240466C
:103AE000FCF728FBFFF74EFF696A0844A862FCF761
:103AF0001DFB80462F4F009700242AE019E05DF857
:103B000024201168142202EBC402881A826AAB6A6C
:103B1000D21A00D108E0826AAB6AD21A6FF0004371
:103B20009A4200D20CE000BF5DF8240000684DF816
:103B300024005DF8240007EBC40149688842DED107
:103B400000BF2CB15DF824000830611C4DF8210045
:103B5000641C002CD2D018480068401C164908602C
:103B60000846066805F114010098FFF780FB02245F
:103B700012E006F0030060B9C4F1010305F114027C
:103B800002EBC301C4F101025DF82200FFF76FFBF5
:103B900000E003E0B608641C012CEAD900BF687A93
:103BA00040F0010068724046FCF7C4FA0020BDE80E
:103BB000F8830000C0000020C800002070B5044653
:103BC000607A00F0010010B94FF0FF3070BDFCF7D3
:103BD000ADFA05462046FEF744FE2846FCF7AAFA51
:103BE000607A20F0010060720020EFE72DE9FF4FBE
:103BF00089B0804644460A9808EB0006464504D240
:103C00004FF0FF36A6EB08000A906FE10B980078A2
:103C1000252806D0B44202D20B9800782070641C8C
:103C200061E1002526E00B98401C0B900B98007872
:103C30002D2802D145F010051CE00B9800782B28A8
:103C400002D145F0040515E00B980078202802D138
:103C500045F008050EE00B980078232802D145F0C6
:103C6000200507E00B980078302802D145F00105C7
:103C700000E000E0D7E700BF4FF0FF370B98007877
:103C800030380A2804D20BA800F065F907460EE088
:103C90000B9800782A280AD10B98401C0B900C989E
:103CA00080C80C90002F02DA7F4245F010054FF0DB
:103CB000FF390B9800782E281CD10B98401C0B90D4
:103CC0000B98007830380A2804D20BA800F043F98A
:103CD00081460AE00B9800782A2806D10B98401CF0
:103CE0000B900C9850F8049B0C90B9F1000F01DA7E
:103CF0004FF00009002004900B980078682803D04A
:103D00000B9800786C2805D10B98007804900B98DC
:103D1000401C0B900A2005900B9800786F2875D0F6
:103D20000CDC632813D004DC252870D058286FD110
:103D30008DE064286DD06928F9D18FE070286AD0B1
:103D4000732825D0752878D07828F0D182E005F046
:103D5000100040B904E0B44201D220202070641C5D
:103D6000781E071EF7DC0C9810F8041B0C90C8B2E4
:103D70000790B44201D207982070641C04E0B4425A
:103D800001D220202070641C781E071EF7DCAAE0F8
:103D90000C98006806900C98001D0C90069808B9C5
:103DA0005CA006900698FFF7EFFB8346B9F1000F81
:103DB00002DDCB4500DDCB4605F0100048B904E03C
:103DC000B44201D220202070641C38467F1E584522
:103DD000F6DC002008900BE0B44202D2069800788E
:103DE0002070641C0698401C06900898401C08909F
:103DF00008985845F0DB04E0B44201D2202020703E
:103E0000641C38467F1E5845F6DC6CE01CE015E06B
:103E100028E022E0FFE7781C10B9082745F00105EB
:103E2000CDE9007902950C9804C8102331460C9016
:103E30002046FEF73BFF044655E012E0B44201D2B3
:103E400025202070641C4EE0082005901DE045F000
:103E5000400500BF1020059017E000BF45F00205A7
:103E600000BF12E0B44201D225202070641C0B98E0
:103E7000007830B1B44202D20B9800782070641CF4
:103E800002E00B98401E0B902DE000BF04986C28B8
:103E900007D10C9850F804AB0C9005F00200B8B1B3
:103EA00016E0049868280BD10C9830F8041B1FFA10
:103EB00081FA0C9005F0020050B10FFA8AFA07E07F
:103EC0000C9850F804AB0C9005F0020000B100BF54
:103ED000CDE900790295524631462046059BFEF712
:103EE000E5FE044600BF0B98401C0B900B98007831
:103EF00000287FF48BAE0A9838B1B44202D2002079
:103F0000207002E0002006F8010CA4EB08000DB0C0
:103F1000BDE8F08F284E554C4C290000002070471A
:103F200000207047002070470020704710B5FCF754
:103F3000FDF8FEF7F5FFFFF7CFFAFFF787FBFFF776
:103F400047FBFEF77FFFFFF78FFBFFF7FDFBFFF758
:103F500065FB002010BD0146002009E00B685A1CDB
:103F60000A601A7800EB800302EB4302A2F13000F2
:103F70000A681278303A0A2AF0D370472255AA55B7
:103F8000AA55AA1100000000000000001E1E1E1EFF
:103F90001E1E1E1E01000000000018000000000090
:103FA000000000000000000000000F010000000001
:103FB0000000000000000000000000000000000001
:103FC00000000000000000000000000000000000F1
:103FD000000000000000000000000C000C000C00BD
:103FE0000C000C000C000C000C0000000C00000089
:103FF0000000000000000000000000001DC01DC007
:104000000880088008800000000000000000000018
:10401000000000000000000000000D800D800D80F9
:104020000D803FC01B003FC01B001B001B001B007E
:10403000000000000000000004001F80318031807B
:1040400038001E000F000380318031803F000400E3
:1040500004000000000000000000180024002400FC
:1040600018C007801E00318002400240018000001D
:104070000000000000000000000000000F00180019
:10408000180018000C001D80370033001D80000050
:104090000000000000000000000000000700070012
:1040A000020002000200000000000000000000000A
:1040B00000000000000000000000030003000600F4
:1040C0000E000C000C000C000C000E00060003009B
:1040D00003000000000000000000180018000C00A1
:1040E0000600060006000600060006000C001C0084
:1040F00018000000000000000000060006003FC09D
:104100003FC00F001F801980000000000000000069
:10411000000000000000000000000000000004009B
:10412000040004003F8004000400040000000000BC
:10413000000000000000000000000000000000007F
:1041400000000000000000000000060004000C0059
:10415000080008000000000000000000000000004F
:10416000000000003F800000000000000000000090
:10417000000000000000000000000000000000003F
:10418000000000000000000000000C000C00000017
:10419000000000000000000000C000C0018001809D
:1041A0000300030006000C000C001800180030008B
:1041B000300000000000000000000E001B003180F5
:1041C000318031803180318031801B000E00000051
:1041D0000000000000000000000006003E00060095
:1041E0000600060006000600060006003FC00000AC
:1041F000000000000000000000000F001980318066
:104200003180030006000C00180030003F800000E1
:10421000000000000000000000003F0061800180FD
:1042200003001F0003800180018061803F000000C7
:1042300000000000000000000000070007000F0061
:104240000B001B00130033003F8003000F800000B1
:10425000000000000000000000001F80180018008F
:1042600018001F0011800180018021801F000000C4
:104270000000000000000000000007801C00180083
:104280003000370039803180318019800F00000004
:10429000000000000000000000007F004300030059
:1042A00006000600060006000C000C000C000000D2
:1042B000000000000000000000001F00318031807D
:1042C00031801F0031803180318031801F0000003B
:1042D000000000000000000000001E0033003180DC
:1042E000318033801D800180030007003C00000006
:1042F00000000000000000000000000000000000BE
:104300000C000C000000000000000C000C0000007D
:10431000000000000000000000000000000000009D
:104320000300030000000000000006000400080075
:1043300008000000000000000000000000C00300B2
:1043400004001800600018000400030000C0000012
:10435000000000000000000000000000000000005D
:1043600000007FC000007FC00000000000000000CF
:1043700000000000000000000000000060001800C5
:104380000400030000C003000400180060000000E7
:104390000000000000000000000000001F0031804D
:1043A0003180018007000C000C0000000C000000B0
:1043B000000000000000000000000E0011002100BD
:1043C00021002700290029002700200011000E00ED
:1043D0000000000000000000000000003F000F008F
:1043E0000900198019801F8030C030C079E00000BA
:1043F0000000000000000000000000007F0031808D
:10440000318031803F003180318031807F00000079
:1044100000000000000000000000C000DF4030C0CD
:104420006040600060006000604030801F0000005D
:104430000000000000000000000000007F0031804C
:1044400030C030C030C030C030C031807F0000008C
:104450000000000000000000000000007F803080AD
:10446000308032003E003200308030807F8000009B
:104470000000000000000000000000007FC030408D
:10448000304032003E003200300030007C0000003E
:104490000000000000000000000000001E803180CD
:1044A00060806000600067C0618031801F00000094
:1044B0000000000000000000000000007BC0318010
:1044C000318031803F803180318031807BC000007D
:1044D0000000000000000000000000003FC00600D7
:1044E0000600060006000600060006003FC00000A9
:1044F0000000000000000000000000001FC00300DA
:104500000300030003006300630063003E0000003B
:104510000000000000000000000000007BC03180AF
:10452000330036003C003E003300318079C000008B
:104530000000000000000000000000007E001800E5
:104540001800180018001840184018407FC00000DC
:10455000000000000000000000000000E0E060C07B
:1045600071C07BC06AC06EC064C060C0FBE0000068
:1045700000000000000000000000000073C0318057
:1045800039803D80358037803380318079800000EC
:104590000000000000000000000000001F0031804B
:1045A00060C060C060C060C060C031801F0000009B
:1045B0000000000000000000000000007F003180CB
:1045C0003180318031803F00300030007E000000BB
:1045D0000000000000000000000000001F0031800B
:1045E00060C060C060C060C060C031801F000CC08F
:1045F0001F80000000000000000000007F003180EC
:10460000318031803E003300318031807CE0000019
:104610000000000000000000000000001F8031804A
:10462000318038001F000380318031803F0000005E
:104630000000000000000000000000007F804C80AF
:104640004C804C800C000C000C000C003F00000063
:104650000000000000000000000000007BC031806E
:104660003180318031803180318031801F00000005
:104670000000000000000000000000007BC031804E
:1046800031801B001B001B000A000E000E00000002
:10469000000000000000000000000000FBE060C01F
:1046A00064C06EC06EC02A803B803B8031800000B9
:1046B0000000000000000000000000007BC031800E
:1046C0001B000E000E000E001B0031807BC000009E
:1046D00000000000000000000000000079E030C091
:1046E00019800F0006000600060006001F8000006B
:1046F0000000000000000000000000003F8021805A
:104700002300060004000C00188030803F80000069
:104710000000000000000000000007800600060006
:104720000600060006000600060006000600060059
:104730000780000000000000300030001800180062
:104740000C000C000600030003000180018000C083
:1047500000C000000000000000001E00060006006F
:104760000600060006000600060006000600060019
:104770001E0000000000000004000A000A001100F2
:1047800020802080000000000000000000000000E9
:104790000000000000000000000000000000000019
:1047A0000000000000000000000000000000000009
:1047B000000000000000FFE008000400020000000C
:1047C00000000000000000000000000000000000E9
:1047D00000000000000000000000000000000000D9
:1047E0001F00018001801F80318033801DC00000C8
:1047F00000000000000000000000700030003000E9
:104800003700398030C030C030C0398077000000B8
:104810000000000000000000000000000000000098
:104820001E80318060806000608031801F00000049
:1048300000000000000000000000038001800180F3
:104840001D80338061806180618033801DC00000E5
:104850000000000000000000000000000000000058
:104860001F00318060C07FC0600030C01F8000002A
:104870000000000000000000000007E00C000C0039
:104880003F800C000C000C000C000C003F8000006E
:104890000000000000000000000000000000000018
:1048A0001DC0338061806180618033801D80018004
:1048B00001801F0000000000000070003000300088
:1048C0003700398031803180318031807BC00000F9
:1048D00000000000000000000000060006000000CC
:1048E0001E00060006000600060006003FC000008D
:1048F00000000000000000000000060006000000AC
:104900003F00030003000300030003000300030053
:1049100003003E0000000000000070003000300086
:10492000378036003C003C003600330077C0000082
:10493000000000000000000000001E00060006004D
:104940000600060006000600060006003FC0000044
:104950000000000000000000000000000000000057
:104960007F8036C036C036C036C036C076E0000024
:104970000000000000000000000000000000000037
:104980007700398031803180318031807BC00000F8
:104990000000000000000000000000000000000017
:1049A0001F00318060C060C060C031801F00000007
:1049B00000000000000000000000000000000000F7
:1049C0007700398030C030C030C0398037003000C7
:1049D00030007C000000000000000000000000002B
:1049E0001DC0338061806180618033801D800180C3
:1049F000018007C00000000000000000000000006F
:104A00007B801CC018001800180018007F000000F0
:104A10000000000000000000000000000000000096
:104A20001F8031803C001F00038031803F00000068
:104A3000000000000000000000001800180018002E
:104A40007F00180018001800180018800F000000E0
:104A50000000000000000000000000000000000056
:104A60007380318031803180318033801DC00000FF
:104A70000000000000000000000000000000000036
:104A80007BC0318031801B001B000E000E00000037
:104A90000000000000000000000000000000000016
:104AA000F1E060C064C06EC03B803B80318000009C
:104AB00000000000000000000000000000000000F6
:104AC0007BC01B000E000E000E001B007BC0000010
:104AD00000000000000000000000000000000000D6
:104AE00079E030C0198019800B000F000600060025
:104AF0000C003E000000000000000000000000006C
:104B00003F80218003000E00180030803F800000AD
:104B10000000000000000000000006000C000C0077
:104B20000C000C000C0018000C000C000C000C0019
:104B3000060000000000000000000600060006005D
:104B40000600060006000600060006000600060035
:104B5000060000000000000000000C000600060037
:104B60000600060006000300060006000600060018
:104B70000C00000000000000000000000000000029
:104B8000E780A800F0001000100010000800078067
:104B90000000000000000000000000000000000015
:104BA0000000000000000000000000000000000005
:104BB00000000000000000000000000000000000F5
:104BC00000000700070007000700070007000700B4
:104BD00002000200000000000700070000000000C3
:104BE0000000000000000000000000001CE01CE0CD
:104BF0001CE00840084008400000000000000000E1
:104C000000000000000000000000000000000000A4
:104C10000CC00CC00CC00CC00CC03FF03FF00CC06E
:104C20000CC03FF03FF00CC00CC00CC00CC00CC05E
:104C300000000000000000000300030007E00FE098
:104C4000186018001F000FC000E0186018601FC037
:104C50001F800300030003000000000000000000AC
:104C600000001C002200220022001C6001E00F80D6
:104C70003C0031C002200220022001C000000000E0
:104C8000000000000000000000000000000003E041
:104C90000FE00C000C0006000F301FF019E018C0E8
:104CA0001FF007B00000000000000000000000003E
:104CB0000000000003800380038001000100010068
:104CC00000000000000000000000000000000000E4
:104CD0000000000000000000000000C000C00180D3
:104CE00001800180030003000300030003000300B0
:104CF00001800180018000C000C0000000000000B1
:104D000000000C000C000600060006000300030073
:104D100003000300030003000600060006000C0069
:104D20000C0000000000000000000300030003006E
:104D30001B601FE0078007800FC00CC00000000050
:104D40000000000000000000000000000000000063
:104D500000000000000003000300030003003FF018
:104D60003FF0030003000300030000000000000008
:104D70000000000000000000000000000000000033
:104D800000000000000000000000000000000380A0
:104D900003000300060006000400000000000000FD
:104DA00000000000000000000000000000003FE0E4
:104DB0003FE00000000000000000000000000000D4
:104DC00000000000000000000000000000000000E3
:104DD0000000000000000000000000000000038050
:104DE00003800380000000000000000000000000BD
:104DF0000060006000C000C000C0018001800300AE
:104E00000300060006000C000C000C00180018003F
:104E1000000000000000000000000F801FC018C04C
:104E2000306030603060306030603060306018C0BA
:104E30001FC00F8000000000000000000000000004
:104E4000000003001F001F00030003000300030015
:104E500003000300030003001FE01FE00000000048
:104E6000000000000000000000000F801FC038E0BC
:104E70003060006000C00180030006000C001800D4
:104E80003FE03FE0000000000000000000000000E4
:104E900000000F803FC030E0006000E007C007C0A6
:104EA00000E00060006060E07FC03F800000000024
:104EB0000000000000000000000001C003C003C0AB
:104EC00006C00CC00CC018C030C03FE03FE000C0BE
:104ED00003E003E00000000000000000000000000C
:104EE00000001FC01FC0180018001F801FC018E05E
:104EF00000600060006030E03FC01F8000000000E4
:104F00000000000000000000000003E00FE01E00B1
:104F10001800380037803FC038E03060306018E05B
:104F20001FC007800000000000000000000000001B
:104F300000003FE03FE03060006000C000C000C003
:104F400001800180018003000300030000000000D5
:104F5000000000000000000000000F801FC038E0CB
:104F6000306038E01FC01FC038E03060306038E08B
:104F70001FC00F80000000000000000000000000C3
:104F800000000F001FC038C03060306038E01FE004
:104F90000F6000E000C003C03F803E000000000042
:104FA0000000000000000000000000000000000001
:104FB00000000380038003800000000000000380E5
:104FC00003800380000000000000000000000000DB
:104FD0000000000000000000000001C001C001C08E
:104FE000000000000000038003000600060004002B
:104FF0000000000000000000000000000000003081
:1050000000F003C007001C0078001C00070003C06C
:1050100000F0003000000000000000000000000070
:10502000000000000000000000007FF07FF00000A2
:1050300000007FF07FF00000000000000000000092
:105040000000000000000000000000000000300030
:105050003C000F00038000E0007800E003800F00B8
:105060003C003000000000000000000000000000D4
:10507000000000000F801FC018601860006001C0B1
:10508000038003000000000007000700000000008C
:105090000000000000000000000003800C800840B9
:1050A0001040104011C012401240124011C01000B8
:1050B0000800084007800000000000000000000019
:1050C000000000001F801F80038006C006C00CC0C7
:1050D0000C601FE01FE03030787878780000000026
:1050E0000000000000000000000000003F803FC002
:1050F0001860186018E01FC01FE0187018301830D2
:105100003FF03FE000000000000000000000000051
:10511000E000A000A7B0CFF01C70383030003000A5
:105120003000300038301C700FE007C00000000075
:105130000000000000000000000000007F807FC031
:1051400030E030703030303030303030307030E07F
:105150007FC07F8000000000000000000000000011
:10516000000000003FF03FF01830183019801F8019
:105170001F801980183018303FF03FF00000000009
:105180000000000000000000000000003FF03FF0C1
:105190001830183019801F801F80198018001800DF
:1051A0003F003F0000000000000000000000000081
:1051B0000000000007B01FF01870303030003000E1
:1051C00031F831F8303018301FF007C0000000000F
:1051D0000000000000000000000000003CF03CF077
:1051E0001860186018601FE01FE0186018601860F1
:1051F0003CF03CF000000000000000000000000057
:10520000000000001FE01FE0030003000300030094
:1052100003000300030003001FE01FE00000000084
:1052200000000000000000000000000003F803F888
:10523000006000600060006030603060306030E02E
:105240003FC00F80000000000000000000000000D0
:10525000000000003EF83EF818E019801B001F0017
:105260001D8018C018C018603E783E38000000004D
:105270000000000000000000000000003F003F00B0
:105280000C000C000C000C000C000C300C300C302E
:105290003FF03FF0000000000000000000000000B0
:1052A000000000007878787838703CF034B037B07F
:1052B00037B03330333030307CF87CF800000000F9
:1052C00000000000000000000000000039F03DF088
:1052D0001C601E601E601B601B6019E019E018E076
:1052E0003EE03E6000000000000000000000000002
:1052F0000000000007800FC01CE0387030303030F4
:105300003030303038701CE00FC0078000000000E3
:105310000000000000000000000000003FC03FE06F
:1053200018701830183018701FE01FC018001800CF
:105330003F003F00000000000000000000000000EF
:105340000000000007800FC01CE0387030303030A3
:105350003030303038701CE00FC0078007B00FF0DD
:105360000CE0000000000000000000003FC03FE033
:105370001870183018701FE01FC018E018601870FF
:105380003E383E1800000000000000000000000051
:10539000000000000FB01FF03870303038001F8060
:1053A00007E00070303038703FE037C00000000088
:1053B0000000000000000000000000003FF03FF08F
:1053C00033303330333003000300030003000300A5
:1053D0000FC00FC00000000000000000000000002F
:1053E000000000003CF03CF0186018601860186085
:1053F0001860186018601CE00FC0078000000000F3
:1054000000000000000000000000000078F078F0CC
:105410003060306018C018C00D800D800D8007000E
:10542000070007000000000000000000000000006E
:10543000000000007C7C7C7C3018339833983398D3
:1054400036D816D01C701C701C701830000000007C
:1054500000000000000000000000000078F078F07C
:10546000306018C00D80070007000D8018C0306044
:1054700078F078F00000000000000000000000005C
:10548000000000003CF03CF018600CC00780078072
:1054900003000300030003000FC00FC00000000062
:1054A0000000000000000000000000001FE01FE0FE
:1054B000186018C001800300030006000C6018602B
:1054C0001FE01FE0000000000000000000000000DE
:1054D000000003C003C00300030003000300030037
:1054E000030003000300030003000300030003C0E4
:1054F00003C0000000000000180018000C000C00A1
:105500000C0006000600030003000180018000C0BB
:1055100000C000C00060006000000000000000004B
:1055200000000F000F00030003000300030003004E
:1055300003000300030003000300030003000F0047
:105540000F000000000000000000020007000D80B6
:1055500018C03060202000000000000000000000A3
:10556000000000000000000000000000000000003B
:10557000000000000000000000000000000000002B
:10558000000000000000000000000000000000001B
:1055900000000000FFFCFFFC00000400030000808E
:1055A00000000000000000000000000000000000FB
:1055B00000000000000000000000000000000000EB
:1055C000000000000000000000000FC01FE00060AD
:1055D0000FE01FE0386030E03FF01F700000000077
:1055E00000000000000000000000700070003000AB
:1055F000300037803FE03860303030303030386055
:105600007FE0778000000000000000000000000044
:105610000000000000000000000007B01FF018307C
:1056200030303000300038301FF00FC00000000074
:10563000000000000000000000000070007000305A
:10564000003007B01FF01870303030303030387014
:105650001FF807B800000000000000000000000074
:105660000000000000000000000007801FE018603C
:105670003FF03FF0300018301FF007C0000000007E
:105680000000000000000000000003F007F006002A
:1056900006001FE01FE006000600060006000600E8
:1056A0001FE01FE0000000000000000000000000FC
:1056B0000000000000000000000007B81FF818708C
:1056C00030303030303018701FF007B000300070CC
:1056D0000FE00FC000000000000038003800180084
:1056E00018001BC01FE01C6018601860186018606C
:1056F0003CF03CF000000000000000000000000052
:10570000000003000300000000001F001F00030052
:1057100003000300030003001FE01FE0000000007F
:105720000000000000000000000003000300000073
:1057300000001FC01FC000C000C000C000C000C0EB
:1057400000C000C000C001C03F803F00000000005A
:10575000000038003800180018001BE01BE01B0098
:105760001E001E001B00198039F039F000000000F7
:10577000000000000000000000001F001F000300E8
:105780000300030003000300030003000300030001
:105790001FE01FE00000000000000000000000000B
:1057A000000000000000000000007EE07FF03330C9
:1057B00033303330333033307BB87BB800000000F7
:1057C00000000000000000000000000000000000D9
:1057D00000003BC03FE01C60186018601860186053
:1057E0003CF03CF000000000000000000000000061
:1057F0000000000000000000000007801FE01860AB
:1058000030303030303018601FE00780000000007A
:105810000000000000000000000000000000000088
:10582000000077807FE038603030303030303860D2
:105830003FE03780300030007C007C00000000003A
:105840000000000000000000000007B81FF81870FA
:1058500030303030303018701FF007B0003000307A
:1058600000F800F800000000000000000000000048
:1058700000003CE03DF00F300E000C000C000C006E
:105880003FC03FC00000000000000000000000001A
:105890000000000000000000000007E01FE01860AA
:1058A0001E000FC001E018601FE01F800000000014
:1058B0000000000000000000000000000C000C00D0
:1058C0000C003FE03FE00C000C000C000C000C3022
:1058D0000FF007C000000000000000000000000002
:1058E0000000000000000000000038E038E0186010
:1058F00018601860186018E01FF00F7000000000BA
:105900000000000000000000000000000000000097
:10591000000078F078F0306018C018C00D800D805D
:105920000700070000000000000000000000000069
:105930000000000000000000000078F078F0326005
:10594000326037E01DC01DC018C018C00000000044
:105950000000000000000000000000000000000047
:1059600000003CF03CF00CC00780030007800CC036
:105970003CF03CF0000000000000000000000000CF
:105980000000000000000000000078F078F03060B7
:1059900018C018C00D800F800700060006000C001C
:1059A0007F007F00000000000000000000000000F9
:1059B00000001FE01FE018C00180030006000C601B
:1059C0001FE01FE0000000000000000000000000D9
:1059D000000001C003C00300030003000300030034
:1059E00007000E000700030003000300030003C0CC
:1059F00001C00000000000000000030003000300DD
:105A0000030003000300030003000300030003007E
:105A10000300030003000300030000000000000077
:105A200000001C001E00060006000600060006001E
:105A300007000380070006000600060006001E009F
:105A40001C0000000000000000000000000000003A
:105A5000000000000E003F3033F001E000000000C5
:105A60000000000000000000000000000000000036
:105A70000000000000000000000000000000000026
:105A80000000000000000000000000000000000016
:105A90000000000000000000000000000000000006
:105AA00000000000000000000000000000000000F6
:105AB00000000000000000000000000000000000E6
:105AC00000000000000000000000000000000000D6
:105AD00000000000000000000000000000000000C6
